:1000000045C0000061C000005FC000005DC000008E
:100010005BC0000059C0000057C0000055C0000080
:1000200053C0000051C000004FC00000D1C3000009
:100030004BC0000049C0000047C0000045C00000A0
:1000400043C0000041C000003FC000003DC00000B0
:100050003BC0000039C0000037C0000035C00000C0
:1000600033C0000031C000002FC000002DC00000D0
:100070002BC0000029C0000027C0000025C00000E0
:1000800023C0000021C000001FC0000011241FBEBB
:10009000CFEFD0E4DEBFCDBF11E0A0E0B1E0EEE3F2
:1000A000F2E100E00BBF02C007900D92AA33B10746
:1000B000D9F711E0AAE3B1E001C01D92A835B1075C
:1000C000E1F709D00C941D099BCF80912F018F5F20
:1000D00080932F010895EF92FF920F931F93CF9378
:1000E000DF936CD300D288EC90E0B9D300D080E0ED
:1000F00091E0ADB7BEB712969C938E931197BAD587
:100100000F900F9088EC90E0AAD300D086E091E0A9
:10011000EDB7FEB792838183ADD50F900F9080ED40
:1001200097E09DD3E0D1C0E0D0E0CE018F5B9F4F40
:10013000B2D582E390E093D32196CA33D105A9F7D3
:1001400080ED97E08CD3CFD100D08DE091E0ADB7BA
:10015000BEB712969C938E9311978CD50F900F90EB
:10016000C0E0D0E080E2E82E83E0F82E05E111E067
:10017000C7018C1B9D0B73D300D000D000D0EDB70E
:10018000FEB73196ADB7BEB712961C930E9311977A
:10019000D383C283D583C4836DD5E296EDB7FEB712
:1001A00036960FB6F894FEBF0FBEEDBFF2E0C63232
:1001B000DF07F1F680ED97E052D395D100D08FE1C3
:1001C00091E0ADB7BEB712969C938E93119752D51E
:1001D0000F900F90C8E2D1E080E061E0A3D18ED013
:1001E000C8D000D000D0EDB7FEB7D283C1839483CE
:1001F000838340D50F900F900F900F9082E390E093
:100200002ED3EACF80917C0090E025E095958795EC
:100210002A95E1F78170089580917A0090E036E0A8
:10022000959587953A95E1F781700895EBDF8823DE
:1002300021F02091790030E004C0209178003091C5
:100240007900C90108958032B0F497E890937A005C
:1002500090917C00292F2064662311F0906C02C0DD
:10026000922F9F77907E982B90937C0080917A00BC
:10027000806480937A000895A0E0B0E0E1E4F1E0CA
:100280004FC36B0160E0DFDFC7DF8823E9F7E601DA
:10029000EE24FF24870180917A00806480937A00A5
:1002A000BBDF8823E9F7C2DFA0E0B0E0E80EF91E6B
:1002B0000A1F1B1F219779F7C6019695879520E4A1
:1002C000C216D10438F48E0D9F1D6C2D70E0E8D25B
:1002D000CB010CC0BC0180E090E06E0D7F1D801F43
:1002E000911F960140E050E0EFD2C901CDB7DEB7D3
:1002F000E8E032C387E064E170E0BECFFBCF089551
:10030000A3E0B0E0E5E8F1E010C3BC0180E090E0DC
:10031000209130013091310140E050E0A2D2182FFD
:1003200069837A839B836EDF69817A819B818823CD
:1003300071F09B01412F592FCA01B90161587F4FBC
:100340008F4F9F4F2FEF30E040E050E00DC09B01FA
:10035000412F592FCA01B90161507E4F8F4F9F4FD6
:100360002FEF33E040E050E0AFD2C9012396E3E045
:10037000F8C2C6CF089580E090E0089581E090E053
:100380006F9364E06A95F1F76F910197C9F708954B
:100390001F93CF93DF9317B13F982898299AC0E015
:1003A000D0E0ECDF2B9AEADF86B12B9887FF11C0F3
:1003B00022969E0140E050E080913E0190913F01E5
:1003C000A0914001B0914101281739074A075B0706
:1003D00040F317B9DF91CF911F91089588B92B9AF7
:1003E000CDDF2B98CBCFA2E0B0E0E8EFF1E09CC2EC
:1003F0006A83898341D0CCDF07B118B129986A811B
:100400008981662311F0289A01C028989FEF97B937
:10041000E5DF07B918B92296E4E0A2C260E042E045
:10042000E2CF80E197E2A0E0B0E080933E019093BC
:100430003F01A0934001B0934101209A219A239A51
:100440008EE190E00CD280E3E9DF86E090E007D215
:1004500080E3E4DF82E090E002D280E3DFDF82E04D
:1004600090E0FDD188E3DADF88E0D8DF81E0D6DFF5
:1004700086E0D4DF8CE0D2CF80914201882321F442
:1004800081E080934201CDCF089561E042E0ABCF9F
:1004900081E0C4DF80913A0190913B01009711F116
:1004A000A0E0B0E208C0E0913A01F0913B01E20F18
:1004B000F31FB083AF5F2A2F30E08091320190E0CC
:1004C00001976091330170E0869FA001879F500DD6
:1004D000969F500D1124241735072CF310923D01DF
:1004E00010923C010895D4CF0895A5E0B0E0EAE76A
:1004F000F2E01BC2182F80E8898380EC8A8384E9AC
:100500008B8384ED8C83FE01E60FF11D8181810FC9
:100510006D8384DF10933D016D8160933C012596CE
:10052000E3E01FC2E2CF0895A0E0B0E0E9E9F2E025
:10053000F7C1D82E80913A0190913B01009709F4C0
:10054000F2C02D2D2A3009F442C02830C9F4809120
:100550003D01815080933D018F3F51F480913C01DA
:10056000815080933C0180913301815080933D0103
:1005700080913C018F3F09F0D1C010923C01CCC06A
:100580008D2D83DF80913C018823B9F090E00197A5
:100590004091330150E0849F9001859F300D949FDE
:1005A000300D112480913D01E0913A01F0913B0121
:1005B000E20FF31FE80FF11DD08280913D018F5FA4
:1005C00080933D0190913301891709F0ACC04091AF
:1005D0003C01242F30E08091320190E001972817F0
:1005E000390709F096C0C0E0D0E03FC080E06C2F32
:1005F0007CDFCC248E010F5F1F4F32C0EC2CFF2418
:1006000030E0C29FC001C39F900DD29F900D112476
:10061000E0913A01F0913B01EE0DFF1DE80FF91F4B
:10062000808133DF80913A0190913B012091330129
:1006300030E0C29FF001C39FF00DD29FF00D112456
:100640008E0D9F1DE80FF91F029FD001039FB00D73
:10065000129FB00D1124A80FB91F8C918083C394F1
:1006600020913301C21650F2E80160913201862FC9
:1006700090E00297C817D9070CF4B8CF6230D0F1D8
:10068000625080E032DF00E010E230C0C02FD0E0E6
:100690008091320190E0029750E0849F9001859F05
:1006A000300D949F300D1124E0913A01F0913B01FF
:1006B000EC0FFD1FE20FF31F8081E7DE8091320116
:1006C00090E002974091330150E0849F9001859F14
:1006D000300D949F300D1124E0913A01F0913B01CF
:1006E000EC0FFD1FE20FF31F10830F5F40913301EA
:1006F000041760F260913201615080E0F6DE10E094
:1007000003C080E2C2DE1F5F809133011817C8F377
:1007100003C04F5F40933C0110923D0180913D0129
:1007200060913C01E2DE2D2D332727FD3095C90174
:10073000CDB7DEB7E8E010C180913A0190913B015E
:10074000009709F0B4D12091320130E021503040BF
:100750008091330190E0AC01249FC001259F900D52
:10076000349F900D112409D190933B0180933A015D
:10077000009719F1A0E0B0E208C0E0913A01F091D1
:100780003B01E20FF31FB083AF5F2A2F30E080916F
:10079000320190E001976091330170E0869FA001E3
:1007A000879F500D969F500D1124241735072CF369
:1007B00084E992E06BEB71E013C20895BDCF089518
:1007C0006F9364E06A95F1F76F910197C9F7089507
:1007D0002F928F939F932FB6809144019091450162
:1007E0000196809344019093450190E080914601E9
:1007F000891F8093460190914C019C5F90934C011E
:1008000080914B0180519742C0F090934C018093AE
:100810004B018091470190914801019680934701D7
:100820009093480190E080914901891F809349018C
:1008300080914A01891F80934A012FBE9F918F9119
:100840002F901895CF93DF93EC0104C088EE93E0CE
:10085000B7DF21972097D1F7DF91CF910895F2CF9D
:100860000895629FD001739FF001829FE00DF11DFA
:10087000649FE00DF11D929FF00D839FF00D749F1A
:10088000F00D659FF00D9927729FB00DE11DF91FC6
:10089000639FB00DE11DF91FBD01CF011124089523
:1008A000AA1BBB1B51E107C0AA1FBB1FA617B70796
:1008B00010F0A61BB70B881F991F5A95A9F78095B2
:1008C0009095BC01CD010895A1E21A2EAA1BBB1B75
:1008D000FD010DC0AA1FBB1FEE1FFF1FA217B3070C
:1008E000E407F50720F0A21BB30BE40BF50B661F22
:1008F000771F881F991F1A9469F7609570958095E6
:1009000090959B01AC01BD01CF0108952F923F92BC
:100910004F925F926F927F928F929F92AF92BF920F
:10092000CF92DF92EF92FF920F931F93CF93DF93BB
:10093000CDB7DEB7CA1BDB0B0FB6F894DEBF0FBE18
:10094000CDBF09942A88398848885F846E847D8465
:100950008C849B84AA84B984C884DF80EE80FD8067
:100960000C811B81AA81B981CE0FD11D0FB6F894DD
:10097000DEBF0FBECDBFED010895CF93DF93823070
:10098000910510F482E090E0E0915001F091510166
:1009900040E050E020E030E026C0608171816817BF
:1009A0007907E0F06817790781F482819381211536
:1009B000310531F0D90113969C938E9312972BC079
:1009C000909351018093500126C04115510519F0B3
:1009D0006417750718F4AB01E901DF019F0172810B
:1009E0006381E72FF62F3097C1F64115510501F1CC
:1009F000481B590B4430510580F412968D919C91FF
:100A00001397209719F09B838A8304C09093510118
:100A100080935001FD01329646C0FD01E40FF51FA1
:100A2000819391934250504011965C934E933BC0FA
:100A300020914E0130914F012115310541F4209153
:100A400036013091370130934F0120934E012091B0
:100A50003801309139012115310541F42DB73EB7E8
:100A60004091340150913501241B350BE0914E012A
:100A7000F0914F01E217F307A0F42E1B3F0B28174C
:100A8000390778F0AC014E5F5F4F2417350748F007
:100A90004E0F5F1F50934F0140934E0181939193EE
:100AA00002C0E0E0F0E0CF01DF91CF910895CF9355
:100AB000DF93009709F491C0FC01329713821282F0
:100AC00060915001709151016115710581F420818F
:100AD0003181280F391F80914E0190914F0182176B
:100AE000930799F5F0934F01E0934E0176C0DB0137
:100AF00080E090E002C0CD01D901AE17BF0748F4F5
:100B000012962D913C91139721153105A1F7CD0136
:100B100021C0B383A283EF01499159919E01240F13
:100B2000351FA217B30779F42D913C911197240F2B
:100B3000351F2E5F3F4F3183208312962D913C91BC
:100B4000139733832283009729F4F0935101E093A4
:100B5000500143C0DC011396FC93EE9312974D9124
:100B60005D91A40FB51FEA17FB0769F4208131815D
:100B7000240F351F2E5F3F4FEC01398328832281DC
:100B800033813B832A83E0E0F0E002C0FB01BC013B
:100B9000DB0112968D919C9113970097B9F79B01F9
:100BA0002E5F3F4F8D919C911197820F931F409123
:100BB0004E0150914F014817590779F4309729F4A5
:100BC000109251011092500102C0138212822250E1
:100BD000304030934F0120934E01DF91CF91089523
:100BE0000F931F93CF93DF938C01EB01009711F4C8
:100BF0002097C1F181E090E06EE070E054D2FC01FA
:100C00009C01009789F180E88383209771F0D38756
:100C1000C28781E8838380915201909153010097AC
:100C200021F4F0935301E093520101151105E1F015
:100C30001187008783818260838380915401909122
:100C40005501009789F4F0935501E0935401809188
:100C5000560190915701009739F4F0935701E093B2
:100C6000560102C020E030E0C901DF91CF911F9111
:100C70000F910895DF93CF93CDB7DEB7FE01359680
:100C8000619171918091540190915501AF0108D00B
:100C9000CF91DF910895609154017091550143C245
:100CA0002F923F924F925F926F927F928F929F927C
:100CB000AF92BF92CF92DF92EF92FF920F931F936A
:100CC000DF93CF93CDB7DEB72C970FB6F894DEBF86
:100CD0000FBECDBF6C011B018A01FC011782168279
:100CE000838181FFC4C12E010894411C511CF6016F
:100CF0009381F10193FD859193FF81911F018823D9
:100D000009F4B1C1853239F493FD859193FF819146
:100D10001F01853221F490E0B60105D2E8CFEE2420
:100D2000FF2420E02032B0F48B3269F08C3228F4BA
:100D3000803251F0833271F40BC08D3239F0803340
:100D400049F421602CC02260246029C0286027C09B
:100D5000206125C027FD2CC0382F30533A3098F43D
:100D600026FF08C08E2D880FE82EEE0CEE0CE80E44
:100D7000E30E15C08F2D880FF82EFF0CFF0CF80E18
:100D8000F30E20620CC08E3221F426FD6CC120646B
:100D900006C08C3611F4206802C0883649F4F1018F
:100DA00093FD859193FF81911F01882309F0BACFAC
:100DB000982F9554933018F09052933028F40C5F8C
:100DC0001F4FFFE3F9830DC0833631F0833771F095
:100DD000833509F05CC021C0F801808189830E5FF2
:100DE0001F4F420171E0A72EB12C15C062E0662EA4
:100DF000712C600E711EF8018080918026FF03C067
:100E00006E2D70E002C06FEF7FEFC4012C8780D1A0
:100E10005C0183012C852F7716C052E0652E712C62
:100E2000600E711EF8018080918026FF03C06E2D38
:100E300070E002C06FEF7FEFC4012C8757D15C01D7
:100E40002C852068830123FD1EC007C080E290E04E
:100E5000B6012C8768D1FA942C858F2D90E0A816C6
:100E6000B906A0F310C0F40127FD859127FF8191F9
:100E70004F0190E0B6012C8756D12C85F110FA94E1
:100E80000894A108B108A114B10469F7E9C0843637
:100E900011F0893641F527FF08C0F80160817181A2
:100EA000828193810C5F1F4F09C0F80160817181BD
:100EB000882777FD8095982F0E5F1F4F4FE6B42E41
:100EC000B22297FF09C090958095709561957F4FEC
:100ED0008F4F9F4FF0E8BF2AA2012AE030E04FD1A8
:100EE000782E741844C0853731F43FEEB32EB22209
:100EF0002AE030E025C099EFB92EB2228F36C1F03A
:100F0000803720F4883509F0AEC00DC0803721F05D
:100F1000883709F0A8C002C020E1B22AB4FE0BC095
:100F200084E0B82A08C0B4FE09C0E6E0BE2A06C0C4
:100F300028E030E005C020E130E002C020E132E0EE
:100F4000B7FE08C0F80160817181828193810C5FD6
:100F50001F4F07C0F8016081718180E090E00E5F53
:100F60001F4FA2010CD1782E7418FFE7BF22B6FEE6
:100F70000BC02EEFB2227E1438F4B4FE07C0B2FCD0
:100F800005C08FEEB82202C0A72C01C0AE2C8B2D5D
:100F900090E0B4FE0DC0FE01E70DF11D208120336D
:100FA00019F4E9EEBE2209C0A394B2FE06C004C043
:100FB00086789070009709F0A3948B2C9924B3FC49
:100FC00013C0B0FE0EC0AF1428F4E72CEF0CEA18E3
:100FD000AF2C07C0E72C05C080E290E0B601A3D09B
:100FE000A394AF14C8F304C0AF1410F4FA1801C0EE
:100FF000FF2484FE0EC080E390E0B60194D082FE10
:101000001DC081FE03C088E590E010C088E790E035
:101010000DC0C40186789070009781F081FC02C0F9
:1010200080E201C08BE2B7FC8DE290E0B6017BD09C
:1010300005C080E390E0B60176D0EA947E14C8F350
:101040007A94F201E70DF11D808190E0B6016BD03A
:101050007720B1F705C080E290E0B60164D0FA9441
:10106000FF20C9F744CEF6012681378102C02FEF59
:101070003FEFC9012C960FB6F894DEBF0FBECDBF6F
:10108000CF91DF911F910F91FF90EF90DF90CF9064
:10109000BF90AF909F908F907F906F905F904F9098
:1010A0003F902F900895EF92FF920F931F93CF934D
:1010B000DF93689F8001699F100D789F100D1124A8
:1010C000C8015BDCE82EE7017E01F92EE7012097DD
:1010D00029F08E2D60E070E0A80113D0CE01DF91E1
:1010E000CF911F910F91FF90EF900895FC01059013
:1010F000615070400110D8F7809590958E0F9F1F1A
:101100000895DC0101C06D9341505040E0F708950F
:10111000FC016150704001900110D8F780959095C6
:101120008E0F9F1F08950F931F93CF93DF938C0112
:10113000EB018B8181FF1BC082FF0DC02E813F819F
:101140008C819D812817390764F4E881F981019326
:10115000F983E88306C0E885F985802F0995009713
:1011600031F48E819F8101969F838E8302C00FEFA1
:101170001FEFC801DF91CF911F910F910895FA01E0
:10118000AA27283051F1203181F1E8946F936E7FC6
:101190006E5F7F4F8F4F9F4FAF4FB1E03ED0B4E0B7
:1011A0003CD0670F781F891F9A1FA11D680F791FF8
:1011B0008A1F911DA11D6A0F711D811D911DA11D09
:1011C00020D009F468943F912AE0269F1124301919
:1011D000305D3193DEF6CF010895462F4770405DB4
:1011E0004193B3E00FD0C9F7F6CF462F4F70405D63
:1011F0004A3318F0495D31FD4052419302D0A9F7BE
:10120000EACFB4E0A6959795879577956795BA95B7
:10121000C9F700976105710508959B01AC010A2E7D
:1012200006945795479537952795BA95C9F7620F54
:0E123000731F841F951FA01D0895F894FFCF13
:10123E0068656C6C6F000A776F726C640048657835
:10124E0020446563000A253033582025336400544A
:10125E0072696D706F743A00253475206D560001F9
:0A126E00881304142000580100004A
:00000001FF
