:1000000045C0000060C000005EC000005CC0000091
:100010005AC0000058C0000056C0000054C0000084
:1000200052C0000050C000004EC00000DCC0000004
:100030004AC0000048C0000046C0000044C00000A4
:1000400042C0000040C000003EC000003CC00000B4
:100050003AC0000038C0000036C0000034C00000C4
:1000600032C0000030C000002EC000002CC00000D4
:100070002AC0000028C0000026C0000024C00000E4
:1000800022C0000020C000001EC0000011241FBEBE
:10009000CFEFD0E4DEBFCDBF11E0A0E0B1E0ECE7F0
:1000A000F2E000E00BBF02C007900D92A230B10752
:1000B000D9F711E0A2E0B1E001C01D92AD30B10767
:1000C000E1F772D0D9C09CCF883068F441E050E0AD
:1000D00002C0440F551F8A95E2F7842FAAE2B0E0D0
:1000E000EBE2F0E03BC0803180F4282F30E0285074
:1000F000304081E090E002C0880F991F2A95E2F716
:10010000A4E2B0E0E5E2F0E029C0883180F4282FD5
:1001100030E02051304081E090E002C0880F991F0C
:100120002A95E2F7A7E2B0E0E8E2F0E017C08032FB
:1001300080F42FE130E0281B310981E090E002C01B
:10014000880F991F2A95E2F7A1E2B0E0E2E2F0E021
:1001500005C080E0A0E0B0E0E0E0F0E06F3F19F41F
:100160009081982709C0662319F09081982B04C0CC
:100170002081982F9095922390839C91982B9C930B
:1001800008958F3F19F481E06FEF07C0882319F4B9
:1001900081E061E002C081E060E096CF80910001E3
:1001A0008F5F80930001089581E0EBDF88EE93E09C
:1001B00061D080E0E6DF88EE93E05CD084E161E02E
:1001C00083DF84EF91E056D084E160E07DDF84EF4F
:1001D00091E050D0E9CF6F9364E06A95F1F76F91A9
:1001E0000197C9F708952F928F939F932FB680910F
:1001F00003019091040101968093030190930401FF
:1002000090E080910501891F8093050190910B0179
:100210009C5F90930B0180910A0180519742C0F03E
:1002200090930B0180930A01809106019091070140
:100230000196809306019093070190E08091080158
:10024000891F8093080180910901891F809309010A
:100250002FBE9F918F912F901895CF93DF93EC0134
:1002600004C088EE93E0B7DF21972097D1F7DF91A4
:0C027000CF910895F2CF0895F894FFCFCD
:02027C0001007F
:00000001FF
