:1000000045C0000060C000005EC000005CC0000091
:100010005AC0000058C0000056C0000054C0000084
:1000200052C0000050C000004EC000008EC400004E
:100030004AC0000048C0000046C0000044C00000A4
:1000400042C0000040C000003EC000003CC00000B4
:100050003AC0000038C0000036C0000034C00000C4
:1000600032C0000030C000002EC000002CC00000D4
:100070002AC0000028C0000026C0000024C00000E4
:1000800022C0000020C000001EC0000011241FBEBE
:10009000CFEFD0E4DEBFCDBF11E0A0E0B1E0EAEBEE
:1000A000FCE000E00BBF02C007900D92AC31B1073D
:1000B000D9F711E0ACE1B1E001C01D92AB34B1075A
:1000C000E1F772D0F8C59CCF883068F441E050E089
:1000D00002C0440F551F8A95E2F7842FAAE2B0E0D0
:1000E000EBE2F0E03BC0803180F4282F30E0285074
:1000F000304081E090E002C0880F991F2A95E2F716
:10010000A4E2B0E0E5E2F0E029C0883180F4282FD5
:1001100030E02051304081E090E002C0880F991F0C
:100120002A95E2F7A7E2B0E0E8E2F0E017C08032FB
:1001300080F42FE130E0281B310981E090E002C01B
:10014000880F991F2A95E2F7A1E2B0E0E2E2F0E021
:1001500005C080E0A0E0B0E0E0E0F0E06F3F19F41F
:100160009081982709C0662319F09081982B04C0CC
:100170002081982F9095922390839C91982B9C930B
:1001800008958F3F19F481E06FEF07C0882319F4B9
:1001900081E061E002C081E060E096CF80911101D2
:1001A0008F5F809311010895A0E0B0E0E9EDF0E0E9
:1001B00055C500E012E082E0E82EF12C45D1C82EB2
:1001C000E6016E01D92E80E060E097D280E091E0F8
:1001D0001FD2B601882777FD8095982F6FD285E0D2
:1001E00091E016D2C8018C199D09B701F8D4EB0132
:1001F00080E061E082D288E091E00AD2BE018827E7
:1002000077FD8095982F5AD28DE091E001D2CE01F2
:10021000BE0191D380E0B5DF84E160E055DF1C16BC
:100220001D0624F484E161E04FDF04C0209711F043
:1002300081E0A7DF84E690E0CFD3C0CF80917C003F
:1002400090E025E0959587952A95E1F781700895CE
:1002500080917A0090E036E0959587953A95E1F7A0
:1002600081700895EF92FF920F931F93CF93DF93C6
:1002700080911C01882309F44FC0E0901D01F0908B
:100280001E01DCDFC0911201D0911301970140E003
:1002900050E08823F9F07E01F694E79400E010E046
:1002A000CA01B9012FEF30E040E050E065D4E60E1E
:1002B000F71E081F191F9E0140E050E0C801B7015A
:1002C000A1D4C901DA018F3F9105A105B10511F152
:1002D00008F12EC07E01F694E79400E010E0CA0118
:1002E000B9012FEF33E040E050E046D4E60EF71EB0
:1002F000081F191F9E0140E050E0C801B70182D4D9
:10030000C901DA01803020E0920721E0A20720E055
:10031000B20788F49C0111C091DF882321F020915D
:10032000790030E00AC0209178003091790005C052
:100330002FEF30E002C02FEF3FEFC901CDB7DEB79E
:10034000E6E0AAC48032D8F091E090931C01803896
:1003500011F4A5D30FC0813811F4A7D30BC0823894
:1003600011F4A9D307C0833811F4ABD303C0843888
:10037000F1F4ADD390931E0180931D010895109266
:100380001C0197E890937A0090917C00292F2064BB
:10039000662311F0906C02C0922F9F77907E982B6D
:1003A00090937C0080917A00806480937A00089515
:1003B00060E0C8DF4DDF8823E9F754CFA0E0B0E06C
:1003C000E3EEF1E04BC46B01803210F0F1DF34C09A
:1003D00060E0B8DF3DDF8823E9F7E601EE24FF2483
:1003E000870180917A00806480937A0031DF8823CE
:1003F000E9F738DFA0E0B0E0E80EF91E0A1F1B1F86
:10040000219779F7C6019695879520E4C216D10405
:1004100038F48E0D9F1D6C2D70E0CDD3CB010CC038
:10042000BC0180E090E06E0D7F1D801F911F960142
:1004300040E050E0E7D3C901CDB7DEB7E8E02AC419
:1004400080E864E170E0BACFFBCF089581E090E0EE
:100450006F9364E06A95F1F76F910197C9F708957A
:100460000F931F93CF93DF9317B13D982898299A44
:10047000C0E0D0E0EBDF2A9AE9DF06B12A98E6DF98
:100480002A9AE4DF2A98249605FF10C09E0140E0D6
:1004900050E08091230190912401A0912501B09119
:1004A0002601281739074A075B0720F39E0140E021
:1004B00050E08091230190912401A0912501B091F9
:1004C0002601281739074A075B0728F082E390E0E6
:1004D000A0E0B0E004C080E395E7A0E0B0E0809346
:1004E000230190932401A0932501B093260117B90D
:1004F000DF91CF911F910F91089528B190E08F70F7
:100500009070880F991F880F991F237C282B28B97A
:100510002A9A9CDF2A989ACFA2E0B0E0E1E9F2E0C3
:10052000A0C3182F4A83698357D09ADFF7B008B168
:10053000299869814A81662311F0289A01C0289878
:1005400087B18C6387B9413021F0812F82958F70FC
:10055000D4DF812F8F70D1DFF7B808B92296E5E09C
:100560009CC360E042E0D8CF61E042E0D5CF60E0DC
:1005700041E0D2CF3D98459A80E395E7A0E0B0E016
:100580008093230190932401A0932501B093260129
:10059000209A219A229A8EE190E01ED283E0E7DF32
:1005A00086E090E019D283E0E2DF82E090E014D2AE
:1005B00083E0DDDF82E090E00FD282E0D8DF82E0EE
:1005C00090E00AD288E2CDDF88E0CBDF81E0C9DFAE
:1005D00086E0C7DF8CE0C5CF80912701882321F416
:1005E00081E080932701C6CF0895EF92FF92CF93C9
:1005F000DF93E82EE7017E01F92EE70101C0B4DFA9
:1006000089918823E1F7DF91CF91FF90EF900895D2
:10061000ECCF0895AAE0B0E0EFE0F3E01DC39B014A
:10062000AC011AE06AE0C62ED12CE12CF12C5E015F
:100630000894A11CB11C022FCA01B901A70196019F
:10064000E1D21150F501E10FF11D005D922F990FDC
:10065000892F880F880F890F081B0083211531050A
:100660004105510541F707C0F601E10FF11D8081F9
:100670007BDF1F5F04C06E010894C11CD11C1A30BF
:1006800098F32A96EAE004C3EF92FF920F931F9328
:100690007B018C0197FF0AC010950095F094E094BF
:1006A000E11CF11C011D111D8DE25EDFC801B701C7
:1006B000B1DF1F910F91FF90EF900895E5CF08955E
:1006C000A5E0B0E0E5E6F3E0CEC2182F80E889832C
:1006D00080EC8A8384E98B8384ED8C83FE01E60FB2
:1006E000F11D8181810F6D833CDF109322016D81AB
:1006F000609321012596E3E0D2C2E2CF0895FC0188
:10070000118210821382128215821482168268303E
:1007100068F489E290E0918380838BE290E0938398
:1007200082838AE290E09583848323C0603180F4E1
:1007300083E290E09183808385E290E093838283DB
:1007400084E290E09583848370E06850704011C02B
:100750006831C0F486E290E09183808388E290E083
:100760009383828387E290E09583848370E0605175
:10077000704081E090E002C0880F991F6A95E2F70F
:10078000868308956032C0F480E290E09183808394
:1007900082E290E09383828381E290E09583848378
:1007A0002FE130E0261B310981E090E002C0880F84
:1007B000991F2A95E2F786830895FC01A481B581EB
:1007C0008681662321F09C91982B9C9308959C919F
:1007D000809589238C930895FC016F3F31F4A281A9
:1007E000B3818C91968189270CC0A281B3818681C7
:1007F000662321F09C91982B9C9308959C91809561
:1008000089238C930895A7E0B0E0E8E0F4E029C2E2
:10081000282FF62E8E010F5F1F4FC801622F6FDF4A
:10082000C8016F2DD9DFC80161E0C7DF2796E5E079
:1008300034C283E08093B00082E08093B100E4EBA7
:10084000F0E0108280818093B30087E160E0DBDF1D
:1008500086E160E0D8DF87E060E0D5DF86E060E039
:10086000D2CF80912801882321F481E08093280150
:10087000E0CF0895CF93DF93EC01F3DFD7FF05C0FE
:10088000D095C195DF4F91E001C090E0CF3FD105F9
:1008900019F014F0CFEFD0E0C093B300209731F4FB
:1008A0008091B0008F778093B0000DC08091B00030
:1008B00080688093B000992319F087E161E002C05D
:1008C00087E160E0A0DFDF91CF910895CF93DF93C0
:1008D000EC01C7DFD7FF05C0D095C195DF4F91E090
:1008E00001C090E0CF3FD10519F014F0CFEFD0E078
:1008F000C093B400209731F48091B0008F7D809335
:10090000B0000DC08091B00080628093B000992348
:1009100019F086E161E002C086E160E074DFDF91FA
:10092000CF910895CF93DF93EB01A4DFCE01CEDF0B
:10093000DF91CF910895F6CF08956F9364E06A95A3
:10094000F1F76F910197C9F708952F928F939F93B5
:100950002FB680912A0190912B01019680932A0154
:1009600090932B0190E080912C01891F80932C01A2
:10097000909132019C5F90933201809131018051BE
:100980009742C0F0909332018093310180912D0104
:1009900090912E01019680932D0190932E0190E06D
:1009A00080912F01891F80932F0180913001891F31
:1009B000809330012FBE9F918F912F901895CF93E8
:1009C000DF93EC0104C088EE93E0B7DF2197209716
:1009D000D1F7DF91CF910895F2CF0895E0E7F0E0ED
:1009E00080818E7F8083A0EBB0E08C9183608C93BC
:1009F000A1EBB0E08C91807F8C938C9182608C9382
:100A0000B89A8081816080837894089580913301C1
:100A1000882321F481E080933301E0CF0895F6DF4D
:100A2000E0E7F0E080818E7F808320912D0130917E
:100A30002E0140912F01509130018081816080838F
:100A4000B901CA0108958FEF64E073C0CF93DF93BB
:100A5000E6DF9B01AC018091180190911901A091F2
:100A60001A01B0911B01281739074A075B07A1F04B
:100A700081E867E05ED0CDE3D1E0E5DF899381E0F6
:100A8000CA34D807D1F7CBDF6093180170931901EE
:100A900080931A0190931B01DF91CF910895D6DFC7
:100AA00080914601909147010895D0DF80913E01E9
:100AB00090913F010895CADF8091400190914101DA
:100AC0000895C4DF80914201909143010895BEDFF3
:100AD000809144019091450108956F9364E06A9577
:100AE000F1F76F910197C9F70895A1E0B0E0EAE747
:100AF000F5E0B9C0182F249908C02C9906C02C9A8B
:100B00008EE190E06983E9DF698184B1806A84B90C
:100B10002698812F837080656C7A862B8CBD81E04E
:100B200012FF80E08DBD81E090E049DF2196E3E097
:100B3000B6C00F931F93082F162F0CB406FC03C0EA
:100B400080E064E0D2DF0CB404FC03C08CB58061AB
:100B50008CBD0EBD03C00CB404FE0AC00DB407FE6C
:100B6000FACF112319F0812F90E0B7DF8EB501C0C5
:100B700080E01F910F910895629FD001739FF00153
:100B8000829FE00DF11D649FE00DF11D929FF00D1D
:100B9000839FF00D749FF00D659FF00D9927729F54
:100BA000B00DE11DF91F639FB00DE11DF91FBD01DF
:100BB000CF0111240895AA1BBB1B51E107C0AA1F36
:100BC000BB1FA617B70710F0A61BB70B881F991FEE
:100BD0005A95A9F780959095BC01CD01089597FB92
:100BE000092E07260AD077FD04D0E5DF06D00020C5
:100BF0001AF4709561957F4F0895F6F79095819559
:100C00009F4F0895A1E21A2EAA1BBB1BFD010DC028
:100C1000AA1FBB1FEE1FFF1FA217B307E407F507AC
:100C200020F0A21BB30BE40BF50B661F771F881F88
:100C3000991F1A9469F760957095809590959B011E
:100C4000AC01BD01CF0108952F923F924F925F9268
:100C50006F927F928F929F92AF92BF92CF92DF92CC
:100C6000EF92FF920F931F93CF93DF93CDB7DEB731
:100C7000CA1BDB0B0FB6F894DEBF0FBECDBF0994C5
:100C80002A88398848885F846E847D848C849B841C
:100C9000AA84B984C884DF80EE80FD800C811B812A
:100CA000AA81B981CE0FD11D0FB6F894DEBF0FBE59
:0A0CB000CDBFED010895F894FFCFC9
:100CBA00706F743D002020007370643D0020202076
:0C0CCA0000018813FFFFFFFFFFFFFFFF8A
:00000001FF
