:1000000045C0000061C000005FC000005DC000008E
:10001000C4C50000C2C50000C0C50000BEC50000C8
:1000200053C0000051C000004FC00000B8C700001E
:100030004BC0000049C0000047C0000083C300005F
:1000400043C0000041C000003FC000003DC00000B0
:100050003BC0000039C0000037C0000035C00000C0
:1000600033C0000031C000002FC000002DC00000D0
:100070002BC0000029C0000027C0000025C00000E0
:1000800023C0000021C000001FC0000011241FBEBB
:10009000CFEFD0E4DEBFCDBF11E0A0E0B1E0E0EDF6
:1000A000F4E100E00BBF02C007900D92AE3BB10738
:1000B000D9F711E0AEEBB1E001C01D92A23EB1074D
:1000C000E1F709D00C94660A9BCF809193018F5F72
:1000D000809393010895A5E0B0E0E1E7F0E00C948F
:1000E000FC088BD482E991E061E0AED680E091E03B
:1000F00088D392E0292E312C2C0E3D1E2E0108941F
:10010000411C511C80E0B101A2013FD76A817B8173
:100110008C819D81D4D5603E23E9720724E082075B
:1001200020E09207D8F08981813061F480E060E0BE
:10013000D4D48EE591E076D480E061E0CED489E637
:1001400091E051C080E060E0C8D489E691E06AD4D3
:1001500080E061E0C2D484E791E045C080E09DD6B4
:10016000882381F280E095D6882361F280E0B1D6C1
:100170003B014C0180E0C9D67B018C01E60CF71CE9
:10018000081D191D80E060E0A8D460EA75E286E2EF
:1001900090E0A8019701F3D7CA01B9017FD48FE796
:1001A00091E040D480E061E098D489E891E03AD4CD
:1001B00057016801D694C794B794A794C401B301BA
:1001C00024E630E040E050E09BD7A60EB71EC81EE4
:1001D000D91EC601B501A8019701D1D7CA01B9013D
:1001E0005DD48EE891E01ED48DCF9091C301E09153
:1001F000BF01F091C001992311F0849101C0808169
:10020000282F21542A3110F4805E0895803271F431
:100210002091BF013091C001A9014F5F5F4F509302
:10022000C0014093BF012115310509F70895EF92F0
:10023000FF92CF93DF93D9DFC0E0D0E01AC09E01D8
:10024000220F331F93E0CC0FDD1F9A95E1F7C20F09
:10025000D31F992787FD9095C80FD91FE0978091EC
:10026000BF019091C00101969093C0018093BF019E
:10027000BCDF982F90539A3010F3CE01DF91CF91CD
:10028000FF90EF90089510926F0083E280938000BA
:1002900081E1809381001092820080E197E2909347
:1002A00089008093880010928B0010928A00549AE3
:1002B000789408958091BE01882321F481E0809391
:1002C000BE01E1CF0895A0E0B0E0E8E6F1E09AC712
:1002D0008C015B01E42EEEDF1092940117FF04C045
:1002E0001F77AAE0FA2E02C0FF24F394C090810089
:1002F000DD2428EFC222DD2488EC3F2D389FC00189
:10030000112480179107D0F4E80167E20131160744
:1003100010F0C0E1D7E2BE017695679580E090E0ED
:100320006058794687469F4F9E0140E050E027D7AE
:10033000890181E090E0C82AD92A2BC098E2F99E71
:10034000902D112480E0892EE4014E01982EE401C5
:100350008016910608F4E801BE01769567959E0126
:1003600040E050E08F2D8A3039F480E090E0605E0C
:10037000734481449F4F06C080E090E060537D4EFF
:100380008C4E9F4FFCD6890152E0852E912CC828B7
:10039000D9282F2D2A3031F4CE0105966AE070E07D
:1003A000DAD6EB0133E0C83ED30769F0BE0180E046
:1003B00090E0950140E050E0A3D628EE33E040E025
:1003C00050E0FFD601C0950110926F00C0928100ED
:1003D0001093890000938800409188005091890013
:1003E0006E2D603108F06FE080E190E0861B91098E
:1003F000BA0102C0769567958A95E2F770938B00F3
:1004000060938A003093C6012093C50186B38FEFB5
:1004100086BB81E080936F00CDB7DEB7ECE00EC7FE
:100420009B018F3F11F0442329F488EE93E0B9013A
:1004300040E047C0813130F0582F5051503618F00D
:100440005FE501C050E0852F6CE079D6A82FB0E0C1
:10045000E4EFFFEFAE9FB001AF9F700DBE9F700D38
:100460001124650F711D6C30710540F4FB01EE0F16
:10047000FF1FE256FE4F6081718102C060E070E0B4
:10048000873081F0082E02C0660F771F0A94E2F7CA
:10049000823028F0CB0105966AE070E00CC0605015
:1004A00070480AC0CB01B6E0880F991FBA95E1F7F2
:1004B000029665E070E04FD6403108F04FE0CB0186
:1004C000B90101CFA0E0B0E0E7E6F2E09AC6B09053
:1004D00095018091C101882359F06091C201662382
:1004E00039F08FEF70E040E09BDF1092C20126C12F
:1004F000C0ECDDE5AA24A39414E0712E00ED17E012
:10050000B4E0EB2EF12CA4EFCA2EA1E0DA2EFFE02E
:100510008F2E912C6ADE2091BF013091C0012F5F98
:100520003F4F3093C0012093BF018636F1F18736EB
:10053000CCF4823609F4A8C083367CF48E3349F1BA
:100540008F333CF4813209F480C08C3309F094C0BD
:1005500022C0813609F090C094C0843601F18536FE
:100560000CF51BC08F3609F445C0803744F48C3637
:1005700011F18D3659F1873609F07EC019C08437E4
:1005800009F441C0863709F45AC0823709F074C0B3
:1005900036C0B394BFCFBA94BDCFEE2432C0EE24A0
:1005A00082E074C0EE2484E071C0EE2485E06EC069
:1005B000EE2487E06BC03BDEBC01909397018093F3
:1005C0009601809198019091990133C00EDE8C368E
:1005D00019F41092C10104C0A092C1011092C2018D
:1005E0008091BF019091C00101969093C0018093CA
:1005F000BF0190CF1CDEB82E809395018BCFEE24E7
:10060000E39480E043C013DEBC01CE01A4D5CB014E
:10061000880F991F53E0660F771F5A95E1F7860FF1
:10062000971F909399018093980160919601709122
:10063000970191D570939B0160939A016BCFF7DD81
:1006400090939D0180939C0165CF709295011093CA
:10065000990100939801F0929701E0929601D0924F
:100660009B01C0929A0190929D0180929C011092F0
:10067000C10144E0B42E4ECF1092C0011092BF01D0
:100680005DC0EE2489E002C0EE248BE09CE0B99EC0
:10069000B02C1124B80EA9DD8B3211F08332B1F4E5
:1006A0008091BF019091C00101969093C001809309
:1006B000BF01B394F0CF8091BF019091C00101962A
:1006C0009093C0018093BF01BA948FDD8D3299F36E
:1006D000C0919A01D0919B018153883048F4C09118
:1006E0009801D0919901A3DDBC01CE0134D5EB0175
:1006F0008E010BC08091BF019091C0010196909333
:10070000C0018093BF01C00FD11F169507956DDD05
:100710008E3281F38091C101882339F0CE01969504
:1007200087958093C201C81BD109EE2011F0BB242C
:10073000BA948B2DBE0140919C0172DECDB7DEB71D
:10074000EDE07BC51F920F920FB60F920BB60F9282
:1007500011242F933F934F935F936F937F938F93C6
:100760009F93AF93BF93EF93FF938091C5019091B7
:10077000C6019C01215030403093C6012093C50131
:10078000009709F510926F00789480918100887F1E
:1007900081608093810080E197E29093890080934B
:1007A000880010928B0010928A0081E0809394015F
:1007B0008091BF019091C001009729F08091C40100
:1007C000882309F47FDEFF91EF91BF91AF919F9154
:1007D0008F917F916F915F914F913F912F910F90EA
:1007E0000BBE0F900FBE0F901F90189510926F00C8
:1007F0009093C0018093BF011092C3011092C20177
:1008000061CEF4CF089581E090E06F9364E06A9543
:10081000F1F76F910197C9F708950F931F93CF9345
:10082000DF9317B13D982898299AC0E0D0E0EBDF1C
:100830002A9AE9DF06B12A98E6DF2A9AE4DF2A98A5
:10084000249605FF10C09E0140E050E08091CB014E
:100850009091CC01A091CD01B091CE01281739071C
:100860004A075B0720F39E0140E050E08091CB01F6
:100870009091CC01A091CD01B091CE0128173907FC
:100880004A075B0728F082E390E0A0E0B0E004C0F4
:1008900080E395E7A0E0B0E08093CB019093CC019A
:1008A000A093CD01B093CE0117B9DF91CF911F91E5
:1008B0000F91089528B190E08F709070880F991F64
:1008C000880F991F237C282B28B92A9A9CDF2A9805
:1008D0009ACFA2E0B0E0EEE6F4E09BC4182F4A8382
:1008E000698357D09ADFF7B008B1299869814A81A6
:1008F000662311F0289A01C0289887B18C6387B9C4
:10090000413021F0812F82958F70D4DF812F8F703D
:10091000D1DFF7B808B92296E5E097C460E042E07D
:10092000D8CF61E042E0D5CF60E041E0D2CF3D9842
:10093000459A80E395E7A0E0B0E08093CB019093E7
:10094000CC01A093CD01B093CE01209A219A229A96
:100950008EE190E07FD383E0E7DF86E090E07AD31A
:1009600083E0E2DF82E090E075D383E0DDDF82E0C8
:1009700090E070D382E0D8DF82E090E06BD388E231
:10098000CDDF88E0CBDF81E0C9DF86E0C7DF8CE028
:10099000C5CF8091CF01882321F481E08093CF01DE
:1009A000C6CF089581E0BADF8091C7019091C80158
:1009B000009711F1A0E0B0E208C0E091C701F0910A
:1009C000C801E20FF31FB083AF5F2A2F30E08091A0
:1009D000B60190E001976091B70170E0869FA00199
:1009E000879F500D969F500D1124241735072CF327
:1009F0001092CA011092C9010895D4CF0895EF92C0
:100A0000FF92CF93DF93E82EE7017E01F92EE701F5
:100A100001C087DF89918823E1F7DF91CF91FF90B3
:100A2000EF900895ECCF0895AAE0B0E0E9E1F5E099
:100A3000EBC39B01AC011AE06AE0C62ED12CE12C7D
:100A4000F12C5E010894A11CB11C022FCA01B9014E
:100A5000A701960194D31150F501E10FF11D005D3E
:100A6000922F990F892F880F880F890F081B0083F9
:100A7000211531054105510541F707C0F601E10F88
:100A8000F11D80814EDF1F5F04C06E010894C11C00
:100A9000D11C1A3098F32A96EAE0D2C3C5CF089544
:100AA000A5E0B0E0E5E5F5E0B6C3182F80E889835E
:100AB00080EC8A8384E98B8384ED8C83FE01E60FCE
:100AC000F11D8181810F6D8329DF1093CA016D8132
:100AD0006093C9012596E3E0BAC3E2CF0895FC0113
:100AE000118210821382128215821482168268305B
:100AF00068F489E290E0918380838BE290E09383B5
:100B000082838AE290E09583848323C0603180F4FD
:100B100083E290E09183808385E290E093838283F7
:100B200084E290E09583848370E06850704011C047
:100B30006831C0F486E290E09183808388E290E09F
:100B40009383828387E290E09583848370E0605191
:100B5000704081E090E002C0880F991F6A95E2F72B
:100B6000868308956032C0F480E290E091838083B0
:100B700082E290E09383828381E290E09583848394
:100B80002FE130E0261B310981E090E002C0880FA0
:100B9000991F2A95E2F7868308951F920F920FB648
:100BA0000F920BB60F921124CF92DF92EF92FF9229
:100BB0000F931F932F933F934F935F936F937F9365
:100BC0008F939F93AF93BF93CF93DF93EF93FF9355
:100BD0008091B2002091D3013091D4014091D50190
:100BE0005091D601B89904C090E0A0E0B0E011C0E7
:100BF0002091B2008091D3019091D401A091D501B0
:100C0000B091D60180509F4FAF4FBF4F30E040E0D2
:100C100050E0822B932BA42BB52B1091D201E091A5
:100C2000D001F091D10160E02DC0C081D181288137
:100C30003281232371E009F470E02781721701F1FA
:100C400023813481458156816C017D01C21AD30A0A
:100C5000E40AF50A0781002339F0C086D186E286CE
:100C6000F3862089226006C0C486D586E686F7868C
:100C700020892160208B778383839483A583B68327
:100C80006F5F7196611788F2FF91EF91DF91CF91BD
:100C9000BF91AF919F918F917F916F915F914F9194
:100CA0003F912F911F910F91FF90EF90DF90CF9088
:100CB0000F900BBE0F900FBE0F901F901895A9C1FB
:100CC00008958091D0019091D101009729F065D3CA
:100CD0001092D1011092D0010895A7E0B0E0E2E7B0
:100CE000F6E090C2A82E092FB62E1092680010923E
:100CF0006B0010926C0010926D0010927300609364
:100D0000D201DFDF81E12B2D289FC0011124ABD25E
:100D10009093D1018093D001009709F491C0CA2C1F
:100D2000D02EEE24FF244E010894811C911C5AC041
:100D3000F60161916F01C401D2DE0091D0011091E2
:100D4000D1010E0D1F1D89819A81F8019183808345
:100D50008F818283108611861286138614861586EB
:100D6000168617869AD1F8016383748385839683E8
:100D7000E091D001F091D101EE0DFF1DA981BA8162
:100D80008C919F8189238783108AA032B10529F431
:100D900080916B00892B80936B0089819A818332CB
:100DA000910531F480916C009F81892B80936C00B8
:100DB00089819A818632910531F480916D009F81FD
:100DC000892B80936D0089819A818932910531F454
:100DD000809173009F81892B8093730081E190E063
:100DE000E80EF91E8C2D8A198B1508F4A1CF8FEF10
:100DF0008BBB80916B00882329F080916800816013
:100E00008093680080916C00882329F080916800AD
:100E100082608093680080916D00882329F0809122
:100E2000680084608093680080917300882329F0B3
:100E300080916800886080936800789480E001C0A9
:100E400081E02796ECE0FAC148CF08959091D20155
:100E50008917C8F491E1899FC0011124E091D00164
:100E6000F091D101E80FF91F8089862371F0808904
:100E70009091680010926800208960956223608BD1
:100E800090936800089580E0089580E0089561E0FF
:100E9000DDCFFDCF089562E0D9CFFDCF089591E178
:100EA000899FC0011124E091D001F091D101E80F98
:100EB000F91F208531854285538580859185A285DE
:100EC000B385281739074A075B0799F7B901CA01A3
:100ED0000895E5CF089591E1899FC0011124E09123
:100EE000D001F091D101E80FF91F248535854685A1
:100EF000578584859585A685B785281739074A07BC
:100F00005B0799F7B901CA010895E5CF08950F93DA
:100F10001F93CF93DF93EB018A01A1E18A9FD00158
:100F200011248091D0019091D1018A0F9B1FFC0167
:100F30008781F80180838091D0019091D1018A0F3F
:100F40009B1FFC012381348145815681288339838D
:100F50004A835B8363817481858196812617370775
:100F600048075907F1F699D0288139814A815B8178
:100F7000621B730B840B950B688379838A839B8335
:100F8000DF91CF911F910F910895C1CF08956F9375
:100F900064E06A95F1F76F910197C9F708952F9270
:100FA0008F939F932FB68091D4019091D501019694
:100FB0008093D4019093D50190E08091D601891F50
:100FC0008093D6019091DC019C5F9093DC0180912D
:100FD000DB0180519742C0F09093DC018093DB01EC
:100FE0008091D7019091D80101968093D701909379
:100FF000D80190E08091D901891F8093D901809117
:10100000DA01891F8093DA012FBE9F918F912F9073
:1010100018950F931F936F5F7F4F8F4F9F4F660FF2
:10102000771F881F991F25E030E040E050E0A7D0EF
:10103000B901CA011F910F910895CF93DF93EC017D
:1010400004C088EE93E0A3DF21972097D1F7DF91CA
:10105000CF910895F2CF0895E0E7F0E080818E7F90
:101060008083A0EBB0E08C9183608C93A1EBB0E027
:101070008C91807F8C938C9182608C93B89A8081C4
:1010800081608083789408958091DD01882321F424
:1010900081E08093DD01E0CF0895F6DF809170005C
:1010A0008E7F809370002091B2008091D301909147
:1010B000D401A091D501B091D601B89904C030E017
:1010C00040E050E011C08091B2002091D3013091F6
:1010D000D4014091D5015091D60120503F4F4F4F40
:1010E0005F4F90E0A0E0B0E0282B392B4A2B5B2B20
:1010F00080917000816080937000B901CA010895E9
:10110000629FD001739FF001829FE00DF11D649FEB
:10111000E00DF11D929FF00D839FF00D749FF00D77
:10112000659FF00D9927729FB00DE11DF91F639F18
:10113000B00DE11DF91FBD01CF0111240895991BC8
:1011400079E004C0991F961708F0961B881F7A95BE
:10115000C9F780950895AA1BBB1B51E107C0AA1FC0
:10116000BB1FA617B70710F0A61BB70B881F991F48
:101170005A95A9F780959095BC01CD010895A1E2FB
:101180001A2EAA1BBB1BFD010DC0AA1FBB1FEE1F01
:10119000FF1FA217B307E407F50720F0A21BB30B4C
:1011A000E40BF50B661F771F881F991F1A9469F7C8
:1011B00060957095809590959B01AC01BD01CF0124
:1011C000089597FB092E05260ED057FD04D0D7DFD2
:1011D0000AD0001C38F450954095309521953F4F2A
:1011E0004F4F5F4F0895F6F79095809570956195F4
:1011F0007F4F8F4F9F4F08952F923F924F925F9254
:101200006F927F928F929F92AF92BF92CF92DF9216
:10121000EF92FF920F931F93CF93DF93CDB7DEB77B
:10122000CA1BDB0B0FB6F894DEBF0FBECDBF09940F
:101230002A88398848885F846E847D848C849B8466
:10124000AA84B984C884DF80EE80FD800C811B8174
:10125000AA81B981CE0FD11D0FB6F894DEBF0FBEA3
:10126000CDBFED010895CF93DF938230910510F447
:1012700082E090E0E091E001F091E10140E050E097
:1012800020E030E026C06081718168177907E0F0C6
:101290006817790781F4828193812115310531F036
:1012A000D90113969C938E9312972BC09093E101D2
:1012B0008093E00126C04115510519F064177507A8
:1012C00018F4AB01E901DF019F0172816381E72F0F
:1012D000F62F3097C1F64115510501F1481B590B06
:1012E0004430510580F412968D919C91139720976C
:1012F00019F09B838A8304C09093E1018093E001FD
:10130000FD01329646C0FD01E40FF51F81939193D4
:101310004250504011965C934E933BC02091DE01A9
:101320003091DF012115310541F42091BA0130914E
:10133000BB013093DF012093DE012091BC0130918D
:10134000BD012115310541F42DB73EB74091B801DB
:101350005091B901241B350BE091DE01F091DF01C2
:10136000E217F307A0F42E1B3F0B2817390778F07C
:10137000AC014E5F5F4F2417350748F04E0F5F1FDB
:101380005093DF014093DE018193919302C0E0E02E
:10139000F0E0CF01DF91CF910895CF93DF930097D5
:1013A00009F491C0FC013297138212826091E0012E
:1013B0007091E1016115710581F420813181280F5F
:1013C000391F8091DE019091DF018217930799F513
:1013D000F093DF01E093DE0176C0DB0180E090E076
:1013E00002C0CD01D901AE17BF0748F412962D9166
:1013F0003C91139721153105A1F7CD0121C0B3838D
:10140000A283EF01499159919E01240F351FA21724
:10141000B30779F42D913C911197240F351F2E5F5E
:101420003F4F3183208312962D913C911397338344
:101430002283009729F4F093E101E093E00143C097
:10144000DC011396FC93EE9312974D915D91A40FDE
:10145000B51FEA17FB0769F420813181240F351F7E
:101460002E5F3F4FEC0139832883228133813B83F8
:101470002A83E0E0F0E002C0FB01BC01DB01129630
:101480008D919C9113970097B9F79B012E5F3F4F69
:101490008D919C911197820F931F4091DE01509185
:1014A000DF014817590779F4309729F41092E101C8
:1014B0001092E00102C01382128222503040309319
:1014C000DF012093DE01DF91CF910895F894FFCFE3
:1014D000214C34204D53204544434445454532205A
:1014E000444444322045474732205639204544433E
:1014F0004445454545204444454443312052205409
:10150000323430204F362056313420454443444550
:101510004545322044444432204547473220454423
:1015200043444545454520444445444331005069C2
:101530006E204849474820200020202020202020DD
:101540002020200050696E20204C4F572020002082
:10155000487A2020202020200044433A20002520E3
:101560002000040101040400D007F4010F009C01D5
:10157000B501CF01EA0107022602470269028E0285
:0E158000B502DE020A0302102000E2010000A4
:00000001FF
