:1000000045C0000060C000005EC000005CC0000091
:100010005AC0000058C0000056C0000054C0000084
:1000200052C0000050C000004EC00000D7C1000008
:100030004AC0000048C0000046C0000044C00000A4
:1000400042C0000040C000003EC000003CC00000B4
:100050003AC0000038C0000036C0000034C00000C4
:1000600032C0000030C000002EC000002CC00000D4
:100070002AC0000028C0000026C0000024C00000E4
:1000800022C0000020C000001EC0000011241FBEBE
:10009000CFEFD0E4DEBFCDBF11E0A0E0B1E0E0EEF5
:1000A000F4E000E00BBF02C007900D92A632B1074A
:1000B000D9F711E0A6E2B1E001C01D92A734B10763
:1000C000E1F708D00BC29CCF809123018F5F809312
:1000D000230108951F9313D180E091E025D184E29C
:1000E00061D1182F0CD1103219F488E091E002C0D0
:1000F00081E191E019D1812F67D101D18AE191E0AD
:1001000013D188EE93E0B1D1E6CF81E090E06F9318
:1001100064E06A95F1F76F910197C9F708950F931D
:100120001F93CF93DF9317B13D982898299AC0E089
:10013000D0E0EBDF2A9AE9DF06B12A98E6DF2A9AB7
:10014000E4DF2A98249605FF10C09E0140E050E0AD
:1001500080912A0190912B01A0912C01B0912D0149
:10016000281739074A075B0720F39E0140E050E05B
:1001700080912A0190912B01A0912C01B0912D0129
:10018000281739074A075B0728F082E390E0A0E0D0
:10019000B0E004C080E395E7A0E0B0E080932A01DE
:1001A00090932B01A0932C01B0932D0117B9DF91EF
:1001B000CF911F910F91089528B190E08F709070AA
:1001C000880F991F880F991F237C282B28B92A9AFA
:1001D0009CDF2A989ACFA2E0B0E0E0EFF0E054C1B3
:1001E000182F4A83698357D09ADFF7B008B129984E
:1001F00069814A81662311F0289A01C0289887B145
:100200008C6387B9413021F0812F82958F70D4DFC4
:10021000812F8F70D1DFF7B808B92296E5E050C181
:1002200060E042E0D8CF61E042E0D5CF60E041E05D
:10023000D2CF3D98459A80E395E7A0E0B0E0809367
:100240002A0190932B01A0932C01B0932D01209AA9
:10025000219A229A8EE190E008D183E0E7DF86E0E0
:1002600090E003D183E0E2DF82E090E0FED083E023
:10027000DDDF82E090E0F9D082E0D8DF82E090E03C
:10028000F4D088E2CDDF88E0CBDF81E0C9DF86E013
:10029000C7DF8CE0C5CF80912E01882321F481E057
:1002A00080932E01C6CF089581E0BADF80912601A8
:1002B00090912701009711F1A0E0B0E208C0E09111
:1002C0002601F0912701E20FF31FB083AF5F2A2FC1
:1002D00030E08091240190E001976091250170E069
:1002E000869FA001879F500D969F500D11242417C3
:1002F00035072CF310922901109228010895D4CFCC
:100300000895EF92FF92CF93DF93E82EE7017E01ED
:10031000F92EE70101C087DF89918823E1F7DF919A
:10032000CF91FF90EF900895ECCF089587B1837D32
:1003300087B988B18C6288B985E090E06F9364E0FA
:100340006A95F1F76F910197C9F7089580912F0190
:10035000882321F481E080932F01E8CF08951F9333
:10036000CF93DF93182FF2DFC12FD0E026B130E01A
:10037000209530952C233D2321153105B9F38AE0D2
:1003800090E073D026B130E0209530952C233D23AA
:100390002115310559F386B180958123DF91CF91E5
:1003A0001F910895DCCF08951F93182FCFDF86B1DA
:1003B0008123E9F38AE090E058D086B18123B9F334
:1003C00086B181231F910895EFCF08956F9364E064
:1003D0006A95F1F76F910197C9F708952F928F935E
:1003E0009F932FB680913D0190913E01019680939D
:1003F0003D0190933E0190E080913F01891F8093E1
:100400003F01909145019C5F90934501809144018B
:1004100080519742C0F090934501809344018091B0
:1004200040019091410101968093400190934101D8
:1004300090E080914201891F8093420180914301A5
:10044000891F809343012FBE9F918F912F90189504
:10045000CF93DF93EC0104C088EE93E0B7DF2197E0
:100460002097D1F7DF91CF910895F2CF08952F9281
:100470003F924F925F926F927F928F929F92AF9234
:10048000BF92CF92DF92EF92FF920F931F93CF9381
:10049000DF93CDB7DEB7CA1BDB0B0FB6F894DEBF18
:1004A0000FBECDBF09942A88398848885F846E843E
:1004B0007D848C849B84AA84B984C884DF80EE8088
:1004C000FD800C811B81AA81B981CE0FD11D0FB691
:1004D000F894DEBF0FBECDBFED010895F894FFCFB5
:1004E00057616974696E6700746F7020646F776E0E
:1004F00000626F7420646F776E0072656C65617363
:0605000065640001021019
:00000001FF
