:100000004FC000006BC0000069C0000067C0000066
:1000100065C0000063C0000061C000005FC0000058
:100020005DC000005BC0000059C000000C94430A92
:1000300055C0000053C0000051C0000003C40000C0
:100040004DC000004BC0000049C0000047C0000088
:10005000CEC700000C94EB0941C000003FC0000077
:100060003DC000003BC0000039C0000037C00000A8
:10007000E8C700000C94130A31C000002FC0000034
:100080002DC000002BC0000029C00000486920746A
:1000900068657265210D0A006431360063313600EF
:1000A00011241FBECFEFD0E4DEBFCDBF11E0A0E032
:1000B000B1E0E2E6F7E100E00BBF02C007900D926D
:1000C000AE38B107D9F712E0AEE8B1E001C01D9239
:1000D000A230B107E1F7C5D00C94AF0B91CF8830B7
:1000E00068F441E050E002C0440F551F8A95E2F7E2
:1000F000842FEAE2F0E0ABE2B0E03BC0803180F474
:10010000282F30E02850304081E090E002C0880F76
:10011000991F2A95E2F7E4E2F0E0A5E2B0E029C0F9
:10012000883180F4282F30E02051304081E090E089
:1001300002C0880F991F2A95E2F7E7E2F0E0A8E2F3
:10014000B0E017C0803280F42FE130E0281B310985
:1001500081E090E002C0880F991F2A95E2F7E1E262
:10016000F0E0A2E2B0E005C080E0E0E0F0E0A0E076
:10017000B0E09C9198279C939081982B9083089550
:1001800080914B018F5F80934B01089502C00E94C4
:10019000B50982E036D58823D1F308951F93182F2F
:1001A000AFD480E091E0C1D4812F3FD480E061E002
:1001B000DBD41235D1F013353CF4143409F1173483
:1001C00079F0133421F516C01436D1F015361CF42D
:1001D0001336E9F40FC0173619F01237C1F405C011
:1001E00084E17DDF85E091E010C081E078DF8FE081
:1001F00091E00BC08CE990E085D387E191E005C0E8
:1002000088E990E07FD383E291E08FD411C0BEDF14
:1002100080E281278093E20182E062EE71E041E0BA
:100220000E94E9098FE291E080D48091E201FDD340
:100230001F9108950FC0F0E0EE53FE4F8081AEDFB6
:1002400080918E018F3119F410928E0103C08F5F5F
:1002500080938E0182E0C5D4E0918E018E1759F70C
:1002600008954ED484E391E060D480E061E07CD4D2
:1002700080E491E05AD482E040E855E260E070E02A
:10028000C6D782E062EC71E040E2AFD60E94B509C9
:10029000D1DF88E0A4D48823C9F378DF82EE91E02F
:1002A0006CE870E04BE050E00E94A60B82E062EE4A
:1002B00071E04BE00E94E9091092ED0121D480E049
:1002C00061E052D48FE291E030D482EE91E02DD4FF
:1002D00088E075D4DBCF90919401E0919001F0918A
:1002E0009101992311F0849101C08081282F21541C
:1002F0002A3110F4805E0895803271F420919001CB
:1003000030919101A9014F5F5F4F5093910140934C
:1003100090012115310509F70895EF92FF92CF93CF
:10032000DF93D9DFC0E0D0E01AC09E01220F331F57
:1003300093E0CC0FDD1F9A95E1F7C20FD31F9927E9
:1003400087FD9095C80FD91FE097809190019091FB
:10035000910101969093910180939001BCDF982FB9
:1003600090539A3010F3CE01DF91CF91FF90EF9030
:10037000089510926F0083E28093800081E1809362
:1003800081001092820080E197E29093890080932F
:10039000880010928B0010928A00549A78940895E5
:1003A00080918F01882321F481E080938F01E1CF38
:1003B0000895A0E0B0E0EFEDF1E00C94750B8C0136
:1003C0005B01E42EEDDF10924C0117FF04C01F7794
:1003D000AAE0FA2E02C0FF24F394C0908100DD242D
:1003E00028EFC222DD2488EC3F2D389FC001112464
:1003F00080179107D8F4E80167E20131160710F081
:10040000C0E1D7E2BE017695679580E090E0605844
:10041000794687469F4F9E0140E050E00E94320B94
:10042000890181E090E0C82AD92A2CC098E2F99E7F
:10043000902D112480E0892EE4014E01982EE401D4
:100440008016910608F4E801BE01769567959E0135
:1004500040E050E08F2D8A3039F480E090E0605E1B
:10046000734481449F4F06C080E090E060537D4E0E
:100470008C4E9F4F0E94320B890152E0852E912CA9
:10048000C828D9282F2D2A3039F4CE0105966AE0E4
:1004900070E00E941E0BEB0133E0C83ED30779F0F9
:1004A000BE0180E090E0950140E050E00E94F30A38
:1004B00028EE33E040E050E00E94540B01C095016B
:1004C00010926F00C0928100109389000093880001
:1004D00040918800509189006E2D603108F06FE0E6
:1004E00080E190E0861B9109BA0102C0769567957C
:1004F0008A95E2F770938B0060938A00309397019E
:100500002093960186B38FEF86BB81E080936F00C6
:10051000CDB7DEB7ECE00C94910B9B018F3F11F04F
:10052000442329F488EE93E0B90140E049C08131C9
:1005300030F0582F5051503618F05FE501C050E0B0
:10054000852F6CE00E94120BA82FB0E0E4EFFFEFC4
:10055000AE9FB001AF9F700DBE9F700D1124650F4F
:10056000711D6C30710540F4FB01EE0FFF1FEA5A5C
:10057000FE4F6081718102C060E070E0873081F0E1
:10058000082E02C0660F771F0A94E2F7823028F027
:10059000CB0105966AE070E00CC0605070480BC05B
:1005A000CB01B6E0880F991FBA95E1F7029665E096
:1005B00070E00E941E0B403108F04FE0CB01B90102
:1005C000F8CEA0E0B0E0E7EEF2E00C94740BB0904F
:1005D0004D0180919201882359F060919301662327
:1005E00039F08FEF70E040E098DF1092930126C160
:1005F000C0ECDDE5AA24A39414E0712E00ED17E011
:10060000B4E0EB2EF12CA4EFCA2EA1E0DA2EFFE02D
:100610008F2E912C60DE20919001309191012F5FFF
:100620003F4F30939101209390018636F1F1873648
:10063000CCF4823609F4A8C083367CF48E3349F1B9
:100640008F333CF4813209F480C08C3309F094C0BC
:1006500022C0813609F090C094C0843601F18536FD
:100660000CF51BC08F3609F445C0803744F48C3636
:1006700011F18D3659F1873609F07EC019C08437E3
:1006800009F441C0863709F45AC0823709F074C0B2
:1006900036C0B394BFCFBA94BDCFEE2432C0EE249F
:1006A00082E074C0EE2484E071C0EE2485E06EC068
:1006B000EE2487E06BC031DEBC0190934F01809344
:1006C0004E01809150019091510133C004DE8C366F
:1006D00019F41092920104C0A09292011092930119
:1006E0008091900190919101019690939101809356
:1006F000900190CF12DEB82E80934D018BCFEE2467
:10070000E39480E043C009DEBC01CE0197D7CB0162
:10071000880F991F53E0660F771F5A95E1F7860FF0
:10072000971F909351018093500160914E017091F9
:100730004F0184D770935301609352016BCFEDDD6D
:10074000909355018093540165CF70924D011093A1
:10075000510100935001F0924F01E0924E01D0926E
:100760005301C0925201909255018092540110920F
:10077000920144E0B42E4ECF10929101109290015C
:100780005DC0EE2489E002C0EE248BE09CE0B99EBF
:10079000B02C1124B80E9FDD8B3211F08332B1F4EE
:1007A0008091900190919101019690939101809395
:1007B0009001B394F0CF80919001909191010196B6
:1007C0009093910180939001BA9485DD8D3299F3D5
:1007D000C0915201D09153018153883048F4C091A7
:1007E0005001D091510199DDBC01CE0127D7EB0119
:1007F0008E010BC080919001909191010196909390
:10080000910180939001C00FD11F1695079563DD6C
:100810008E3281F380919201882339F0CE01969532
:10082000879580939301C81BD109EE2011F0BB245A
:10083000BA948B2DBE01409154016FDECDB7DEB767
:10084000EDE06EC71F920F920FB60F920BB60F928C
:1008500011242F933F934F935F936F937F938F93C5
:100860009F93AF93BF93EF93FF93809196019091E5
:1008700097019C01215030403093970120939601BD
:10088000009709F510926F00789480918100887F1D
:1008900081608093810080E197E29093890080934A
:1008A000880010928B0010928A0081E080934C01A6
:1008B0008091900190919101009729F0809195018C
:1008C000882309F47EDEFF91EF91BF91AF919F9154
:1008D0008F917F916F915F914F913F912F910F90E9
:1008E0000BBE0F900FBE0F901F90189510926F00C7
:1008F000909391018093900181E0809394011092F4
:1009000093015FCEF3CF089581E090E06F9364E0B0
:100910006A95F1F76F910197C9F708950F931F93A7
:10092000CF93DF9317B13D982898299AC0E0D0E083
:10093000EBDF2A9AE9DF06B12A98E6DF2A9AE4DF9C
:100940002A98249605FF10C09E0140E050E0809157
:100950009C0190919D01A0919E01B0919F0128174B
:1009600039074A075B0720F39E0140E050E0809181
:100970009C0190919D01A0919E01B0919F0128172B
:1009800039074A075B0728F082E390E0A0E0B0E077
:1009900004C080E395E7A0E0B0E080939C019093D1
:1009A0009D01A0939E01B0939F0117B9DF91CF9154
:1009B0001F910F91089528B190E08F709070880F6B
:1009C000991F880F991F237C282B28B92A9A9CDF0E
:1009D0002A989ACFA2E0B0E0EFEEF4E08DC6182F8F
:1009E0004A83698359D09ADFF7B008B129986981A1
:1009F0004A81662311F0289A01C0289887B18C6338
:100A000087B9413021F0812F82958F70D4DF812FFB
:100A10008F70D1DFF7B808B92296E5E089C660E0AB
:100A200042E0D8CF61E042E0D5CFFCCF089560E04E
:100A300041E0D0CF3D98459A80E395E7A0E0B0E053
:100A400080939C0190939D01A0939E01B0939F0180
:100A5000209A219A229A8EE190E05CD583E0E7DF2C
:100A600086E090E057D583E0E2DF82E090E052D567
:100A700083E0DDDF82E090E04DD582E0D8DF82E0E8
:100A800090E048D588E2CBDF88E0C9DF81E0C7DFAE
:100A900086E0C5DF8CE0C3CF8091A001882321F4DC
:100AA00081E08093A001C6CF089581E0B8DF8091F6
:100AB000980190919901009711F1A0E0B0E208C06F
:100AC000E0919801F0919901E20FF31FB083AF5FBD
:100AD0002A2F30E080916E0190E0019760916F01C4
:100AE00070E0869FA001879F500D969F500D1124A6
:100AF000241735072CF310929B0110929A01089548
:100B0000D4CF0895EF92FF92CF93DF93E82EE701C1
:100B10007E01F92EE70101C085DF89918823E1F785
:100B2000DF91CF91FF90EF900895ECCF0895A5E06D
:100B3000B0E0ECE9F5E0E2C5182F80E8898380ECAD
:100B40008A8384E98B8384ED8C83FE01E60FF11D9B
:100B50008181810F6D8363DF10939B016D816093B1
:100B60009A012596E3E0E6C5E2CF089587B1837D3B
:100B700087B988B18C6288B985E090E06F9364E0B2
:100B80006A95F1F76F910197C9F708958091A101D6
:100B9000882321F481E08093A101E8CF08951F9379
:100BA000182FF4DF86B18123E9F38AE090E0B2D414
:100BB00086B18123B9F386B181231F910895EFCFC8
:100BC0000895A1E0B0E0E6EEF5E099C58983DEDFA7
:100BD00096B19095898189232196E2E0ACC5F1CF49
:100BE0000895282F30E0F901EE0FFF1F43E0220F98
:100BF000331F4A95E1F7E20FF31FE059FE4F828160
:100C00000895282F30E0F901EE0FFF1F73E0220F47
:100C1000331F7A95E1F7E20FF31FE059FE4F418150
:100C2000282F30E0F901EE0FFF1F53E0220F331F92
:100C30005A95E1F7E20FF31FE059FE4F81E09381EF
:100C4000491380E00895282F30E0F901EE0FFF1FCF
:100C5000B3E0220F331FBA95E1F7E20FF31FE0591B
:100C6000FE4F408551854115510509F452C0282F8A
:100C700030E0F901EE0FFF1F73E0220F331F7A956A
:100C8000E1F7E20FF31FE059FE4F7281282F30E0A9
:100C9000F901EE0FFF1FB3E0220F331FBA95E1F702
:100CA000E20FF31FE059FE4F9481791790F5282F3A
:100CB00030E0F901EE0FFF1F73E0220F331F7A952A
:100CC000E1F7E20FF31FE059FE4F9281490F511DEA
:100CD000FA016083282F30E0F901EE0FFF1F53E087
:100CE000220F331F5A95E1F7E20FF31FE059FE4F31
:100CF00092819F5F282F30E0F901EE0FFF1FB3E0D4
:100D0000220F331FBA95E1F7E20FF31FE059FE4FB0
:100D10009283282F30E0F901EE0FFF1F73E0220FBE
:100D2000331F7A95E1F7E20FF31FE059FE4F42813E
:100D3000282F30E0F901EE0FFF1F53E0220F331F81
:100D40005A95E1F7E20FF31FE059FE4F94814917DE
:100D500001F5282F30E0F901EE0FFF1F93E0220F7D
:100D6000331F9A95E1F7E20FF31FE059FE4F95818B
:100D7000992379F0282F30E0F901EE0FFF1FB3E03F
:100D8000220F331FBA95E1F7E20FF31FE059FE4F30
:100D9000128208950F931F93182F823009F474C0A4
:100DA000882319F4E1ECF0E002C0E9ECF0E0808186
:100DB0008F778083812F90E0FC01EE0FFF1F03E00F
:100DC000880F991F0A95E1F7E80FF91FE059FE4FC8
:100DD000808591850097A1F1212F30E0F901EE0F78
:100DE000FF1FA3E0220F331FAA95E1F7E20FF31FC5
:100DF000E059FE4F9281212F30E0F901EE0FFF1FE5
:100E000063E0220F331F6A95E1F7E20FF31FE05909
:100E1000FE4F84819817A0F4112319F4E0ECF0E060
:100E200002C0E8ECF0E0808187FF0AC0112319F4CA
:100E3000E6ECF0E002C0EEECF0E06081812F03DF31
:100E4000212F30E0F901EE0FFF1F43E0220F331F87
:100E50004A95E1F7E20FF31FE059FE4F80818823A6
:100E600009F057C0112319F4E1ECF0E002C0E9ECFD
:100E7000F0E08081806880834CC080918901882364
:100E800019F01092860145C080918C0190918D01DE
:100E9000009709F43EC090918601809188019817CF
:100EA000C0F58091AE01882399F439D38093AE01C7
:100EB00010E00AC031D3E02FF0E03197E11BF109D7
:100EC000E155FE4F80831F5F0091AE01101790F334
:100ED000A091AE01AA23E9F080918601E0918C01F6
:100EE000F0918D01E80FF11DA150A093AE01B0E08B
:100EF000A155BE4F8C918083809186018F5F809336
:100F000086019091860180918801981709F0BCCFE5
:100F1000B4CF1F910F910895823051F0882319F4B6
:100F2000E1ECF0E002C0E9ECF0E090819F77908383
:100F3000A82FB0E0FD01EE0FFF1F53E0AA0FBB1F6B
:100F40005A95E1F7EA0FFB1FE059FE4F7187608762
:100F5000682F70E0FB01EE0FFF1F93E0660F771F15
:100F60009A95E1F7E60FF71FE059FE4F1282682FBE
:100F700070E0FB01EE0FFF1FA3E0660F771FAA953D
:100F8000E1F7E60FF71FE059FE4F4483482F50E08A
:100F9000FA01EE0FFF1F63E0440F551F6A95E1F75A
:100FA000E40FF51FE059FE4F25838230D9F0282F3A
:100FB00030E0F901EE0FFF1F43E0220F331F4A9587
:100FC000E1F7E20FF31FE059FE4F9081992351F4AE
:100FD000882319F4E1ECF0E002C0E9ECF0E0808154
:100FE00080688083089521E097CFFDCF08951F92F8
:100FF0000F920FB60F920BB60F9211242F933F93BF
:101000004F935F936F937F938F939F93AF93BF9310
:10101000EF93FF936091C60080E015DEFF91EF91A2
:10102000BF91AF919F918F917F916F915F914F9100
:101030003F912F910F900BBE0F900FBE0F901F90FE
:1010400018951F920F920FB60F920BB60F921124A4
:101050002F933F934F935F936F937F938F939F93C0
:10106000AF93BF93EF93FF936091CE0081E0EBDDF0
:10107000FF91EF91BF91AF919F918F917F916F9170
:101080005F914F913F912F910F900BBE0F900FBE2C
:101090000F901F901895882319F4E1ECF0E002C03E
:1010A000E9ECF0E08081806280830895882319F460
:1010B000E1ECF0E002C0E9ECF0E080818F7D80831C
:1010C0000895282F30E0F901EE0FFF1F93E0220F63
:1010D000331F9A95E1F7E20FF31FE059FE4F268187
:1010E00037812115310591F1282F30E0F901EE0FFC
:1010F000FF1FA3E0220F331FAA95E1F7E20FF31FB2
:10110000E059FE4F4181282F30E0F901EE0FFF1F1B
:1011100063E0220F331F6A95E1F7E20FF31FE059F6
:10112000FE4F9381491790F4282F30E0F901EE0F1C
:10113000FF1F43E0220F331F4A95E1F7E20FF31F31
:10114000E059FE4F9081992309F4A5CFAFCF8230AB
:1011500029F1282F30E0F901EE0FFF1F53E0220F95
:10116000331F5A95E1F7E20FF31FE059FE4F9081CC
:10117000992349F4882319F4E1ECF0E002C0E9EC8A
:10118000F0E098E908C0882319F4E1ECF0E002C02F
:10119000E9ECF0E098E1908394DF78940895882357
:1011A00019F0813029F402C080E0D1CF81E0CFCFA7
:1011B0000895A0E0B0E0EEEDF8E09CC2D82E7A01F0
:1011C0008B01EDDF8D2D8230F1F0DD2019F4C4ECC0
:1011D000D0E002C0CCECD0E0C801B70128EF3FEF6F
:1011E0004FEF5FEF00D26050734D8E4C9E4FA801C1
:1011F0009701E4E0220F331F441F551FEA95D1F7F2
:1012000031D239832883CDB7DEB7E7E08FC2D1CFA3
:101210000895282F30E0F901EE0FFF1F73E0220F31
:10122000331F7A95E1F7E20FF31FE059FE4F468135
:1012300057814115510509F465C0282F30E0F901A7
:10124000EE0FFF1F93E0220F331F9A95E1F7E20F95
:10125000F31FE059FE4F6181282F30E0F901EE0FB6
:10126000FF1FA3E0220F331FAA95E1F7E20FF31F40
:10127000E059FE4F9381691708F044C0882319F4A0
:10128000E0ECF0E002C0E8ECF0E0908195FF3AC0BD
:10129000882319F4A6ECB0E002C0AEECB0E0282F31
:1012A00030E0F901EE0FFF1F63E0220F331F6A9554
:1012B000E1F7E20FF31FE059FE4F9181490F511DF5
:1012C000FA0190819C93282F30E0F901EE0FFF1F67
:1012D00093E0220F331F9A95E1F7E20FF31FE059D5
:1012E000FE4F91819F5F282F30E0F901EE0FFF1F25
:1012F000A3E0220F331FAA95E1F7E20FF31FE05995
:10130000FE4F9183DECE1F93182F823021F0CEDE68
:10131000812F7FDF1CC080918A0190918B01009703
:10132000B1F03091850120918701321780F406C019
:10133000809185018F5F80938501EDCF209185019C
:10134000820F911DFC018081EED0882389F71F91C7
:10135000089580E0D8DF81E0D6DF82E0D4DF80E04E
:1013600019DD81E017DD82E015CDF3CF0895282F38
:1013700030E0F901EE0FFF1F93E0220F331F9A9523
:10138000E1F7E20FF31FE059FE4F77836683282FC2
:1013900030E0F901EE0FFF1FA3E0220F331FAA95E3
:1013A000E1F7E20FF31FE059FE4F1182282F30E0E2
:1013B000F901EE0FFF1F63E0220F331F6A95E1F77B
:1013C000E20FF31FE059FE4F4383823009F079CEDC
:1013D0000895CDCF08951F920F920FB60F920BB6BE
:1013E0000F9211242F933F934F935F936F937F93AB
:1013F0008F939F93AF93BF93EF93FF9380E009DFA9
:10140000FF91EF91BF91AF919F918F917F916F91DC
:101410005F914F913F912F910F900BBE0F900FBE98
:101420000F901F9018951F920F920FB60F920BB648
:101430000F9211242F933F934F935F936F937F935A
:101440008F939F93AF93BF93EF93FF9381E0E1DE80
:10145000FF91EF91BF91AF919F918F917F916F918C
:101460005F914F913F912F910F900BBE0F900FBE48
:101470000F901F9018956F9364E06A95F1F76F9144
:101480000197C9F708952F928F939F932FB680915C
:10149000B8019091B90101968093B8019093B90178
:1014A00090E08091BA01891F8093BA019091C001A8
:1014B0009C5F9093C0018091BF0180519742C0F022
:1014C0009093C0018093BF018091BB019091BC01BA
:1014D00001968093BB019093BC0190E08091BD0187
:1014E000891F8093BD018091BE01891F8093BE0139
:1014F0002FBE9F918F912F901895CF93DF93EC0182
:1015000004C088EE93E0B7DF21972097D1F7DF91F1
:10151000CF910895F2CF08958FEF64E041C083E842
:1015200067E03ED0F9CF1F93182F982F9095991F01
:101530009927991F85E8891B65E032D0812F8F7725
:1015400065E02ED01F9108956F9364E06A95F1F7DE
:101550006F910197C9F70895A1E0B0E0E1EBFAE0DF
:10156000CDC0182F249908C02C9906C02C9A8EE162
:1015700090E06983E9DF698184B1806A84B9269843
:10158000812F837080656C7A862B8CBD81E012FF81
:1015900080E08DBD81E090E0B0DF2196E3E0CAC03D
:1015A0000F931F93082F162F0CB406FC03C080E086
:1015B00064E0D2DF0CB404FC03C08CB580618CBD48
:1015C0000EBD03C00CB404FE0AC00DB407FEFACF72
:1015D000112319F0812F90E0B7DF8EB501C080E0B4
:1015E0001F910F910895629FD001739FF001829F18
:1015F000E00DF11D649FE00DF11D929FF00D839FA2
:10160000F00D749FF00D659FF00D9927729FB00D3E
:10161000E11DF91F639FB00DE11DF91FBD01CF0151
:1016200011240895991B79E004C0991F961708F0BA
:10163000961B881F7A95C9F780950895AA1BBB1B36
:1016400051E107C0AA1FBB1FA617B70710F0A61BC2
:10165000B70B881F991F5A95A9F780959095BC01E3
:10166000CD010895A1E21A2EAA1BBB1BFD010DC0DE
:10167000AA1FBB1FEE1FFF1FA217B307E407F50742
:1016800020F0A21BB30BE40BF50B661F771F881F1E
:10169000991F1A9469F760957095809590959B01B4
:1016A000AC01BD01CF01089597FB092E05260ED090
:1016B00057FD04D0D7DF0AD0001C38F45095409570
:1016C000309521953F4F4F4F5F4F0895F6F7909516
:1016D0008095709561957F4F8F4F9F4F08952F9202
:1016E0003F924F925F926F927F928F929F92AF92B2
:1016F000BF92CF92DF92EF92FF920F931F93CF93FF
:10170000DF93CDB7DEB7CA1BDB0B0FB6F894DEBF95
:101710000FBECDBF09942A88398848885F846E84BB
:101720007D848C849B84AA84B984C884DF80EE8005
:10173000FD800C811B81AA81B981CE0FD11D0FB60E
:10174000F894DEBF0FBECDBFED010895FB01DC01B3
:1017500002C005900D9241505040D8F70895F8947A
:02176000FFCFB9
:1017620052583A2000677265656E204C45440072FB
:101772006564204C454400706C6179206E6F74651D
:10178200204300706C6179206E6F746520440054B0
:10179200583A200053656E642073657269616C006B
:1017A2006F7220707265737320420001010404009D
:1017B200D007F4010F009C01B501CF01EA01070235
:1017C2002602470269028E02B502DE020A030210F5
:1017D2000000000000000000000000000000000007
:0E17E2000000000001000000000000000000F8
:00000001FF
