:1000000045C0000060C000005EC000005CC0000091
:100010005AC0000058C0000056C0000054C0000084
:1000200052C0000050C000004EC00000CEC400000E
:100030004AC0000048C0000046C0000079C300006C
:1000400042C0000040C000003EC000003CC00000B4
:100050003AC0000038C0000036C0000034C00000C4
:1000600032C0000030C000002EC000002CC00000D4
:100070002AC0000028C0000026C0000024C00000E4
:1000800022C0000020C000001EC0000011241FBEBE
:10009000CFEFD0E4DEBFCDBF11E0A0E0B1E0E6ECF1
:1000A000FBE000E00BBF02C007900D92A433B10744
:1000B000D9F711E0A4E3B1E001C01D92A135B10769
:1000C000E1F772D07EC59CCF883068F441E050E003
:1000D00002C0440F551F8A95E2F7842FAAE2B0E0D0
:1000E000EBE2F0E03BC0803180F4282F30E0285074
:1000F000304081E090E002C0880F991F2A95E2F716
:10010000A4E2B0E0E5E2F0E029C0883180F4282FD5
:1001100030E02051304081E090E002C0880F991F0C
:100120002A95E2F7A7E2B0E0E8E2F0E017C08032FB
:1001300080F42FE130E0281B310981E090E002C01B
:10014000880F991F2A95E2F7A1E2B0E0E2E2F0E021
:1001500005C080E0A0E0B0E0E0E0F0E06F3F19F41F
:100160009081982709C0662319F09081982B04C0CC
:100170002081982F9095922390839C91982B9C930B
:1001800008958F3F19F481E06FEF07C0882319F4B9
:1001900081E061E002C081E060E096CF80911101D2
:1001A0008F5F80931101089580E091E004D487E08F
:1001B00091E01DD380E0E5DF84E161E085DF84E646
:1001C00090E04AD481E0DDDF84E160E07DDF84E619
:1001D00090E042D4EFCF90913901E0913501F09158
:1001E0003601992311F0849101C08081282F215478
:1001F0002A3110F4805E0895803271F42091350127
:1002000030913601A9014F5F5F4F50933601409303
:1002100035012115310509F70895EF92FF92CF932B
:10022000DF93D9DFC0E0D0E01AC09E01220F331F58
:1002300093E0CC0FDD1F9A95E1F7C20FD31F9927EA
:1002400087FD9095C80FD91FE09780913501909157
:10025000360101969093360180933501BCDF982FCB
:1002600090539A3010F3CE01DF91CF91FF90EF9031
:10027000089510926F0083E28093800081E1809363
:1002800081001092820080E197E290938900809330
:10029000880010928B0010928A00549A78940895E6
:1002A00080913401882321F481E080933401E1CFEF
:1002B0000895A0E0B0E0EEE5F1E052C48C015B01EE
:1002C000E42EEEDF1092120117FF04C01F77AAE0A0
:1002D000FA2E02C0FF24F394C0908100DD2428EFA1
:1002E000C222DD2488EC3F2D389FC00111248017E5
:1002F0009107D0F4E80167E20131160710F0C0E180
:10030000D7E2BE017695679580E090E06058794627
:1003100087469F4F9E0140E050E0DFD3890181E096
:1003200090E0C82AD92A2BC098E2F99E902D11247A
:1003300080E0892EE4014E01982EE401801691069A
:1003400008F4E801BE01769567959E0140E050E013
:100350008F2D8A3039F480E090E0605E73448144F0
:100360009F4F06C080E090E060537D4E8C4E9F4FC3
:10037000B4D3890152E0852E912CC828D9282F2D7D
:100380002A3031F4CE0105966AE070E092D3EB0199
:1003900033E0C83ED30769F0BE0180E090E09501EC
:1003A00040E050E05BD328EE33E040E050E0B7D3CC
:1003B00001C0950110926F00C092810010938900D6
:1003C0000093880040918800509189006E2D603123
:1003D00008F06FE080E190E0861B9109BA0102C04D
:1003E000769567958A95E2F770938B0060938A0003
:1003F00030933C0120933B0186B38FEF86BB81E0B5
:1004000080936F00CDB7DEB7ECE0C6C39B018F3F92
:1004100011F0442329F488EE93E0B90140E047C08D
:10042000813130F0582F5051503618F05FE501C03F
:1004300050E0852F6CE031D3A82FB0E0E4EFFFEF60
:10044000AE9FB001AF9F700DBE9F700D1124650F60
:10045000711D6C30710540F4FB01EE0FFF1FE45E6F
:10046000FE4F6081718102C060E070E0873081F0F2
:10047000082E02C0660F771F0A94E2F7823028F038
:10048000CB0105966AE070E00CC0605070480AC06D
:10049000CB01B6E0880F991FBA95E1F7029665E0A7
:1004A00070E007D3403108F04FE0CB01B90101CF34
:1004B000A0E0B0E0EDE5F2E052C3B090130180910E
:1004C0003701882359F060913801662339F08FEFA6
:1004D00070E040E09BDF1092380126C1C0ECDDE502
:1004E000AA24A39414E0712E00ED17E0B4E0EB2EE3
:1004F000F12CA4EFCA2EA1E0DA2EFFE08F2E912C72
:100500006ADE20913501309136012F5F3F4F3093E5
:100510003601209335018636F1F18736CCF48236E8
:1005200009F4A8C083367CF48E3349F18F333CF450
:10053000813209F480C08C3309F094C022C0813626
:1005400009F090C094C0843601F185360CF51BC0CB
:100550008F3609F445C0803744F48C3611F18D365E
:1005600059F1873609F07EC019C0843709F441C0BB
:10057000863709F45AC0823709F074C036C0B39484
:10058000BFCFBA94BDCFEE2432C0EE2482E074C057
:10059000EE2484E071C0EE2485E06EC0EE2487E096
:1005A0006BC03BDEBC0190931501809314018091D8
:1005B00016019091170133C00EDE8C3619F410929B
:1005C000370104C0A09237011092380180913501A3
:1005D000909136010196909336018093350190CF2A
:1005E0001CDEB82E809313018BCFEE24E39480E0C1
:1005F00043C013DEBC01CE015CD2CB01880F991F32
:1006000053E0660F771F5A95E1F7860F971F909377
:10061000170180931601609114017091150149D260
:1006200070931901609318016BCFF7DD90931B0154
:1006300080931A0165CF70921301109317010093F4
:100640001601F0921501E0921401D0921901C092A6
:10065000180190921B0180921A011092370144E018
:10066000B42E4ECF10923601109235015DC0EE24AB
:1006700089E002C0EE248BE09CE0B99EB02C1124EE
:10068000B80EA9DD8B3211F08332B1F480913501BF
:100690009091360101969093360180933501B39481
:1006A000F0CF8091350190913601019690933601FB
:1006B00080933501BA948FDD8D3299F3C091180182
:1006C000D09119018153883048F4C0911601D0911E
:1006D0001701A3DDBC01CE01ECD1EB018E010BC0F3
:1006E0008091350190913601019690933601809367
:1006F0003501C00FD11F169507956DDD8E3281F340
:1007000080913701882339F0CE01969587958093A3
:100710003801C81BD109EE2011F0BB24BA948B2DEF
:10072000BE0140911A0172DECDB7DEB7EDE033C2F3
:100730001F920F920FB60F920BB60F9211242F93A8
:100740003F934F935F936F937F938F939F93AF9359
:10075000BF93EF93FF9380913B0190913C019C01EB
:100760002150304030933C0120933B01009709F524
:1007700010926F00789480918100887F81608093CF
:10078000810080E197E29093890080938800109225
:100790008B0010928A0081E08093120180913501D4
:1007A00090913601009729F080913A01882309F44D
:1007B0007FDEFF91EF91BF91AF919F918F917F91DC
:1007C0006F915F914F913F912F910F900BBE0F90C2
:1007D0000FBE0F901F90189510926F0090933601E6
:1007E00080933501109239011092380161CEF4CF17
:1007F000089581E090E06F9364E06A95F1F76F915E
:100800000197C9F708950F931F93CF93DF9317B103
:100810003D982898299AC0E0D0E0EBDF2A9AE9DFDA
:1008200006B12A98E6DF2A9AE4DF2A98249605FF83
:1008300010C09E0140E050E0809141019091420142
:10084000A0914301B0914401281739074A075B077B
:1008500020F39E0140E050E08091410190914201DF
:10086000A0914301B0914401281739074A075B075B
:1008700028F082E390E0A0E0B0E004C080E395E7D8
:10088000A0E0B0E08093410190934201A093430126
:10089000B093440117B9DF91CF911F910F91089543
:1008A00028B190E08F709070880F991F880F991F62
:1008B000237C282B28B92A9A9CDF2A989ACFA2E079
:1008C000B0E0E4E6F4E053C1182F4A83698357D0BF
:1008D0009ADFF7B008B1299869814A81662311F03F
:1008E000289A01C0289887B18C6387B9413021F0DC
:1008F000812F82958F70D4DF812F8F70D1DFF7B871
:1009000008B92296E5E04FC160E042E0D8CF61E04F
:1009100042E0D5CF60E041E0D2CF3D98459A80E3F8
:1009200095E7A0E0B0E08093410190934201A0934D
:100930004301B0934401209A219A229A8EE190E0DB
:100940008BD083E0E7DF86E090E086D083E0E2DFD3
:1009500082E090E081D083E0DDDF82E090E07CD037
:1009600082E0D8DF82E090E077D088E2CDDF88E0D7
:10097000CBDF81E0C9DF86E0C7DF8CE0C5CF8091A7
:100980004501882321F481E080934501C6CF089575
:10099000EF92FF92CF93DF93E82EE7017E01F92ECD
:1009A000E70101C0B4DF89918823E1F7DF91CF919E
:1009B000FF90EF900895ECCF08956F9364E06A95EF
:1009C000F1F76F910197C9F708952F928F939F9335
:1009D0002FB680914701909148010196809347017D
:1009E0009093480190E080914901891F80934901CB
:1009F00090914F019C5F90934F0180914E018051E7
:100A00009742C0F090934F0180934E0180914A012C
:100A100090914B01019680934A0190934B0190E095
:100A200080914C01891F80934C0180914D01891F59
:100A300080934D012FBE9F918F912F901895CF934A
:100A4000DF93EC0104C088EE93E0B7DF2197209795
:100A5000D1F7DF91CF910895F2CF0895629FD00131
:100A6000739FF001829FE00DF11D649FE00DF11D69
:100A7000929FF00D839FF00D749FF00D659FF00D18
:100A80009927729FB00DE11DF91F639FB00DE11D05
:100A9000F91FBD01CF0111240895991B79E004C00D
:100AA000991F961708F0961B881F7A95C9F78095AD
:100AB0000895AA1BBB1B51E107C0AA1FBB1FA617A5
:100AC000B70710F0A61BB70B881F991F5A95A9F7F7
:100AD00080959095BC01CD010895A1E21A2EAA1B24
:100AE000BB1BFD010DC0AA1FBB1FEE1FFF1FA217DE
:100AF000B307E407F50720F0A21BB30BE40BF50BDB
:100B0000661F771F881F991F1A9469F76095709563
:100B1000809590959B01AC01BD01CF01089597FB95
:100B2000092E05260ED057FD04D0D7DF0AD0001CB1
:100B300038F450954095309521953F4F4F4F5F4F7A
:100B40000895F6F790958095709561957F4F8F4F3A
:100B50009F4F08952F923F924F925F926F927F9294
:100B60008F929F92AF92BF92CF92DF92EF92FF92BD
:100B70000F931F93CF93DF93CDB7DEB7CA1BDB0B69
:100B80000FB6F894DEBF0FBECDBF09942A8839880E
:100B900048885F846E847D848C849B84AA84B98415
:100BA000C884DF80EE80FD800C811B81AA81B98121
:100BB000CE0FD11D0FB6F894DEBF0FBECDBFED0135
:060BC0000895F894FFCF38
:100BC60048656C6C6F21004C3136206365673E6367
:100BD600000101040400D007F4010F009C01B501D7
:100BE600CF01EA0107022602470269028E02B50218
:040BF600DE020A030E
:00000001FF
