:1000000047C0000063C0000061C000005FC0000086
:100010005DC000005BC0000059C0000057C0000078
:1000200055C0000053C0000051C000001FC60000B2
:10003000D6C200004BC00000E0C300000C942C09A5
:1000400045C0000043C0000041C000003FC00000A8
:100050003DC000003BC0000039C0000037C00000B8
:1000600035C0000033C0000031C000002FC00000C8
:100070002DC000002BC0000029C0000027C00000D8
:1000800025C0000023C0000021C0000020E4730050
:1000900011241FBECFEFD0E4DEBFCDBF11E0A0E042
:1000A000B1E0E0EDF6E100E00BBF02C007900D9279
:1000B000AC32B107D9F711E0ACE2B1E001C01D925A
:1000C000AE36B107E1F709D00C94660B99CF809159
:1000D00000018F5F809300010895DF938DB79EB775
:1000E000019660E03DD580E064E175E08FD534D1C4
:1000F00080E2D4D1882399F080E066E970E0ACD545
:1001000080E068E077E082D58CEB92E0F6D580E085
:1001100060E070E0A1D580E064E175E077D584E02F
:10012000BDD1882329F380E06CE370E095D580E0B1
:1001300068E077E06BD584E0A1D10ED180E036D5C0
:10014000BC0180E090E06FD18CE890E014D180E0B9
:1001500060E070E081D580E064E175E057D5C8CFFC
:1001600081E090E06F9364E06A95F1F76F910197F9
:10017000C9F708950F931F93CF93DF9317B13D985D
:100180002898299AC0E0D0E0EBDF2A9AE9DF06B18F
:100190002A98E6DF2A9AE4DF2A98249605FF10C001
:1001A0009E0140E050E08091300190913101A0919A
:1001B0003201B0913301281739074A075B0720F352
:1001C0009E0140E050E08091300190913101A0917A
:1001D0003201B0913301281739074A075B0728F02D
:1001E00082E390E0A0E0B0E004C080E395E7A0E007
:1001F000B0E08093300190933101A0933201B0932D
:10020000330117B9DF91CF911F910F91089528B154
:1002100090E08F709070880F991F880F991F237C32
:10022000282B28B92A9A9CDF2A989ACFA2E0B0E01E
:10023000ECE1F1E00C94090A182F4A83698358D045
:1002400099DFF7B008B1299869814A81662311F0D6
:10025000289A01C0289887B18C6387B9413021F072
:10026000812F82958F70D3DF812F8F70D0DFF7B809
:1002700008B92296E5E00C94250A60E042E0D6CF6A
:1002800061E042E0D3CF60E041E0D0CF3D98459AB5
:1002900080E395E7A0E0B0E08093300190933101D6
:1002A000A0933201B0933301209A219A229A8EE1D1
:1002B00090E023D583E0E7DF86E090E01ED583E081
:1002C000E2DF82E090E019D583E0DDDF82E090E0BC
:1002D00014D582E0D8DF82E090E00FD588E2CDDF50
:1002E00088E0CBDF81E0C9DF86E0C7DF8CE0C5CFE7
:1002F00080913401882321F481E080933401C6CFBA
:10030000089581E0BADF80912C0190912D01009732
:1003100011F1A0E0B0E208C0E0912C01F0912D01B4
:10032000E20FF31FB083AF5F2A2F30E0809101010D
:1003300090E001976091020170E0869FA001879F85
:10034000500D969F500D1124241735072CF3109251
:100350002F0110922E010895D4CF0895CF93DF93EB
:10036000EC0102C08DDF2196FE0184918823D1F734
:10037000DF91CF910895F2CF0895AAE0B0E0E3ECC9
:10038000F1E00C94040A9B01AC011AE06AE0C62E6D
:10039000D12CE12CF12C5E010894A11CB11C022F80
:1003A000CA01B901A7019601EAD71150F501E10F81
:1003B000F11D005D922F990F892F880F880F890FEB
:1003C000081B0083211531054105510541F707C080
:1003D000F601E10FF11D808153DF1F5F04C06E0144
:1003E0000894C11CD11C1A3098F32A96EAE00C94A8
:1003F000200AEF92FF920F931F937B018C0197FFCE
:100400000AC010950095F094E094E11CF11C011DC8
:10041000111D8DE235DFC801B701AFDF1F910F91CC
:10042000FF90EF900895E5CF089587B1837D87B958
:1004300088B18C6288B985E090E06F9364E06A953A
:10044000F1F76F910197C9F70895809135018823DD
:1004500021F481E080933501E8CF08951F93182F90
:10046000F4DF86B18123E9F38AE090E046D486B1D7
:100470008123B9F386B181231F910895EFCF0895A9
:10048000A1E0B0E0E5E4F2E0C7C78983DEDF96B122
:100490009095898189232196E2E0DAC7F1CF08950A
:1004A000FC0111821082138212821582148216823C
:1004B000683068F489E290E0918380838BE290E079
:1004C000938382838AE290E09583848323C06031A2
:1004D00080F483E290E09183808385E290E09383CF
:1004E000828384E290E09583848370E0685070405A
:1004F00011C06831C0F486E290E09183808388E285
:1005000090E09383828387E290E09583848370E018
:100510006051704081E090E002C0880F991F6A9599
:10052000E2F7868308956032C0F480E290E0918320
:10053000808382E290E09383828381E290E09583DE
:1005400084832FE130E0261B310981E090E002C076
:10055000880F991F2A95E2F786830895FC01A481EC
:10056000B5818681662321F09C91982B9C930895F8
:100570009C91809589238C930895FC016F3F31F401
:10058000A281B3818C91968189270CC0A281B3810D
:100590008681662321F09C91982B9C9308959C91D1
:1005A000809589238C930895A7E0B0E0E9EDF2E00F
:1005B0002FC77C018E010F5F1F4FC80171DFC8017B
:1005C00060E0DBDFC80161E0C9DF8B819C81F7015E
:1005D000918380838F8182832796E6E035C71F92BF
:1005E0000F920FB60F920BB60F9211241F932F93F9
:1005F0003F934F935F936F937F938F939F93AF93AB
:10060000BF93EF93FF93809151018F5F8770809329
:10061000510140E053E021C090E02091520130911F
:10062000530180FF0BC0459FF0011124E20FF31F1F
:10063000A081B1812C913281232B0BC0459FF00109
:100640001124E20FF31FA081B1813C9122812095FA
:1006500023232C93959587954F5F90914E014917D1
:10066000D8F2109151011F5F177080914F01181738
:1006700028F0109289001092880049C0212F30E0A4
:10068000220F331FE0914201F0914301E20FF31F6B
:1006900040815181A0914A01B0914B01A20FB31F3B
:1006A0006D917C9111976115710511F141155105FD
:1006B000F9F0A0914601B0914701A20FB31F8D91AF
:1006C0009C9111970097A1F04817590738F4460FED
:1006D000571F48175907A8F4CA0113C09C01260FD9
:1006E000371F4217530768F0CA01861B970B09C0D2
:1006F000A0914601B0914701A20FB31F8D919C912B
:1007000011979093890080938800918380838091D2
:100710005001181728F010928B0010928A0042C0E6
:10072000812F90E0880F991FE0914401F0914501DD
:10073000E80FF91F40815181A0914C01B0914D010A
:10074000A80FB91F2D913C911197609148017091AC
:10075000490121153105D1F0860F971FDC018D91DC
:100760009C9111974817590738F4240F351F281703
:10077000390790F4C90110C0BC01620F731F4617FE
:10078000570750F0CA01821B930B06C0860F971FB4
:10079000DC018D919C91119790938B0080938A003E
:1007A000918380838091510190915001891788F441
:1007B00093E0899FC0011124E0915401F09155010B
:1007C000E80FF91FA081B1819C91828180958923D6
:1007D0008C93FF91EF91BF91AF919F918F917F91FA
:1007E0006F915F914F913F912F911F910F900BBE91
:1007F0000F900FBE0F901F9018951F920F920FB67B
:100800000F920BB60F9211248F939F93AF93BF93C8
:10081000EF93FF938091510190915001891780F4DB
:1008200093E0899FC0011124E0915401F09155019A
:10083000E80FF91FA081B1818C91928189278C9357
:10084000FF91EF91BF91AF919F918F910F900BBE50
:100850000F900FBE0F901F901895809152019091AC
:100860005301009729F099D610925301109252012A
:100870008091420190914301009729F08ED6109209
:1008800043011092420180914601909147010097E7
:1008900029F083D6109247011092460180914A01B7
:1008A00090914B01009729F078D610924B0110924D
:1008B0004A018091540190915501009729F06DD61D
:1008C000109255011092540180914401909145017C
:1008D000009729F062D61092450110924401809150
:1008E000480190914901009729F057D6109249018B
:1008F0001092480180914C0190914D01009729F090
:100900004CD610924D0110924C010895A1E0B0E038
:10091000EBE8F4E073C5982E792E842E652E1092A4
:100920006F001092610181E08093030110926301D6
:100930001092620110928100C62E643010F013E014
:10094000C12EC0924E0181E090E00C2C02C0880FB5
:10095000991F0A94E2F780934F015D98559A82E8B7
:1009600080938000D22E293010F0B8E0DB2ED09298
:10097000500173DF43E02C2D249FC00111244983D3
:1009800072D58C01909353018093520180914F0155
:10099000482E5524440C551CC20165D57C0190930A
:1009A000430180934201C2015ED55C0190934701EF
:1009B00080934601C20157D590934B0180934A0121
:1009C00049810115110509F43FC0E114F10409F44E
:1009D0003BC0A114B104C1F10097B1F1DD2029F4AD
:1009E000092D172DEE24FF2440C0ED2DE49FC001FA
:1009F000112439D58C019093550180935401809135
:100A00005001482E5524440C551CC2012CD57C01A4
:100A10009093450180934401C20125D55C019093D8
:100A2000490180934801C2011ED590934D018093E6
:100A30004C010115110541F0E114F10429F0A11454
:100A4000B10411F0009761F608DF81E086C0F8017B
:100A500061918F0180915201909153018E0D9F1DE4
:100A6000A3DD83E090E0E80EF91E802F89198C1534
:100A700070F36091420170914301409146015091A1
:100A8000470120914A0130914B01A0E014C08A2F08
:100A900090E0880F991FFB01E80FF91F1182108267
:100AA000FA01E80FF91F11821082820F931FFC01D7
:100AB00011821082AF5F80914F01A81740F3E82C9C
:100AC000F62CAA24BB2400E010E028C0F7016191B5
:100AD0007F018091540190915501800F911F64DD39
:100AE000E0914401F0914501EA0DFB1D1182108255
:100AF000E0914801F0914901EA0DFB1D118210823D
:100B0000E0914C01F0914D01EA0DFB1D1182108224
:100B10000D5F1F4F82E090E0A80EB91E8E2D881940
:100B20008D15A0F21092510181E18093810088EA35
:100B300091E690938700809386008FEF86BB80912B
:100B40006F00806280936F00DD2029F080916F003C
:100B5000846080936F00789480E02196E0E16AC41D
:100B600040E050E020E0D2CE90914F018917D0F4C0
:100B700090916F009F7D90936F0090E0880F991F78
:100B8000E0914201F0914301E80FF91F80819181CA
:100B900005966AE070E0DFD380916F0080628093F9
:100BA0006F0002C060E070E0CB010895DDCF0895D2
:100BB00090914F01891748F590916F009F7D909318
:100BC0006F0090E087709070880F991FE091460148
:100BD000F0914701E80FF91F862F972F29E08339FD
:100BE000920710F082E999E09C01220F331F43E045
:100BF000880F991F4A95E1F7280F391F3183208309
:100C000080916F00806280936F000895D1CF089526
:100C100090914F018917F8F490916F009F7D909308
:100C20006F0090E087709070880F991FE0914A01E3
:100C3000F0914B01E80FF91F862F972F21E6893A93
:100C4000920710F088EA91E69183808380916F008B
:100C5000806280936F000895DBCF08956F9364E006
:100C60006A95F1F76F910197C9F708952F928F93C5
:100C70009F932FB6809157019091580101968093D0
:100C800057019093580190E080915901891F8093FA
:100C9000590190915F019C5F90935F0180915E018B
:100CA00080519742C0F090935F0180935E018091E4
:100CB0005A0190915B01019680935A0190935B01D8
:100CC00090E080915C01891F80935C0180915D01BF
:100CD000891F80935D012FBE9F918F912F90189552
:100CE000CF93DF93EC0104C088EE93E0B7DF219748
:100CF0002097D1F7DF91CF910895F2CF0895909189
:100D00006601E0916201F0916301992311F08491F1
:100D100001C08081282F21542A3110F4805E08956B
:100D2000803271F42091620130916301A9014F5F1B
:100D30005F4F50936301409362012115310509F71C
:100D40000895EF92FF92CF93DF93D9DFC0E0D0E018
:100D50001AC09E01220F331F93E0CC0FDD1F9A951E
:100D6000E1F7C20FD31F992787FD9095C80FD91FB0
:100D7000E0978091620190916301019690936301E5
:100D800080936201BCDF982F90539A3010F3CE010C
:100D9000DF91CF91FF90EF90089510926F0083E262
:100DA0008093800081E1809381001092820080E135
:100DB00097E2909389008093880010928B001092A4
:100DC0008A00549A7894089580916101882321F4CF
:100DD00081E080936101E1CF0895A0E0B0E0E2EF0F
:100DE000F6E010C38C015B01E42EEEDF10920301EC
:100DF00017FF04C01F77AAE0FA2E02C0FF24F39465
:100E0000C0908100DD2428EFC222DD2488EC3F2D34
:100E1000389FC001112480179107D0F4E80167E2E0
:100E20000131160710F0C0E1D7E2BE017695679553
:100E300080E090E06058794687469F4F9E0140E0F1
:100E400050E09DD2890181E090E0C82AD92A2BC0C8
:100E500098E2F99E902D112480E0892EE4014E0144
:100E6000982EE4018016910608F4E801BE017695FB
:100E700067959E0140E050E08F2D8A3039F480E084
:100E800090E0605E734481449F4F06C080E090E034
:100E900060537D4E8C4E9F4F72D2890152E0852E59
:100EA000912CC828D9282F2D2A3031F4CE0105964F
:100EB0006AE070E050D2EB0133E0C83ED30769F03E
:100EC000BE0180E090E0950140E050E019D228EEAC
:100ED00033E040E050E075D201C0950110926F0000
:100EE000C09281001093890000938800409188008F
:100EF000509189006E2D603108F06FE080E190E044
:100F0000861B9109BA0102C0769567958A95E2F72A
:100F100070938B0060938A0030936901209368017D
:100F200086B38FEF86BB81E080936F00CDB7DEB7CD
:100F3000ECE084C29B018F3F11F0442329F488EE3A
:100F400093E0B90140E047C0813130F0582F505153
:100F5000503618F05FE501C050E0852F6CE0EFD10E
:100F6000A82FB0E0E4EFFFEFAE9FB001AF9F700D90
:100F7000BE9F700D1124650F711D6C30710540F41A
:100F8000FB01EE0FFF1FE35FFE4F6081718102C026
:100F900060E070E0873081F0082E02C0660F771F96
:100FA0000A94E2F7823028F0CB0105966AE070E0FF
:100FB0000CC0605070480AC0CB01B6E0880F991F82
:100FC000BA95E1F7029665E070E0C5D1403108F0CE
:100FD0004FE0CB01B90101CFA0E0B0E0E1EFF7E0D5
:100FE00010C2B090040180916401882359F060918F
:100FF0006501662339F08FEF70E040E09BDF1092CF
:10100000650126C1C0ECDDE5AA24A39414E0712E8D
:1010100000ED17E0B4E0EB2EF12CA4EFCA2EA1E016
:10102000DA2EFFE08F2E912C6ADE20916201309142
:1010300063012F5F3F4F3093630120936201863637
:10104000F1F18736CCF4823609F4A8C083367CF4FB
:101050008E3349F18F333CF4813209F480C08C33F4
:1010600009F094C022C0813609F090C094C0843643
:1010700001F185360CF51BC08F3609F445C0803769
:1010800044F48C3611F18D3659F1873609F07EC063
:1010900019C0843709F441C0863709F45AC0823731
:1010A00009F074C036C0B394BFCFBA94BDCFEE245C
:1010B00032C0EE2482E074C0EE2484E071C0EE24DD
:1010C00085E06EC0EE2487E06BC03BDEBC019093F0
:1010D000060180930501809107019091080133C0BA
:1010E0000EDE8C3619F41092640104C0A0926401E3
:1010F0001092650180916201909163010196909335
:1011000063018093620190CF1CDEB82E80930401AE
:101110008BCFEE24E39480E043C013DEBC01CE010C
:101120001AD1CB01880F991F53E0660F771F5A958C
:10113000E1F7860F971F9093080180930701609154
:1011400005017091060107D170930A0160930901AE
:101150006BCFF7DD90930C0180930B0165CF7092FC
:1011600004011093080100930701F0920601E09238
:101170000501D0920A01C092090190920C0180925F
:101180000B011092640144E0B42E4ECF1092630123
:10119000109262015DC0EE2489E002C0EE248BE073
:1011A0009CE0B99EB02C1124B80EA9DD8B3211F051
:1011B0008332B1F480916201909163010196909322
:1011C000630180936201B394F0CF809162019091AA
:1011D000630101969093630180936201BA948FDD5D
:1011E0008D3299F3C0910901D0910A018153883061
:1011F00048F4C0910701D0910801A3DDBC01CE01E4
:10120000AAD0EB018E010BC0809162019091630125
:1012100001969093630180936201C00FD11F1695D0
:1012200007956DDD8E3281F380916401882339F05A
:10123000CE019695879580936501C81BD109EE2054
:1012400011F0BB24BA948B2DBE0140910B0172DECC
:10125000CDB7DEB7EDE0F1C01F920F920FB60F923F
:101260000BB60F9211242F933F934F935F936F937D
:101270007F938F939F93AF93BF93EF93FF9380914F
:101280006801909169019C012150304030936901BF
:1012900020936801009709F510926F00789480916F
:1012A0008100887F81608093810080E197E2909344
:1012B00089008093880010928B0010928A0081E050
:1012C000809303018091620190916301009729F05E
:1012D00080916701882309F47FDEFF91EF91BF9130
:1012E000AF919F918F917F916F915F914F913F91BE
:1012F0002F910F900BBE0F900FBE0F901F9018955F
:10130000629FD001739FF001829FE00DF11D649FE9
:10131000E00DF11D929FF00D839FF00D749FF00D75
:10132000659FF00D9927729FB00DE11DF91F639F16
:10133000B00DE11DF91FBD01CF0111240895991BC6
:1013400079E004C0991F961708F0961B881F7A95BC
:10135000C9F780950895AA1BBB1B51E107C0AA1FBE
:10136000BB1FA617B70710F0A61BB70B881F991F46
:101370005A95A9F780959095BC01CD010895A1E2F9
:101380001A2EAA1BBB1BFD010DC0AA1FBB1FEE1FFF
:10139000FF1FA217B307E407F50720F0A21BB30B4A
:1013A000E40BF50B661F771F881F991F1A9469F7C6
:1013B00060957095809590959B01AC01BD01CF0122
:1013C000089597FB092E05260ED057FD04D0D7DFD0
:1013D0000AD0001C38F450954095309521953F4F28
:1013E0004F4F5F4F0895F6F79095809570956195F2
:1013F0007F4F8F4F9F4F08952F923F924F925F9252
:101400006F927F928F929F92AF92BF92CF92DF9214
:10141000EF92FF920F931F93CF93DF93CDB7DEB779
:10142000CA1BDB0B0FB6F894DEBF0FBECDBF09940D
:101430002A88398848885F846E847D848C849B8464
:10144000AA84B984C884DF80EE80FD800C811B8172
:10145000AA81B981CE0FD11D0FB6F894DEBF0FBEA1
:10146000CDBFED010895CF93DF938230910510F445
:1014700082E090E0E0916C01F0916D0140E050E07D
:1014800020E030E026C06081718168177907E0F0C4
:101490006817790781F4828193812115310531F034
:1014A000D90113969C938E9312972BC090936D0144
:1014B00080936C0126C04115510519F0641775071A
:1014C00018F4AB01E901DF019F0172816381E72F0D
:1014D000F62F3097C1F64115510501F1481B590B04
:1014E0004430510580F412968D919C91139720976A
:1014F00019F09B838A8304C090936D0180936C01E3
:10150000FD01329646C0FD01E40FF51F81939193D2
:101510004250504011965C934E933BC020916A011B
:1015200030916B012115310541F420912701309153
:10153000280130936B0120936A0120912901309199
:101540002A012115310541F42DB73EB740912501FF
:1015500050912601241B350BE0916A01F0916B013B
:10156000E217F307A0F42E1B3F0B2817390778F07A
:10157000AC014E5F5F4F2417350748F04E0F5F1FD9
:1015800050936B0140936A018193919302C0E0E014
:10159000F0E0CF01DF91CF910895CF93DF930097D3
:1015A00009F491C0FC0132971382128260916C01A0
:1015B00070916D016115710581F420813181280FD1
:1015C000391F80916A0190916B018217930799F5F9
:1015D000F0936B01E0936A0176C0DB0180E090E05C
:1015E00002C0CD01D901AE17BF0748F412962D9164
:1015F0003C91139721153105A1F7CD0121C0B3838B
:10160000A283EF01499159919E01240F351FA21722
:10161000B30779F42D913C911197240F351F2E5F5C
:101620003F4F3183208312962D913C911397338342
:101630002283009729F4F0936D01E0936C0143C07D
:10164000DC011396FC93EE9312974D915D91A40FDC
:10165000B51FEA17FB0769F420813181240F351F7C
:101660002E5F3F4FEC0139832883228133813B83F6
:101670002A83E0E0F0E002C0FB01BC01DB0112962E
:101680008D919C9113970097B9F79B012E5F3F4F67
:101690008D919C911197820F931F40916A015091F7
:1016A0006B014817590779F4309729F410926D01AE
:1016B00010926C0102C0138212822250304030938B
:1016C0006B0120936A01DF91CF910895F894FFCFC9
:1016D00001021001040400D007F4010F009C01B5C1
:1016E00001CF01EA0107022602470269028E02B514
:0C16F00002DE020A0320006E0100000070
:00000001FF
