:100000003DC0000056C0000054C0000052C00000B7
:1000100050C000004EC000004CC000004AC00000AC
:1000200048C0000046C0000044C00000B7C1000046
:1000300040C000003EC000003CC000003AC00000CC
:1000400038C0000036C0000034C0000032C00000DC
:1000500030C000002EC000002CC000002AC00000EC
:1000600028C0000026C0000024C0000022C00000FC
:1000700020C000001EC000001CC0000011241FBED4
:10008000CFEFD8E0DEBFCDBF11E0A0E0B1E0E0EA05
:10009000F4E002C005900D92AA30B107D9F711E043
:1000A000AAE0B1E001C01D92AE31B107E1F708D07E
:1000B000F5C1A6CF809106018F5F80930601089558
:1000C00080E091E028D188EC90E0AFD181E063E05E
:1000D00048EC50E059D10AD183E061E03BD180E0A7
:1000E00091E019D188EC90E0A0D180E063E048EC89
:1000F00050E04AD1FBD0E4CF81E090E06F9364E020
:100100006A95F1F76F910197C9F708950F931F93BF
:10011000CF93DF9317B13D982898299AC0E0D0E09B
:10012000EBDF2A9AE9DF06B12A98E6DF2A9AE4DFB4
:100130002A98249605FF10C09E0140E050E080916F
:100140000E0190910F01A0911001B091110128179B
:1001500039074A075B0720F39E0140E050E0809199
:100160000E0190910F01A0911001B091110128177B
:1001700039074A075B0728F082E390E0A0E0B0E08F
:1001800004C080E395E7A0E0B0E080930E01909377
:100190000F01A0931001B093110117B9DF91CF9116
:1001A0001F910F91089528B190E08F709070880F83
:1001B000991F880F991F237C282B28B92A9A9CDF26
:1001C0002A989ACFA2E0B0E0E7EEF0E03DC1182F08
:1001D0004A83698357D09ADFF7B008B129986981BB
:1001E0004A81662311F0289A01C0289887B18C6350
:1001F00087B9413021F0812F82958F70D4DF812F14
:100200008F70D1DFF7B808B92296E5E039C160E018
:1002100042E0D8CF61E042E0D5CF60E041E0D2CF0C
:100220003D98459A80E395E7A0E0B0E080930E0109
:1002300090930F01A0931001B0931101209A219A7D
:10024000229A8EE190E0F1D083E0E7DF86E090E053
:10025000ECD083E0E2DF82E090E0E7D083E0DDDF16
:1002600082E090E0E2D082E0D8DF82E090E0DDD072
:1002700088E2CDDF88E0CBDF81E0C9DF86E0C7DF41
:100280008CE0C5CF80911201882321F481E0809316
:100290001201C6CF089581E0BADF80910A019091E2
:1002A0000B01009711F1A0E0B0E208C0E0910A0153
:1002B000F0910B01E20FF31FB083AF5F2A2F30E004
:1002C0008091070190E001976091080170E0869F9E
:1002D000A001879F500D969F500D112424173507BC
:1002E0002CF310920D0110920C010895D4CF0895B3
:1002F000EF92FF92CF93DF93E82EE7017E01F92E74
:10030000E70101C087DF89918823E1F7DF91CF9171
:10031000FF90EF900895ECCF0895A5E0B0E0E2E9FA
:10032000F1E094C0182F80E8898380EC8A8384E907
:100330008B8384ED8C83FE01E60FF11D8181810F9B
:100340006D8365DF10930D016D8160930C0125961F
:10035000E3E098C0E2CF08950F931F93CF93DF930C
:10036000182F062FEA0109C0112311F488E101C0FA
:100370008CE14DDFCE0159D001500023A9F7DF9168
:10038000CF911F910F910895E7CF08956F9364E087
:100390006A95F1F76F910197C9F708952F928F939E
:1003A0009F932FB68091140190911501019680932F
:1003B00014019093150190E080911601891F80939C
:1003C000160190911C019C5F90931C0180911B0170
:1003D00080519742C0F090931C0180931B01809143
:1003E00017019091180101968093170190931801BD
:1003F00090E080911901891F8093190180911A0161
:10040000891F80931A012FBE9F918F912F9018956D
:10041000CF93DF93EC0104C088EE93E0B7DF219720
:100420002097D1F7DF91CF910895F2CF08952F92C1
:100430003F924F925F926F927F928F929F92AF9274
:10044000BF92CF92DF92EF92FF920F931F93CF93C1
:10045000DF93CDB7DEB7CA1BDB0B0FB6F894DEBF58
:100460000FBECDBF09942A88398848885F846E847E
:100470007D848C849B84AA84B984C884DF80EE80C8
:10048000FD800C811B81AA81B981CE0FD11D0FB6D1
:10049000F894DEBF0FBECDBFED010895F894FFCFF5
:0A04A00048656C6C6F00010210004B
:00000001FF
