:10000000E1C10000FBC10000F9C10000F7C1000020
:10001000F5C10000F3C10000F1C10000EFC1000014
:10002000EDC10000EBC10000E9C100000C946814B0
:10003000E5C10000E3C10000E1C100000C94A20C86
:10004000DDC10000DBC100000C946208D7C10000D4
:100050000C9467120C941814D1C10000CFC1000099
:10006000CDC10000CBC10000C9C10000C7C1000064
:100070000C948D120C943C14C1C100003E673332C5
:100080003E3E633332003E3E6333323E67333200DE
:10009000216333320021653332002167333200217E
:1000A00076383E3E633332004F3620543430204C95
:1000B00031362064233C623C66233C64233C662347
:1000C0003C62642366235438302063233C622D3C19
:1000D00066233C63233C66233C622D632338543102
:1000E0003830206423623C6623642366233E6264C6
:1000F0002366236323622D3C6623632366233E62CB
:100100002D63233820633E63233C63233E63233CFB
:10011000623E63233C63233E6323633E63233C636D
:10012000233E63233C623E63233C63233E6323639D
:100130003E63233C63233E63233C622D3E63233CAA
:1001400063233E6323633E63233C63233E63233C7C
:10015000622D3E63233C63233E6323633E63233C63
:1001600063233E6323663E63233C63233E63236332
:100170003E63233C63233E6323663E63233C632349
:100180003E6323633E63233C63233E632366233E37
:1001900063233C63233E6323633E63233C63233E2C
:1001A000632366233E63233C63233E63236423620D
:1001B000622D62642362662364236323622D61627D
:1001C0002D6323622D66236423002020202020201D
:1001D000202020202020202020072048756E6761E5
:1001E0007269616E2052686170736F6479204E6F1E
:1001F0002E2032202D206279204672616E7A204CAA
:1002000069737A74200720202020202020202020BD
:100210002020202020002020205468616E6B20794F
:100220006F752120202000627574746F6E3A20541F
:1002300072792069742120005072657373206D6992
:1002400064646C652020202000746F2073656C65E9
:1002500063742E20202020202000557365206D69B6
:100260006420627574746F6E20200044656D6F2089
:1002700050726F6772616D202020200020202020A6
:100280005356502D333234202020202000506F6CE4
:100290006F6C75204F72616E677574616E00066DCC
:1002A0006964007F746F702020A56D6964202062EE
:1002B0006F747E002020204D61696E204D656E7543
:1002C000002020202020202020202020202020204E
:1002D0002000496E7374616C6C206472697665727B
:1002E000732E005A5A5A5A5A5A7A7A7A7A7A7A2E47
:1002F0002E2E2E00436F6E6E656374205553422E72
:100300000041646A757374207472696D706F742E25
:1003100000424F5400626F7400544F5000746F706D
:1003200000066D696420205044303A333D78787877
:10033000780042333D78202043303D7820204331FF
:100340003D7800066D203736353433323130544134
:100350004243440000020105091E08040406050585
:10036000041C1C00000000000000001F1F1F1F1FB6
:100370001F1F416E616C6F6720496E70757473004A
:100380004261747465727920566F6C7461676500A0
:100390004469676974616C20496E70757473004CB0
:1003A000454473004D6F746F7273004D75736963CC
:1003B000005472696D706F740054696D65720055F8
:1003C0005342000011241FBECFEFD8E0DEBFCDBFE7
:1003D00011E0A0E0B1E0E6ECFCE202C005900D9275
:1003E000AE3AB107D9F712E0AEEAB1E001C01D9212
:1003F000A135B107E1F79CD60C94611601CE882394
:1004000021F480917C008F7D03C080917C0080620C
:1004100080937C000895FC01118210821382128265
:10042000158214821682683068F489E290E0918324
:1004300080838BE290E0938382838AE290E09583CD
:10044000848323C0603180F483E290E091838083D1
:1004500085E290E09383828384E290E095838483B5
:1004600070E06850704011C06831C0F486E290E0DE
:100470009183808388E290E09383828387E290E097
:100480009583848370E06051704081E090E002C009
:10049000880F991F6A95E2F7868308956032C0F449
:1004A00080E290E09183808382E290E09383828374
:1004B00081E290E0958384832FE130E0261B3109AF
:1004C00081E090E002C0880F991F2A95E2F78683A9
:1004D0000895FC016F3F31F4A281B3818C91968124
:1004E00089270CC0A281B3818681662321F09C916B
:1004F000982B9C9308959C91809589238C930895C3
:10050000A7E0B0E0E6E8F2E00C943716282FF62ECC
:100510008E010F5F1F4FC801622F7DDFC8016F2D55
:10052000D8DFED81FE8180819F81892B8083279692
:10053000E5E00C9453168F3F19F481E06FEF07C08C
:10054000882319F481E061E002C081E060E0D8CF47
:10055000682F84E1D5CFA1E1B0E0E1EBF2E00C94AB
:100560002E1682E061E172E040E40E945F12DE013B
:100570001196E0E0F1E080E101900D928150E1F709
:10058000198ACC24DD247601AA24A39499248E010F
:100590000F5F1F4F01C0AA240E94BB1382E00E947C
:1005A0007D10882E882379F182E00E94651281E116
:1005B000682E82E0782EAA24BB241AC0B5016F5E93
:1005C0007D4F82E041E00E941614892D803109F4AC
:1005D0009924D3018D913D01F801E90DF11D80832E
:1005E0009394F801E90DF11D10820894A11CB11C2F
:1005F000A81420F382E061E172E040E40E945F12FF
:10060000AA24A394C9CF0E94E614C616D706E8060A
:10061000F90610F0AA20C1F10E945D1580FD07C007
:1006200080E060E00E94F90E84EF92E01FC00E941B
:100630005D1582FF07C080E060E00E94F90E83EE46
:1006400092E014C00E945D1581FD07C080E060E06B
:100650000E94F90E82ED92E009C080E060E00E9405
:10066000F90EC8010E94750E81EC92E00E94840E82
:100670000E94E6146B017C0184E690E0A0E0B0E00B
:10068000C80ED91EEA1EFB1E0E945D1583FF02C024
:1006900081E001C080E04FDF0E945D1584FF02C051
:1006A00081E001C080E054DF88E00E947B10882355
:1006B00009F471CF6196EEE00C944A16805D0C94BB
:1006C000F50DA7E0B0E0E7E6F3E00C943A16682FEA
:1006D000CE010196A0DEE981FA8180819F81892384
:1006E00011F081E301C080E30E94F50D2796E2E05E
:1006F0000C9456166F927F928F929F92AF92BF92F8
:10070000CF92DF92EF92FF920F931F930E94E61415
:100710009B01AC018091B701882301F18091BC015C
:100720009091BD01A091BE01B091BF01E090B801D0
:10073000F090B9010091BA011091BB018E199F0987
:10074000A00BB10B820F931FA41FB51F8093BC0198
:100750009093BD01A093BE01B093BF012093B80157
:100760003093B9014093BA015093BB0180E20E94DB
:100770007B108823D9F08091B6018823C9F481E0E9
:100780008093B6011092B7011092BC011092BD0186
:100790001092BE011092BF0180E990E00E941D0DF1
:1007A00080E20E946B100E94600E02C01092B6019F
:1007B00084E00E947B10882391F08091B50188230A
:1007C00081F481E08093B5019091B701911180E0AF
:1007D0008093B7018AE990E00E941D0D02C010923B
:1007E000B50180E060E00E94F90E6091BC0170915B
:1007F000BD018091BE019091BF0120E031E545E24D
:1008000052E00E94ED156AE0A62EB12CC12CD12C2D
:10081000CA01B901A60195010E94ED15862F4EDF90
:100820006091BC017091BD018091BE019091BF01AA
:1008300020E83EEE46E350E00E94ED15CA01B90102
:10084000A60195010E94ED15862F38DF8AE30E94EC
:10085000F50D6091BC017091BD018091BE01909138
:10086000BF0120EC37E249E050E00E94ED15CA01DB
:10087000B901A60195010E94ED15862F1FDF609139
:10088000BC017091BD018091BE019091BF0120E635
:100890003AEE40E050E00E94ED15CA01B901A60110
:1008A00095010E94ED15862F09DF8AE30E94F50D60
:1008B0006091BC017091BD018091BE019091BF011A
:1008C00028EEE22E23E0F22E012D112DA801970132
:1008D0000E94ED159CE3692E712C812C912CCA018C
:1008E000B901A40193010E94ED15A60195010E9492
:1008F000ED15822FE3DE6091BC017091BD01809106
:10090000BE019091BF01A80197010E94ED15CA0197
:10091000B901A40193010E94ED15A60195010E9461
:10092000ED15E62E862FCADE8EE20E94F50D60914F
:10093000BC017091BD018091BE019091BF0124E680
:1009400030E040E050E00E94ED15CA01B901A60177
:1009500095010E94ED15862FB1DE6091BC0170916A
:10096000BD018091BE019091BF01A60195010E9439
:10097000ED15CA01B901A60195010E94ED15862F5A
:100980009DDE8091B401E816A1F08091BC019091A8
:10099000BD01A091BE01B091BF010097A105B105B5
:1009A00041F00E94020D882321F48FE990E00E941B
:1009B0001D0DE092B4011F910F91FF90EF90DF9019
:1009C000CF90BF90AF909F908F907F906F90089541
:1009D0000F931F93CF93DF9380E011DD81E093E0CD
:1009E0000E94840E88E061E00E94F90EECD4BC0104
:1009F00080E090E00E94DA0E81E191E00E94750EA5
:100A00000E94E614062F1AC0DED4EC0168EC70E0F8
:100A10004AE0FDD5812F90E08F70907076E0D695FA
:100A2000C7957A95E1F78C179D0720F480E083DD68
:100A300081E003C081E07FDD80E08ADD0E94E61472
:100A4000162F101B17FFE0CFDF91CF911F910F9151
:100A50000895A7E0B0E0EFE2F5E00C943816682FB7
:100A60008E010F5F1F4FC801D6DCED81FE819081A2
:100A70008F81809589238083C80161E02ADD2796D4
:100A8000E4E00C945416809135018F5F809335011A
:100A90000895CF93DF93C4E6D3E0CE0160E00E94D7
:100AA000F30DCE01019661E00E94F30DCE01029696
:100AB00062E00E94F30DCE01049663E00E94F30D04
:100AC000CE01059664E00E94F30DCE01069665E026
:100AD0000E94F30D84E593E066E00E94F30D8CE53F
:100AE00093E067E00E94F30D0E94600EDF91CF91CA
:100AF0000895DF92EF92FF920F931F93D82E0E94DA
:100B0000E6147B018C01ED0CF11C011D111D88E028
:100B10000E947B10882349F40E94E6146E157F051D
:100B200080079107A0F380E001C081E01F910F9141
:100B3000FF90EF90DF9008958BE08BDF80E189DFFD
:100B400081E187DF80E085DF81E083DF82E081DF94
:100B500083E07FDF80E060E00E94F90E82E393E0B3
:100B60000E94840E80E061E00E94F90E81E293E031
:100B70000E94840E83E060E00E94F90E8BE0A1DD0C
:100B800089E060E00E94F90E80E19BDD8FE060E08B
:100B90000E94F90E81E195DD8CE061E00E94F90E82
:100BA00080E08FDD81E08DDD82E08BDD83E089DD1B
:100BB00088E29FDF8823F1F208958AEF9ACFCF93DE
:100BC000DF93C0E0D0E08091C001FE01E80FF11D8D
:100BD000E653FE4F84910E94F50D2196C031D10558
:100BE00091F78091C0018F5F8093C00190E04096A3
:100BF0008C34910510F01092C00104D7882319F4A9
:100C000088EA90E01AD7D9DFDF91CF91089585E186
:100C100091E005D789E191E00E94750E81E08BDCBF
:100C2000CCDF8823B1F487DCC8DF882391F48FE11F
:100C300091E0F5D680E060E00E94F90E84E291E058
:100C40000E94750E81E084DCB8DF882311F480DC1B
:100C5000B4CF0895B3D2BC0180E090E00E94DA0ED8
:100C60008AE291E00E94750EA8CFA8E0B0E0EBE325
:100C7000F6E00C943A16DE011196EAE5F1E098E010
:100C800001900D929150E1F7FE01E80FF11D818175
:100C9000ACD72896E2E00C94561680E20E947B10B6
:100CA0002091B0013091B1018823E9F0211531057F
:100CB00081F488EC90E00E94AF1480E20E947B10E7
:100CC000882339F481E09091C101911180E08093F3
:100CD000C1018091B0019091B1010A969093B10148
:100CE0008093B00106C0245130403093B10120936D
:100CF000B00184E00E947B102091AE013091AF01E1
:100D00008823E9F02115310581F488EC90E00E94F8
:100D1000AF1484E00E947B10882339F481E0909125
:100D2000C201911180E08093C2018091AE01909147
:100D3000AF010A969093AF018093AE0106C0245193
:100D400030403093AF012093AE018091AE0190917D
:100D5000AF0197FF04C01092AF011092AE018091D5
:100D6000AE019091AF018F3F910539F034F08FEFD4
:100D700090E09093AF018093AE018091B00190918B
:100D8000B10197FF04C01092B1011092B00180919F
:100D9000B0019091B1018F3F910539F034F08FEFA0
:100DA00090E09093B1018093B0018091B001909157
:100DB000B101B5E095958795BA95E1F756DF809139
:100DC000C101882319F08DE193E002C089E193E02D
:100DD0009BD78091B0019091B101A5E09595879541
:100DE000AA95E1F742DF85E060E00E94F90E80916C
:100DF000AE019091AF01F5E095958795FA95E1F7F1
:100E000034DF8091C201882319F085E193E002C0AC
:100E100081E193E079D78091AE019091AF01E5E057
:100E200095958795EA95E1F720DF4091AE015091C5
:100E3000AF018091C201882319F02FEF3FEF02C06C
:100E400021E030E0249FC001259F900D349F900D3C
:100E500011244091B0015091B1012091C101222390
:100E600019F02FEF3FEF02C021E030E0249FB001E6
:100E7000259F700D349F700D11240E941B1082E37A
:100E800090E00C94AF141F93182F84E00E947B1005
:100E9000882311F4812F4BD2812F49D215E09695EA
:100EA00087951A95E1F7E1DE1F9108950F931F933F
:100EB00082E00E94331581E0A2DA12B810E00FEF51
:100EC00081E046DB80E060E094D7112319F08DE2E9
:100ED00091E002C081E391E008D787E0D4DF86E0AB
:100EE000D2DF85E0D0DF84E0CEDF83E0CCDF82E0BC
:100EF000CADF81E0C8DF80E0C6DF80E8C4DF81E8C8
:100F0000C2DF82E8C0DF83E8BEDF84E8BCDF80E0C8
:100F10001FDB80E061E06DD783E493E0F5D680E2EB
:100F20000E947B10882369F081E0182780E990E017
:100F300084D5112311F002B901C012B880E20E94D9
:100F40006B1088E2D6DD882309F4BACF1F910F9188
:100F500008950F931F93CF93DF938C01EB01B0D6CD
:100F60000115110511F0C801CFD6209729F080E0B6
:100F700061E03FD7CE01C8D688EE93E00E94AF145F
:100F8000DF91CF911F910F9108951F938CE20E94E2
:100F90005910182F85FF03C080E990E007C083FF38
:100FA00003C085E990E002C08AE990E046D5812F30
:100FB0000E946B10812F1F9108951F9384EB92E084
:100FC00060E070E0C6DF7CD680E061E012D783EAA3
:100FD00092E09AD680E060E00CD7E091B301F0E0B7
:100FE000EE0FFF1FEA5CFE4F808191818DD68CE26F
:100FF0000E947B108823D9F78CE20E945910182F89
:1010000085FF0DC080E990E018D58091B301882359
:1010100011F488E001C081508093B301D4CF83FFE5
:101020003BC04ED685E990E008D5812F0E946B1019
:1010300014C080E061E0DDD68EE992E065D680E004
:1010400060E0D7D6E091B301F0E0EE0FFF1FE85B60
:10105000FE4F0190F081E02D099588E00E947B1001
:10106000882339F380E090E060E070E0E4D701D5B8
:101070001092AF011092AE011092B1011092B00126
:1010800080E059DA80E064DAB8D682E00E94651226
:1010900085E990E0D2D497CF82FF95CF8AE990E09E
:1010A000CCD48091B301883019F41092B3018BCF66
:1010B0008F5FB2CF14BC85E085BD81E080936E0068
:1010C000789408951F920F920FB60F9211242F93C8
:1010D0003F934F935F936F937F938F939F93AF93C0
:1010E000BF93EF93FF938091B2018F5F8093B20122
:1010F000813019F0833219F480E01DDA04C086349F
:1011000011F41092B201FF91EF91BF91AF919F91B5
:101110008F917F916F915F914F913F912F910F90A0
:101120000FBE0F901F90189510926E0080E003CABA
:10113000C1DF84E0D0D781E00BDAABDC8CE790E054
:101140007CD48DE892E06CE772E003DF8BE692E0FE
:1011500060E070E0FEDE8AE592E069E472E0F9DECC
:10116000AFD588E392E0D0D580E061E042D687E257
:1011700092E0CAD50ADF83FFFDCFD6DF80E0E8D951
:1011800086E890E05AD480E090E066E172E0E1DE2B
:1011900014DFFECF80917C0090E025E09595879547
:1011A0002A95E1F78170089580917A0090E036E009
:1011B000959587953A95E1F7817008950C943B15C4
:1011C0000895EF92FF920F931F93CF93DF93809137
:1011D000C301882309F453C0E090C401F090C50115
:1011E000D9DFC0916201D0916301970140E050E0E6
:1011F000882309F17E01F694E79400E010E0CA012B
:10120000B9012FEF30E040E050E00E94AE15E60E4D
:10121000F71E081F191F9E0140E050E0C801B701EA
:101220000E94ED15C901DA018F3F9105A105B105B5
:1012300021F118F130C07E01F694E79400E010E04F
:10124000CA01B9012FEF33E040E050E00E94AE1533
:10125000E60EF71E081F191F9E0140E050E0C8016E
:10126000B7010E94ED15C901DA01803020E0920734
:1012700021E0A20720E0B20788F49C0111C08ADFB8
:10128000882321F02091790030E00AC02091780075
:101290003091790005C02FEF30E002C02FEF3FEF13
:1012A000C901CDB7DEB7E6E00C945216803200F1EA
:1012B00091E09093C301803819F40E94351513C052
:1012C000813819F40E9441150EC0823819F40E9429
:1012D000471509C0833819F40E944D1504C084389D
:1012E000F9F40E9453159093C5018093C4010895A9
:1012F0001092C30197E890937A0090917C00292F77
:101300002064662311F0906C02C0922F9F77907E2C
:10131000982B90937C0080917A00806480937A006F
:10132000089560E0C3DF40DF8823E9F74ACFF9CFB3
:101330000895A0E0B0E0EFE9F9E00C9434166B01F9
:10134000803210F0EEDF36C060E0B0DF2DDF8823A2
:10135000E9F7E601EE24FF24870180917A0080649A
:1013600080937A0021DF8823E9F72BDFA0E0B0E04B
:10137000E80EF91E0A1F1B1F219779F7C6019695E3
:10138000879520E4C216D10440F48E0D9F1D6C2D6C
:1013900070E00E94D915CB010DC0BC0180E090E047
:1013A0006E0D7F1D801F911F960140E050E00E944E
:1013B000ED15C901CDB7DEB7E8E00C94501680E812
:1013C00064E170E0B6CFFBCF08959091CB01E0913E
:1013D000C701F091C801992311F0849101C0808167
:1013E000282F21542A3110F4805E0895803271F440
:1013F0002091C7013091C801A9014F5F5F4F509301
:10140000C8014093C7012115310509F70895EF92EE
:10141000FF92CF93DF93D9DFC0E0D0E01AC09E01E6
:10142000220F331F93E0CC0FDD1F9A95E1F7C20F17
:10143000D31F992787FD9095C80FD91FE0978091FA
:10144000C7019091C80101969093C8018093C7018C
:10145000BCDF982F90539A3010F3CE01DF91CF91DB
:10146000FF90EF90089510926F0083E280938000C8
:1014700081E1809381001092820080E197E2909355
:1014800089008093880010928B0010928A00549AF1
:10149000789408958091C601882321F481E0809397
:1014A000C601E1CF0895A0E0B0E0E9E5FAE00C94D0
:1014B00030168C015B01E42EEDDF1092640117FF02
:1014C00004C01F77AAE0FA2E02C0FF24F394C09054
:1014D0008100DD2428EFC222DD2488EC3F2D389FD7
:1014E000C001112480179107D8F4E80167E20131A7
:1014F000160710F0C0E1D7E2BE017695679580E04F
:1015000090E06058794687469F4F9E0140E050E04A
:101510000E94ED15890181E090E0C82AD92A2CC0EB
:1015200098E2F99E902D112480E0892EE4014E016D
:10153000982EE4018016910608F4E801BE01769524
:1015400067959E0140E050E08F2D8A3039F480E0AD
:1015500090E0605E734481449F4F06C080E090E05D
:1015600060537D4E8C4E9F4F0E94ED15890152E0D5
:10157000852E912CC828D9282F2D2A3039F4CE0158
:1015800005966AE070E00E94D915EB0133E0C83E91
:10159000D30779F0BE0180E090E0950140E050E093
:1015A0000E94AE1528EE33E040E050E00E940F1696
:1015B00001C0950110926F00C092810010938900C4
:1015C0000093880040918800509189006E2D603111
:1015D00008F06FE080E190E0861B9109BA0102C03B
:1015E000769567958A95E2F770938B0060938A00F1
:1015F0003093CE012093CD0186B38FEF86BB81E07F
:1016000080936F00CDB7DEB7ECE00C944C164BCF57
:1016100008959B018F3F11F0442329F488EE93E055
:10162000B90140E049C0813130F0582F5051503657
:1016300018F05FE501C050E0852F6CE00E94CD15E9
:10164000A82FB0E0E4EFFFEFAE9FB001AF9F700DA9
:10165000BE9F700D1124650F711D6C30710540F433
:10166000FB01EE0FFF1FE259FE4F6081718102C046
:1016700060E070E0873081F0082E02C0660F771FAF
:101680000A94E2F7823028F0CB0105966AE070E018
:101690000CC0605070480BC0CB01B6E0880F991F9A
:1016A000BA95E1F7029665E070E00E94D9154031E5
:1016B00008F04FE0CB01B901F6CEA0E0B0E0E3E6E0
:1016C000FBE00C942F16B09065018091C90188232E
:1016D00059F06091CA01662339F08FEF70E040E065
:1016E00098DF1092CA0129C1C0ECDDE5AA24A394B9
:1016F00014E0712E00ED17E0B4E0EB2EF12CA4EF16
:10170000CA2EA1E0DA2EFFE08F2E912C5EDE209112
:10171000C7013091C8012F5F3F4F3093C80120931C
:10172000C7018636F1F18736CCF4823609F4AAC0B7
:1017300083367CF48E3349F18F333CF4813209F4E3
:1017400082C08C3309F096C022C0813609F092C065
:1017500096C0843601F185360CF51BC08F3609F42E
:1017600045C0803744F48C3611F18D3659F18736F7
:1017700009F080C019C0843709F441C0863709F4E4
:101780005CC0823709F076C036C0B394BFCFBA943C
:10179000BDCFEE2432C0EE2482E076C0EE2484E099
:1017A00073C0EE2485E070C0EE2487E06DC02FDEAC
:1017B000BC019093670180936601809168019091CC
:1017C000690134C002DE8C3619F41092C90104C0DC
:1017D000A092C9011092CA018091C7019091C801DD
:1017E00001969093C8018093C70190CF10DEB82E68
:1017F000809365018BCFEE24E39480E045C007DE43
:10180000BC01CE010E94D915CB01880F991F53E06E
:10181000660F771F5A95E1F7860F971F909369011E
:101820008093680160916601709167010E94D915EB
:1018300070936B0160936A0169CFE9DD90936D014C
:1018400080936C0163CF70926501109369010093DE
:101850006801F0926701E0926601D0926B01C0923C
:101860006A0190926D0180926C011092C90144E06E
:10187000B42E4CCF1092C8011092C7015EC0EE2466
:1018800089E002C0EE248BE09CE0B99EB02C1124CC
:10189000B80E9BDD8B3211F08332B1F48091C70119
:1018A0009091C80101969093C8018093C701B394A9
:1018B000F0CF8091C7019091C80101969093C80123
:1018C0008093C701BA9481DD8D3299F3C0916A018A
:1018D000D0916B018153883050F4C0916801D09150
:1018E000690195DDBC01CE010E94D915EB018E0185
:1018F0000BC08091C7019091C80101969093C801D7
:101900008093C701C00FD11F169507955EDD8E32FB
:1019100081F38091C901882339F0CE01969587958E
:101920008093CA01C81BD109EE2011F0BB24BA94E0
:101930008B2DBE0140916C016CDECDB7DEB7EDE0C2
:101940000C944B161F920F920FB60F9211242F93E7
:101950003F934F935F936F937F938F939F93AF9337
:10196000BF93EF93FF938091CD019091CE019C01A5
:10197000215030403093CE012093CD01009709F5DE
:1019800010926F00789480918100887F81608093AD
:10199000810080E197E29093890080938800109203
:1019A0008B0010928A0081E0809364018091C701CE
:1019B0009091C801009729F08091CC01882309F407
:1019C0007CDEFF91EF91BF91AF919F918F917F91BD
:1019D0006F915F914F913F912F910F900FBE0F909C
:1019E0001F90189580916401882351F081E0209127
:1019F000C7013091C8012115310519F480E008951F
:101A000081E00895EFCF089510926F009093C80180
:101A10008093C7011092CB011092CA014ECEF4CF31
:101A2000089510926F009093C8018093C70181E0E0
:101A30008093CB011092CA0140CEF3CF089510924B
:101A40006F00E1E8F0E08081887F8160808380E141
:101A500097E2909389008093880010928B001092F7
:101A60008A0081E0809364011092C8011092C7013E
:101A70000895E5CF089581E090E06F9364E06A9562
:101A8000F1F76F910197C9F708950F931F93CF93C3
:101A9000DF9317B13D982898299AC0E0D0E0EBDF9A
:101AA0002A9AE9DF06B12A98E6DF2A9AE4DF2A9823
:101AB000249605FF10C09E0140E050E08091D301C4
:101AC0009091D401A091D501B091D6012817390782
:101AD0004A075B0720F39E0140E050E08091D3016C
:101AE0009091D401A091D501B091D6012817390762
:101AF0004A075B0728F082E390E0A0E0B0E004C072
:101B000080E395E7A0E0B0E08093D3019093D40107
:101B1000A093D501B093D60117B9DF91CF911F9152
:101B20000F91089528B190E08F709070880F991FE1
:101B3000880F991F237C282B28B92A9A9CDF2A9882
:101B40009ACFA2E0B0E0E7EAFDE00C943716182F38
:101B50004A83698381D099DFF7B008B129986981F8
:101B60004A81662311F0289A01C0289887B18C63B6
:101B700087B9413021F0812F82958F70D3DF812F7B
:101B80008F70D0DFF7B808B92296E5E00C945316B1
:101B900060E042E0D6CF61E042E0D3CFEF92FF9227
:101BA0001F93DF93CF930F92CDB7DEB7660F660F0B
:101BB000660F482F592F7A0110E0812F860F80641D
:101BC0006983E6DFF7018491E6DF1F5F0894E11C7B
:101BD000F11C6981183089F70F90CF91DF911F9127
:101BE000FF90EF900895DACF0895D5CF089560E083
:101BF00041E0A7CF3D98459A80E395E7A0E0B0E0AB
:101C00008093D3019093D401A093D501B093D601D2
:101C1000209A219A229A8EE190E0A1D683E0E7DF14
:101C200086E090E09CD683E0E2DF82E090E097D609
:101C300083E0DDDF82E090E092D682E0D8DF82E0D0
:101C400090E08DD688E2A4DF88E0A2DF81E0A0DF0B
:101C500086E09EDF8CE09CCF8091D701882321F421
:101C600081E08093D701C6CF089581E091DF809114
:101C7000CF019091D001009711F1A0E0B0E208C02F
:101C8000E091CF01F091D001E20FF31FB083AF5F7D
:101C90002A2F30E08091860190E0019760918701C2
:101CA00070E0869FA001879F500D969F500D1124D4
:101CB000241735072CF31092D2011092D101089508
:101CC000D4CF0895EF92FF92CF93DF93E82EE701F0
:101CD0007E01F92EE70101C05EDF89918823E1F7DB
:101CE000DF91CF91FF90EF900895ECCF0895CF93BF
:101CF000DF93EC0102C04FDF2196FE01849188231F
:101D0000D1F7DF91CF910895F2CF0895AAE0B0E026
:101D1000EBE8FEE0A7C79B01AC011AE06AE0C62E23
:101D2000D12CE12CF12C5E010894A11CB11C022FD6
:101D3000CA01B901A701960150D71150F501E10F71
:101D4000F11D005D922F990F892F880F880F890F41
:101D5000081B0083211531054105510541F707C0D6
:101D6000F601E10FF11D808116DF1F5F04C06E01D7
:101D70000894C11CD11C1A3098F32A96EAE08EC749
:101D8000EF92FF920F931F937B018C0197FF0AC084
:101D900010950095F094E094E11CF11C011D111DBB
:101DA0008DE2F9DEC801B701B1DF1F910F91FF90FD
:101DB000EF900895E5CF0895A5E0B0E0E1EEFEE0F4
:101DC00058C7182F80E8898380EC8A8384E98B8345
:101DD00084ED8C83FE01E60FF11D8181810F6D83FF
:101DE000D7DE1093D2016D816093D1012596E3E097
:101DF0005CC7E2CF08958CE0CBCEFDCF0895FC0107
:101E00001182108213821282158214821682683027
:101E100068F489E290E0918380838BE290E0938381
:101E200082838AE290E09583848323C0603180F4CA
:101E300083E290E09183808385E290E093838283C4
:101E400084E290E09583848370E06850704011C014
:101E50006831C0F486E290E09183808388E290E06C
:101E60009383828387E290E09583848370E060515E
:101E7000704081E090E002C0880F991F6A95E2F7F8
:101E8000868308956032C0F480E290E0918380837D
:101E900082E290E09383828381E290E09583848361
:101EA0002FE130E0261B310981E090E002C0880F6D
:101EB000991F2A95E2F786830895FC01A481B581D4
:101EC0008681662321F09C91982B9C9308959C9188
:101ED000809589238C930895FC016F3F31F4A28192
:101EE000B3818C91968189270CC0A281B3818681B0
:101EF000662321F09C91982B9C9308959C9180954A
:101F000089238C930895A7E0B0E0E8E8FFE0AFC62E
:101F1000282FF62E8E010F5F1F4FC801622F6FDF33
:101F2000C8016F2DD9DFC80161E0C7DF2796E5E062
:101F3000BAC683E08093B00082E08093B100E4EB06
:101F4000F0E0108280818093B30087E160E0DBDF06
:101F500086E160E0D8DF87E060E0D5DF86E060E022
:101F6000D2CF8091D801882321F481E08093D801D9
:101F7000E0CF0895CF93DF93EC01F3DFD7FF05C0E7
:101F8000D095C195DF4F91E001C090E0CF3FD105E2
:101F900019F014F0CFEFD0E0C093B300209731F4E4
:101FA0008091B0008F778093B0000DC08091B00019
:101FB00080688093B000992319F087E161E002C046
:101FC00087E160E0A0DFDF91CF910895CF93DF93A9
:101FD000EC01C7DFD7FF05C0D095C195DF4F91E079
:101FE00001C090E0CF3FD10519F014F0CFEFD0E061
:101FF000C093B400209731F48091B0008F7D80931E
:10200000B0000DC08091B00080628093B000992331
:1020100019F086E161E002C086E160E074DFDF91E3
:10202000CF910895CF93DF93EB01A4DFCE01CEDFF4
:10203000DF91CF910895F6CF089587B1837D87B959
:1020400088B18C6288B985E090E06F9364E06A950E
:10205000F1F76F910197C9F708958091D90188230D
:1020600021F481E08093D901E8CF08951F93CF93A5
:10207000DF93182FF2DFC12FD0E026B130E020959A
:1020800030952C233D2321153105B9F38AE090E0EA
:1020900066D426B130E0209530952C233D232115C0
:1020A000310559F386B180958123DF91CF911F913E
:1020B0000895DCCF08951F93182FCFDF86B18123B9
:1020C000E9F38AE090E04BD486B18123B9F386B17D
:1020D00081231F910895EFCF0895A1E0B0E0E2E7DA
:1020E000F0E1C8C58983B9DF96B1909589818923CC
:1020F0002196E2E0DBC5F1CF0895282F30E0F90109
:10210000EE0FFF1F43E0220F331F4A95E1F7E20F66
:10211000F31FE857FE4F82810895282F30E0F90120
:10212000EE0FFF1FB3E0220F331FBA95E1F7E20F66
:10213000F31FE857FE4F408551854115510509F4BD
:1021400052C0282F30E0F901EE0FFF1F73E0220F7D
:10215000331F7A95E1F7E20FF31FE857FE4F7281C4
:10216000282F30E0F901EE0FFF1FB3E0220F331FDD
:10217000BA95E1F7E20FF31FE857FE4F9481791704
:1021800090F5282F30E0F901EE0FFF1F73E0220FCA
:10219000331F7A95E1F7E20FF31FE857FE4F928164
:1021A000490F511DFA016083282F30E0F901EE0F2D
:1021B000FF1F53E0220F331F5A95E1F7E20FF31F81
:1021C000E857FE4F92819F5F282F30E0F901EE0F14
:1021D000FF1FB3E0220F331FBA95E1F7E20FF31FA1
:1021E000E857FE4F9283282F30E0F901EE0FFF1FD2
:1021F00073E0220F331F7A95E1F7E20FF31FE857E0
:10220000FE4F4281282F30E0F901EE0FFF1F53E00F
:10221000220F331F5A95E1F7E20FF31FE857FE4FE5
:102220009481491701F5282F30E0F901EE0FFF1FC7
:1022300093E0220F331F9A95E1F7E20FF31FE8575F
:10224000FE4F9581992379F0282F30E0F901EE0FA8
:10225000FF1FB3E0220F331FBA95E1F7E20FF31F20
:10226000E857FE4F128208950F931F93182F823064
:1022700009F474C0882319F4E1ECF0E002C0E9EC41
:10228000F0E080818F778083812F90E0FC01EE0F5A
:10229000FF1F03E0880F991F0A95E1F7E80FF91F68
:1022A000E857FE4F808591850097A1F1212F30E0FE
:1022B000F901EE0FFF1FA3E0220F331FAA95E1F7EC
:1022C000E20FF31FE857FE4F9281212F30E0F90112
:1022D000EE0FFF1F63E0220F331F6A95E1F7E20F55
:1022E000F31FE857FE4F84819817A0F4112319F4C7
:1022F000E0ECF0E002C0E8ECF0E0808187FF0AC08B
:10230000112319F4E6ECF0E002C0EEECF0E060819D
:10231000812F03DF212F30E0F901EE0FFF1F43E093
:10232000220F331F4A95E1F7E20FF31FE857FE4FE4
:102330008081882309F057C0112319F4E1ECF0E003
:1023400002C0E9ECF0E08081806880834CC080911D
:10235000A101882319F010929E0145C08091A4012B
:102360009091A501009709F43EC090919E01809143
:10237000A0019817C0F58091E601882399F454D301
:102380008093E60110E00AC023D3E02FF0E03197FC
:10239000E11BF109E951FE4F80831F5F0091E601C7
:1023A000101790F3A091E601AA23E9F080919E0115
:1023B000E091A401F091A501E80FF11DA150A093B7
:1023C000E601B0E0A951BE4F8C91808380919E01BF
:1023D0008F5F80939E0190919E018091A00198173C
:1023E00009F0BCCFB4CF1F910F910895823051F006
:1023F000882319F4E1ECF0E002C0E9ECF0E0908110
:102400009F779083A82FB0E0FD01EE0FFF1F53E0F0
:10241000AA0FBB1F5A95E1F7EA0FFB1FE857FE4FC3
:1024200071876087682F70E0FB01EE0FFF1F93E05C
:10243000660F771F9A95E1F7E60FF71FE857FE4FF3
:102440001282682F70E0FB01EE0FFF1FA3E0660F02
:10245000771FAA95E1F7E60FF71FE857FE4F448371
:10246000482F50E0FA01EE0FFF1F63E0440F551FA5
:102470006A95E1F7E40FF51FE857FE4F2583823098
:10248000D9F0282F30E0F901EE0FFF1F43E0220FB3
:10249000331F4A95E1F7E20FF31FE857FE4F908193
:1024A000992351F4882319F4E1ECF0E002C0E9EC3F
:1024B000F0E0808180688083089520E097CFFDCF91
:1024C000089560E070E040E0F8CFFBCF08951F92E0
:1024D0000F920FB60F9211242F933F934F935F9358
:1024E0006F937F938F939F93AF93BF93EF93FF93DC
:1024F0006091C60080E011DEFF91EF91BF91AF9136
:102500009F918F917F916F915F914F913F912F910B
:102510000F900FBE0F901F9018951F920F920FB63D
:102520000F9211242F933F934F935F936F937F9359
:102530008F939F93AF93BF93EF93FF936091CE00E0
:1025400081E0EBDDFF91EF91BF91AF919F918F9172
:102550007F916F915F914F913F912F910F900FBE9F
:102560000F901F901895882319F4E1ECF0E002C059
:10257000E9ECF0E08081806280830895882319F47B
:10258000E1ECF0E002C0E9ECF0E080818F7D808337
:102590000895282F30E0F901EE0FFF1F93E0220F7E
:1025A000331F9A95E1F7E20FF31FE857FE4F26819C
:1025B00037812115310591F1282F30E0F901EE0F17
:1025C000FF1FA3E0220F331FAA95E1F7E20FF31FCD
:1025D000E857FE4F4181282F30E0F901EE0FFF1F31
:1025E00063E0220F331F6A95E1F7E20FF31FE8570C
:1025F000FE4F9381491790F4282F30E0F901EE0F38
:10260000FF1F43E0220F331F4A95E1F7E20FF31F4C
:10261000E857FE4F9081992309F4A5CFAFCF282F1B
:1026200030E0F901EE0FFF1F73E0220F331F7A95A0
:10263000E1F7E20FF31FE857FE4F4681578141153E
:10264000510509F465C0282F30E0F901EE0FFF1F96
:1026500093E0220F331F9A95E1F7E20FF31FE8573B
:10266000FE4F6181282F30E0F901EE0FFF1FA3E03C
:10267000220F331FAA95E1F7E20FF31FE857FE4F31
:102680009381691708F044C0882319F4E0ECF0E066
:1026900002C0E8ECF0E0908195FF3AC0882319F47D
:1026A000A6ECB0E002C0AEECB0E0282F30E0F901BB
:1026B000EE0FFF1F63E0220F331F6A95E1F7E20F71
:1026C000F31FE857FE4F9181490F511DFA01908188
:1026D0009C93282F30E0F901EE0FFF1F93E0220FAB
:1026E000331F9A95E1F7E20FF31FE857FE4F9181F0
:1026F0009F5F282F30E0F901EE0FFF1FA3E0220FAC
:10270000331FAA95E1F7E20FF31FE857FE4F9183BD
:1027100040CF1F93182F823021F030DF812F7FDFD1
:102720001CC08091A2019091A3010097B1F030915B
:102730009D0120919F01321780F406C080919D0178
:102740008F5F80939D01EDCF20919D01820F911DA0
:10275000FC0180816DD1882389F71F91089580E065
:10276000D8DF81E0D6DF82E0D4DF80E07DDD81E06C
:102770007BDD82E079CDF3CF0895282F30E0F90199
:10278000EE0FFF1F93E0220F331F9A95E1F7E20F40
:10279000F31FE857FE4F77836683282F30E0F90157
:1027A000EE0FFF1FA3E0220F331FAA95E1F7E20F00
:1027B000F31FE857FE4F1182282F30E0F901EE0F8A
:1027C000FF1F63E0220F331F6A95E1F7E20FF31F4B
:1027D000E857FE4F4383823009F0DBCE08951F9304
:1027E000182FCBDF01C0BBDF212F30E0F901EE0F46
:1027F000FF1FA3E0220F331FAA95E1F7E20FF31F9B
:10280000E857FE4F9181212F30E0F901EE0FFF1FB5
:1028100063E0220F331F6A95E1F7E20FF31FE857D9
:10282000FE4F83819817F9F61F910895D8CF089528
:102830001F920F920FB60F9211242F933F934F9335
:102840005F936F937F938F939F93AF93BF93EF9318
:10285000FF9380E0E4DEFF91EF91BF91AF919F91F4
:102860008F917F916F915F914F913F912F910F9039
:102870000FBE0F901F9018951F920F920FB60F92D8
:1028800011242F933F934F935F936F937F938F9375
:102890009F93AF93BF93EF93FF9381E0C0DEFF91CF
:1028A000EF91BF91AF919F918F917F916F915F91C8
:1028B0004F913F912F910F900FBE0F901F90189541
:1028C0006F9364E06A95F1F76F910197C9F70895E6
:1028D0002F928F939F932FB68091F0019091F101E9
:1028E00001968093F0019093F10190E08091F201C4
:1028F000891F8093F2019091F8019C5F9093F801F9
:102900008091F70180519742C0F09093F801809335
:10291000F7018091F3019091F40101968093F30106
:102920009093F40190E08091F501891F8093F50167
:102930008091F601891F8093F6012FBE9F918F91A0
:102940002F901895CF93DF93EC0104C088EE93E0AD
:10295000B7DF21972097D1F7DF91CF910895F2CF7C
:102960000895E0E7F0E080818E7F8083A0EBB0E007
:102970008C9183608C93A1EBB0E08C91807F8C93E1
:102980008C9182608C93B89A8081816080837894E6
:1029900008958091F901882321F481E08093F90161
:1029A000E0CF0895F6DFE0E7F0E080818E7F80835E
:1029B0002091F3013091F4014091F5015091F6011D
:1029C000808181608083B901CA010895EBCF0895A9
:1029D0008FEF64E0A0C0CF93DF93E4DF9B01AC01F5
:1029E0008091AA019091AB01A091AC01B091AD0191
:1029F000281739074A075B07A1F081E867E08BD009
:102A0000C3E0D2E0E5DF899382E0C031D807D1F797
:102A1000C9DF6093AA017093AB018093AC019093DE
:102A2000AD01DF91CF91089583E867E074D0D0CFF6
:102A30001F93182F982F9095991F9927991F85E814
:102A4000891B65E068D0812F8F7765E064D01F9186
:102A5000089590911002981729F080931002806CCD
:102A600065E059C00895F5CF0895B5DF80910C0257
:102A700090910D020895AFDF80910E0290910F02A8
:102A80000895A9DF80910402909105020895A3DFC3
:102A9000809106029091070208959DDF80910802BF
:102AA00090910902089597DF80910A0290910B029C
:102AB000089591DF809103020895FBCF08956F93ED
:102AC00064E06A95F1F76F910197C9F70895A1E065
:102AD000B0E0ECE6F5E1CDC0182F249908C02C99A0
:102AE00006C02C9A8EE190E06983E9DF698184B1A8
:102AF000806A84B92698812F837080656C7A862BD2
:102B00008CBD81E012FF80E08DBD81E090E01ADF96
:102B10002196E3E0CAC00F931F93082F162F0CB421
:102B200006FC03C080E064E0D2DF0CB404FC03C008
:102B30008CB580618CBD0EBD03C00CB404FE0AC010
:102B40000DB407FEFACF112319F0812F90E0B7DF03
:102B50008EB501C080E01F910F910895629FD00152
:102B6000739FF001829FE00DF11D649FE00DF11D48
:102B7000929FF00D839FF00D749FF00D659FF00DF7
:102B80009927729FB00DE11DF91F639FB00DE11DE4
:102B9000F91FBD01CF0111240895991B79E004C0EC
:102BA000991F961708F0961B881F7A95C9F780958C
:102BB0000895AA1BBB1B51E107C0AA1FBB1FA61784
:102BC000B70710F0A61BB70B881F991F5A95A9F7D6
:102BD00080959095BC01CD010895A1E21A2EAA1B03
:102BE000BB1BFD010DC0AA1FBB1FEE1FFF1FA217BD
:102BF000B307E407F50720F0A21BB30BE40BF50BBA
:102C0000661F771F881F991F1A9469F76095709542
:102C1000809590959B01AC01BD01CF01089597FB74
:102C2000092E05260ED057FD04D0D7DF0AD0001C90
:102C300038F450954095309521953F4F4F4F5F4F59
:102C40000895F6F790958095709561957F4F8F4F19
:102C50009F4F08952F923F924F925F926F927F9273
:102C60008F929F92AF92BF92CF92DF92EF92FF929C
:102C70000F931F93CF93DF93CDB7DEB7CA1BDB0B48
:102C80000FB6F894DEBF0FBECDBF09942A883988ED
:102C900048885F846E847D848C849B84AA84B984F4
:102CA000C884DF80EE80FD800C811B81AA81B98100
:102CB000CE0FD11D0FB6F894DEBF0FBECDBFED0114
:062CC0000895F894FFCF17
:102CC6005479706520696E20746F20434F4D2E0035
:102CD6000020202000633332005265642020003E2D
:102CE60063333200477265656E006D5600A5542049
:102CF60000A5742000017203800390039F03A403C0
:102D0600AB03B103B903BF0356072A069C050706A2
:102D16004D06DF05E8047A03AB0220000102030436
:102D260005FF881301040400D007F4010F009C017D
:102D3600B501CF01EA0107022602470269028E02A7
:102D4600B502DE020A0302100000000000000000C7
:102D5600000000000000000000000000010000006C
:0E2D6600000000000000FFFFFFFFFFFFFFFF67
:00000001FF
