:1000000033C0000044C0000042C0000040C00000F7
:100010003EC000003CC000003AC0000038C00000F4
:1000200036C0000034C0000032C0000030C0000004
:100030002EC000002CC000002AC0000028C0000014
:1000400026C0000024C0000022C0000020C0000024
:100050001EC000001CC000001AC0000018C0000034
:1000600016C0000014C0000011241FBECFEFD8E05E
:10007000DEBFCDBF11E0A0E0B1E0ECEBF1E002C0EB
:1000800005900D92A230B107D9F73FD095C0B8CFF7
:10009000FC016F3F31F4A281B3818C919681892755
:1000A0000CC0A281B3818681662321F09C91982B9C
:1000B0009C9308959C91809589238C930895A7E043
:1000C000B0E0E4E6F0E051C0682F29E230E03A8386
:1000D00029832BE230E03C832B832AE230E03E830D
:1000E0002D8382E08F83CE010196D2DFED81FE81E8
:1000F00080819F81892B80832796E2E052C0809186
:1001000000018F5F809300010895A7E0B0E0EAE866
:10011000F0E02BC086E290E09A83898388E290E049
:100120009C838B8387E290E09E838D8382E08F8324
:100130003998CE01019661E0ABDF86B181FF02C044
:1001400081E001C080E0BBDFF8CF2F923F924F9259
:100150005F926F927F928F929F92AF92BF92CF9257
:10016000DF92EF92FF920F931F93CF93DF93CDB760
:10017000DEB7CA1BDB0B0FB6F894DEBF0FBECDBFD8
:1001800009942A88398848885F846E847D848C84A9
:100190009B84AA84B984C884DF80EE80FD800C81B2
:1001A0001B81AA81B981CE0FD11D0FB6F894DEBF95
:0C01B0000FBECDBFED010895F894FFCF05
:0201BC00010040
:00000001FF
