:1000000019C033C032C031C030C02FC02EC02DC087
:100010002CC099C02AC029C028C027C026C025C02E
:1000200024C023C022C021C020C01FC01EC01DC0CC
:100030001CC01BC011241FBECFEFD2E0DEBFCDBF5E
:1000400011E0A0E0B1E0ECEDF1E002C005900D920E
:10005000A230B107D9F711E0A2E0B1E001C01D92D2
:10006000AD30B107E1F74ED0B7C0CACF883060F4E9
:1000700021E030E002C0220F331F8A95E2F7AAE2A6
:10008000B0E0EBE2F0E025C08E3070F490E008972D
:1000900021E030E002C0220F331F8A95E2F7A4E28C
:1000A000B0E0E5E2F0E015C0853170F490E00E9725
:1000B00021E030E002C0220F331F8A95E2F7A7E269
:1000C000B0E0E8E2F0E005C020E0A0E0B0E0E0E071
:1000D000F0E06F3F19F48081822709C0662319F090
:1000E0008081822B04C09081822F80958923808318
:1000F0008C91822B8C930895809100018F5F809367
:100100000001089581E061E0B1DF88EE93E062D004
:1001100081E060E0ABDF88EE93E05CD087E061E0F7
:10012000A5DF84EF91E056D087E060E09FDF84EFA9
:1001300091E050D0E7CF6F9364E06A95F1F76F914B
:100140000197C9F708952F928F939F932FB68091AF
:10015000030190910401019680930301909304019F
:1001600090E080910501891F8093050190910B011A
:100170009C5F90930B0180910A0180519742C0F0DF
:1001800090930B0180930A018091060190910701E1
:100190000196809306019093070190E080910801F9
:1001A000891F8093080180910901891F80930901AB
:1001B0002FBE9F918F912F901895CF93DF93EC01D5
:1001C00004C088EE93E0B7DF21972097D1F7DF9145
:0C01D000CF910895F2CF0895F894FFCF6E
:0201DC00010020
:00000001FF
