:10000000CEC00000E7C00000E5C00000E3C0000073
:10001000E1C00000DFC00000DDC00000DBC0000068
:10002000D9C00000D7C00000D5C00000A5C40000A2
:10003000D1C00000CFC00000CDC0000004C300004C
:10004000C9C00000C7C00000C5C00000C3C0000098
:10005000C1C00000BFC00000BDC00000BBC00000A8
:10006000B9C00000B7C00000B5C00000B3C00000B8
:10007000B1C00000AFC00000ADC000004F3620543A
:100080003430204C31362064233C623C66233C648F
:10009000233C66233C626423662354383020632368
:1000A0003C622D3C66233C63233C66233C622D630B
:1000B000233854313830206423623C66236423663D
:1000C000233E62642366236323622D3C66236323FD
:1000D00066233E622D63233820633E63233C632303
:1000E0003E63233C623E63233C63233E6323633EC3
:1000F00063233C63233E63233C623E63233C6323D0
:100100003E6323633E63233C63233E63233C622DB3
:100110003E63233C63233E6323633E63233C6323AC
:100120003E63233C622D3E63233C63233E63236393
:100130003E63233C63233E6323663E63233C632389
:100140003E6323633E63233C63233E6323663E6337
:10015000233C63233E6323633E63233C63233E636C
:100160002366233E63233C63233E6323633E632372
:100170003C63233E632366233E63233C63233E6349
:1001800023642362622D62642362662364236323F3
:10019000622D61622D6323622D6623642300112486
:1001A0001FBECFEFD0E1DEBFCDBF11E0A0E0B1E0D8
:1001B000E8E6FCE002C005900D92AA32B107D9F73B
:1001C00011E0AAE2B1E001C01D92A734B107E1F746
:1001D00015D048C515CF8F3F21F488B1805888B914
:1001E00005C0882311F0479A01C047983F9A0895A7
:1001F00080911E018F5F80931E0108951F93CF93FE
:10020000DF9314BC84E085BD8CE790E078D280E079
:1002100093D280E060E0A6D380E091E02ED3C8E0E6
:10022000D0E081E0D8DF84EF91E0EDD380E0D3DF50
:1002300084EF91E0E8D32197A1F780E060E092D3CA
:1002400087E091E01AD380E061E08CD38EE091E00A
:1002500014D381E071D2C0E4DFE110E016BC86B5B2
:100260008431E8F386B5181708F416B567D22197DC
:10027000A9F780E061E076D387E191E0FED2612FBB
:1002800070E080E090E04FD38CE191E0F6D2BFCFF8
:1002900090912F01E0912B01F0912C01992311F005
:1002A000849101C08081282F21542A3110F4805E6E
:1002B0000895803271F420912B0130912C01A90115
:1002C0004F5F5F4F50932C0140932B012115310557
:1002D00009F70895EF92FF92CF93DF93D9DFC0E043
:1002E000D0E01AC09E01220F331F93E0CC0FDD1F18
:1002F0009A95E1F7C20FD31F992787FD9095C80FF4
:10030000D91FE09780912B0190912C010196909339
:100310002C0180932B01BCDF982F90539A3010F35F
:10032000CE01DF91CF91FF90EF90089510926F0072
:1003300083E08093800081E18093810010928200AD
:1003400080E197E2909389008093880010928B005F
:1003500010928A007894089580912A01882321F4CC
:1003600081E080932A01E2CF0895CF92DF92FF923D
:100370000F931F93DF93CF930F92CDB7DEB7F82E75
:100380006B014983E9DF10921F010FE610E0F801CD
:100390001082898160E090D38F2DB6016DD3D09209
:1003A0003201C092310186B38FEF86BB81E0F80144
:1003B000808378940F90CF91DF911F910F91FF90E0
:1003C000DF90CF900895A0E0B0E0E8EEF1E018C42F
:1003D000B090200180912D01882359F060912E0169
:1003E000662339F08FEF70E040E0BFDF10922E01FE
:1003F00026C1C0ECDDE5AA24A39424E0722E00ED12
:1004000017E094E0E92EF12C84EFC82E81E0D82E7D
:10041000BFE08B2E912C3CDF20912B0130912C01E1
:100420002F5F3F4F30932C0120932B018636F1F143
:100430008736CCF4823609F4A8C083367CF48E3338
:1004400049F18F333CF4813209F480C08C3309F0D8
:1004500094C022C0813609F090C094C0843601F166
:1004600085360CF51BC08F3609F445C0803744F43F
:100470008C3611F18D3659F1873609F07EC019C0DE
:10048000843709F441C0863709F45AC0823709F02D
:1004900074C036C0B394BFCFBA94BDCFEE2432C07F
:1004A000EE2482E074C0EE2484E071C0EE2485E086
:1004B0006EC0EE2487E06BC00DDFBC01909322017B
:1004C00080932101809123019091240133C0E0DECB
:1004D0008C3619F410922D0104C0A0922D011092B7
:1004E0002E0180912B0190912C01019690932C016B
:1004F00080932B0190CFEEDEB82E809320018BCF1E
:10050000EE24E39480E043C0E5DEBC01CE013DD3A0
:10051000CB01880F991FF3E0660F771FFA95E1F77B
:10052000860F971F909324018093230160912101EE
:10053000709122012AD370932601609325016BCF1D
:10054000C9DE909328018093270165CF7092200126
:100550001093240100932301F0922201E0922101E3
:10056000D0922601C0922501909228018092270105
:1005700010922D01E4E0BE2E4ECF10922C0110926D
:100580002B015DC0EE2489E002C0EE248BE09CE0EC
:10059000B99EB02C1124B80E7BDE8B3211F0833261
:1005A000B1F480912B0190912C01019690932C0134
:1005B00080932B01B394F0CF80912B0190912C016B
:1005C000019690932C0180932B01BA9461DE8D32B9
:1005D00099F3C0912501D09126018153883048F4C8
:1005E000C0912301D091240175DEBC01CE01CDD292
:1005F000EB018E010BC080912B0190912C01019693
:1006000090932C0180932B01C00FD11F1695079555
:100610003FDE8E3281F380912D01882339F0CE01A7
:100620009695879580932E01C81BD109EE2011F075
:10063000BB24BA948B2DBE014091270196DECDB725
:10064000DEB7EDE0F9C21F920F920FB60F921124A0
:100650002F933F934F935F936F937F938F939F93CA
:10066000AF93BF93EF93FF9380913101909132014B
:100670009C0121503040309332012093310100978A
:1006800009F510926F00789480918100887F8160D5
:100690008093810080E197E29093890080938800A5
:1006A00010928B0010928A0081E080931F0180914C
:1006B0002B0190912C01009729F080913001882323
:1006C00009F481DEFF91EF91BF91AF919F918F91DE
:1006D0007F916F915F914F913F912F910F900FBE3E
:1006E0000F901F90189510926F0090932C0180939B
:1006F0002B0181E080932F0110922E0164CEF3CF65
:10070000089580911F01882339F080912B019091E9
:100710002C01009709F057DE81E020912B013091E8
:100720002C012115310509F480E0089580933001F2
:10073000882309F4E6CF0895F9CF0895E2CF08950C
:1007400081E090E06F9364E06A95F1F76F91019713
:10075000C9F708951F93CF93DF9317B13F98289857
:10076000299AC0E0D0E0ECDF2B9AEADF86B12B9823
:1007700087FF11C022969E0140E050E08091370132
:1007800090913801A0913901B0913A0128173907A9
:100790004A075B0740F317B9DF91CF911F91089586
:1007A00088B92B9ACDDF2B98CBCFA2E0B0E0EAED51
:1007B000F3E02FC26A83898341D0CCDF07B118B13F
:1007C00029986A818981662311F0289A01C02898A6
:1007D0009FEF97B9E5DF07B918B92296E4E035C273
:1007E00060E042E0E2CF80E197E2A0E0B0E08093F9
:1007F000370190933801A0933901B0933A01209AC0
:10080000219A239A8EE190E0FED080E3E9DF86E032
:1008100090E0F9D080E3E4DF82E090E0F4D080E380
:10082000DFDF82E090E0EFD088E3DADF88E0D8DF36
:1008300081E0D6DF86E0D4DF8CE0D2CF80913B012F
:10084000882321F481E080933B01CDCF089561E0BE
:1008500042E0ABCFEF92FF92CF93DF93E82EE70118
:100860007E01F92EE70101C0F2DF89918823E1F7CB
:10087000DF91CF91FF90EF900895ECCF0895AAE01B
:10088000B0E0E4E4F4E0BFC19B01AC011AE08AE00F
:10089000C82ED12CE12CF12C5E010894A11CB11CB6
:1008A000022FCA01B901A701960183D11150F501A8
:1008B000E10FF11D005D922F990F892F880F880F8E
:1008C000890F081B0083211531054105510541F7AA
:1008D00007C0F601E10FF11D8081B9DF1F5F04C081
:1008E0006E010894C11CD11C1A3098F32A96EAE0D4
:1008F000A6C1EF92FF920F931F937B018C0197FF8C
:100900000AC010950095F094E094E11CF11C011DC3
:10091000111D8DE29CDFC801B701B1DF1F910F915E
:10092000FF90EF900895E5CF0895A5E0B0E0EAE9E3
:10093000F4E070C1182F80E8898380EC8A8384E911
:100940008B8384ED8C83FE01E60FF11D8181810F85
:100950006D8346DF109336016D81609335012596D6
:10096000E3E074C1E2CF08956F9364E06A95F1F714
:100970006F910197C9F708952F928F939F932FB688
:1009800080913D0190913E01019680933D019093AD
:100990003E0190E080913F01891F80933F0190913B
:1009A00045019C5F9093450180914401805197429D
:1009B000C0F0909345018093440180914001909153
:1009C00041010196809340019093410190E0809114
:1009D0004201891F8093420180914301891F8093C6
:1009E00043012FBE9F918F912F901895CF93DF9346
:1009F000EC0104C088EE93E0B7DF21972097D1F790
:100A0000DF91CF910895F2CF08958EEF63E098D0F3
:100A100080E0B9C0FADF8823E9F708951F93CF93E8
:100A2000DF93EC01162F22E08030920708F5F2DF09
:100A30009E012078307056E0369527955A95E1F75B
:100A4000AE0140705170822F852B806F212F30E0D6
:100A50002078307045E0359527954A95E1F7822B4F
:100A600092D09E012F77822F8ED0812F8F778BD0BF
:100A7000DF91CF911F910895A2E0B0E0E1E4F5E0AD
:100A8000C7C0182F062F7A836983FA8067FD02C0DA
:100A900088E901C08CE9F7FC826017FD816073D0A2
:100AA000812F8F7770D08F2D8F776DD0802F8F779C
:100AB0006AD02296E5E0C8C0A1E0B0E0E1E6F5E04A
:100AC000A9C0182F803108F01FE082EE69835BD047
:100AD000812F59D06981662321F081E190E0612F57
:100AE0009DDF2196E3E0B2C06F9364E06A95F1F771
:100AF0006F910197C9F70895A1E0B0E0E1E8F5E052
:100B000089C0182F249908C02C9906C02C9A8EE110
:100B100090E06983E9DF698184B1806A84B92698AD
:100B2000812F837080656C7A862B8CBD81E012FFEB
:100B300080E08DBD81E090E059DF2196E3E086C042
:100B40000F931F93082F162F0CB406FC03C085E0EB
:100B500060E0D2DF0CB404FC03C08CB580618CBDB6
:100B60000EBD03C00CB404FE0AC00DB407FEFACFDC
:100B7000112319F0812F90E0B7DF8EB501C080E01E
:100B80001F910F91089560E0DBCFAA1BBB1B51E1C1
:100B900007C0AA1FBB1FA617B70710F0A61BB70BED
:100BA000881F991F5A95A9F780959095BC01CD0192
:100BB0000895A1E21A2EAA1BBB1BFD010DC0AA1F9E
:100BC000BB1FEE1FFF1FA217B307E407F50720F0B6
:100BD000A21BB30BE40BF50B661F771F881F991F31
:100BE0001A9469F760957095809590959B01AC017A
:100BF000BD01CF0108952F923F924F925F926F9265
:100C00007F928F929F92AF92BF92CF92DF92EF929C
:100C1000FF920F931F93CF93DF93CDB7DEB7CA1B1D
:100C2000DB0B0FB6F894DEBF0FBECDBF09942A8848
:100C3000398848885F846E847D848C849B84AA84F0
:100C4000B984C884DF80EE80FD800C811B81AA817D
:100C5000B981CE0FD11D0FB6F894DEBF0FBECDBF48
:080C6000ED010895F894FFCFA7
:100C6800626C696E6B210074696D696E6700202083
:100C7800202020202020006D61783D002000010107
:0A0C8800040400D007F4010F00007F
:00000001FF
