:100000003DC0000056C0000054C0000052C00000B7
:1000100050C000004EC000004CC000004AC00000AC
:1000200048C0000046C0000044C000004DC40000AD
:1000300040C000003EC000003CC0000061C20000A3
:1000400038C0000036C0000034C0000032C00000DC
:1000500030C000002EC000002CC000002AC00000EC
:1000600028C0000026C0000024C0000022C00000FC
:1000700020C000001EC000001CC0000011241FBED4
:10008000CFEFD0E1DEBFCDBF12E0A0E0B1E0ECEBFE
:10009000FBE002C005900D92A233B107D9F712E040
:1000A000A2E3B2E001C01D92AD35B107E1F708D07F
:1000B00083C5A6CF809127028F5F80932702089582
:1000C0001F9310925C0280E091E037D31FE580918E
:1000D0005C028F3548F576D2882331F5E0915C02D9
:1000E000F0E0DF01A65FBE4FEE0FFF1FE759FE4FA6
:1000F000608171818C914FE053D280E061E092D3B6
:10010000E0915C02F0E0E65FFE4F60816F3F21F01E
:1001100070E080E090E067D387E091E00ED38091BB
:100120005C028F5F80935C0280E494D3882379F231
:1001300065D280915C028F3518F410935C0202C086
:1001400010925C0280E4B6D3C2CF90913702E09166
:100150003302F0913402992311F0849101C080811F
:10016000282F21542A3110F4805E0895803271F4D2
:100170002091330230913402A9014F5F5F4F5093B9
:100180003402409333022115310509F70895EF92A7
:10019000FF92CF93DF93D9DFC0E0D0E01AC09E0179
:1001A000220F331F93E0CC0FDD1F9A95E1F7C20FAA
:1001B000D31F992787FD9095C80FD91FE09780918D
:1001C000330290913402019690933402809333026B
:1001D000BCDF982F90539A3010F3CE01DF91CF916E
:1001E000FF90EF90089510926F0083E0809380005D
:1001F00081E1809381001092820080E197E29093E8
:1002000089008093880010928B0010928A00789465
:10021000089580913202882321F481E08093320294
:10022000E2CF0895CF92DF92FF920F931F93DF9357
:10023000CF930F92CDB7DEB7F82E6B014983E9DF7C
:10024000109228020FE610E0F8011082898160E028
:10025000DDD38F2DB601BAD3D0923A02C0923902C3
:1002600086B38FEF86BB81E0F801808378940F908E
:10027000CF91DF911F910F91FF90DF90CF90089564
:10028000A0E0B0E0E5E4F1E065C4B090290280911F
:100290003502882359F060913602662339F08FEFDA
:1002A00070E040E0BFDF1092360226C1C0ECDDE511
:1002B000AA24A39424E0722E00ED17E094E0E92E26
:1002C000F12C84EFC82E81E0D82EBFE08B2E912C2C
:1002D0003CDF20913302309134022F5F3F4F309347
:1002E0003402209333028636F1F18736CCF482361D
:1002F00009F4A8C083367CF48E3349F18F333CF483
:10030000813209F480C08C3309F094C022C0813658
:1003100009F090C094C0843601F185360CF51BC0FD
:100320008F3609F445C0803744F48C3611F18D3690
:1003300059F1873609F07EC019C0843709F441C0ED
:10034000863709F45AC0823709F074C036C0B394B6
:10035000BFCFBA94BDCFEE2432C0EE2482E074C089
:10036000EE2484E071C0EE2485E06EC0EE2487E0C8
:100370006BC00DDFBC0190932B0280932A02809109
:100380002C0290912D0233C0E0DE8C3619F41092CD
:10039000350204C0A09235021092360280913302D9
:1003A000909134020196909334028093330290CF5F
:1003B000EEDEB82E809329028BCFEE24E39480E00A
:1003C00043C0E5DEBC01CE018AD3CB01880F991F63
:1003D000F3E0660F771FFA95E1F7860F971F90936A
:1003E0002D0280932C0260912A0270912B0277D308
:1003F00070932F0260932E026BCFC9DE909331026F
:100400008093300265CF7092290210932D020093E1
:100410002C02F0922B02E0922A02D0922F02C0927C
:100420002E02909231028092300210923502E4E066
:10043000BE2E4ECF10923402109233025DC0EE24D5
:1004400089E002C0EE248BE09CE0B99EB02C112420
:10045000B80E7BDE8B3211F08332B1F4809133021F
:100460009091340201969093340280933302B394B6
:10047000F0CF809133029091340201969093340230
:1004800080933302BA9461DE8D3299F3C0912E02CB
:10049000D0912F028153883048F4C0912C02D09122
:1004A0002D0275DEBC01CE011AD3EB018E010BC00B
:1004B000809133029091340201969093340280939C
:1004C0003302C00FD11F169507953FDE8E3281F3A0
:1004D00080913502882339F0CE01969587958093D7
:1004E0003602C81BD109EE2011F0BB24BA948B2D23
:1004F000BE014091300296DECDB7DEB7EDE046C3D7
:100500001F920F920FB60F9211242F933F934F9388
:100510005F936F937F938F939F93AF93BF93EF936B
:10052000FF938091390290913A029C012150304012
:1005300030933A0220933902009709F510926F0028
:10054000789480918100887F81608093810080E130
:1005500097E2909389008093880010928B0010920C
:100560008A0081E0809328028091330290913402C6
:10057000009729F080913802882309F481DEFF91E9
:10058000EF91BF91AF919F918F917F916F915F910B
:100590004F913F912F910F900FBE0F901F90189584
:1005A00041CE089580912802882351F081E0209166
:1005B0003302309134022115310519F480E0089599
:1005C00081E00895EFCF089510926F00E1E8F0E028
:1005D0008081887F8160808380E197E290938900A9
:1005E0008093880010928B0010928A0081E08093A3
:1005F00028021092340210923302E6C1E5CF08952A
:1006000081E090E06F9364E06A95F1F76F91019754
:10061000C9F708951F93CF93DF9317B13F98289898
:10062000299AC0E0D0E0ECDF2B9AEADF86B12B9864
:1006300087FF11C022969E0140E050E080913F026A
:1006400090914002A0914102B091420228173907CF
:100650004A075B0740F317B9DF91CF911F910895C7
:1006600088B92B9ACDDF2B98CBCFA2E0B0E0EAE39C
:10067000F3E079C26A83898341D0CCDF07B118B136
:1006800029986A818981662311F0289A01C02898E7
:100690009FEF97B9E5DF07B918B92296E4E07FC26A
:1006A00060E042E0E2CF80E197E2A0E0B0E080933A
:1006B0003F0290934002A0934102B0934202209ADD
:1006C000219A239A8EE190E046D180E3E9DF86E02B
:1006D00090E041D180E3E4DF82E090E03CD180E330
:1006E000DFDF82E090E037D188E3DADF88E0D8DF2F
:1006F00081E0D6DF86E0D4DF8CE0D2CF8091430268
:10070000882321F481E080934302CDCF089561E0F6
:1007100042E0ABCFEF92FF92CF93DF93E82EE70159
:100720007E01F92EE70101C0F2DF89918823E1F70C
:10073000DF91CF91FF90EF900895ECCF0895AAE05C
:10074000B0E0E4EAF3E009C29B01AC011AE08AE000
:10075000C82ED12CE12CF12C5E010894A11CB11CF7
:10076000022FCA01B901A7019601CDD11150F5019F
:10077000E10FF11D005D922F990F892F880F880FCF
:10078000890F081B0083211531054105510541F7EB
:1007900007C0F601E10FF11D8081B9DF1F5F04C0C2
:1007A0006E010894C11CD11C1A3098F32A96EAE015
:1007B000F0C1EF92FF920F931F937B018C0197FF83
:1007C0000AC010950095F094E094E11CF11C011D05
:1007D000111D8DE29CDFC801B701B1DF1F910F91A0
:1007E000FF90EF900895E5CF0895A5E0B0E0EAEF1F
:1007F000F3E0BAC1182F80E8898380EC8A8384E90A
:100800008B8384ED8C83FE01E60FF11D8181810FC6
:100810006D8346DF10933E026D8160933D02259605
:10082000E3E0BEC1E2CF089587B18D7A87B985E054
:1008300090E06F9364E06A95F1F76F910197C9F7C3
:10084000089580914402882321F481E0809344023A
:10085000EBCF0895A1E0B0E0EFE2F4E086C1898338
:10086000F0DF96B1898189232196E2E09AC11F9336
:10087000CF93DF93182FE5DFC12FD0E026B130E012
:10088000209530952C233D2321153105B9F38AE0BD
:1008900090E061D026B130E0209530952C233D23A7
:1008A0002115310559F386B180958123DF91CF91D0
:1008B0001F910895DCCF08956F9364E06A95F1F776
:1008C0006F910197C9F708952F928F939F932FB639
:1008D000809152029091530201968093520290931C
:1008E000530290E080915402891F809354029091AA
:1008F0005A029C5F90935A0280915902805197420C
:10090000C0F090935A0280935902809155029091C1
:1009100056020196809355029093560290E0809182
:100920005702891F8093570280915802891F809334
:1009300058022FBE9F918F912F901895CF93DF93E0
:10094000EC0104C088EE93E0B7DF21972097D1F740
:10095000DF91CF910895F2CF08958EEF63E09AD0A2
:1009600080E0BBC0FADF8823E9F708951F93CF9397
:10097000DF93EC01162F22E08030920708F5F2DFBA
:100980009E012078307056E0369527955A95E1F70C
:10099000AE0140705170822F852B806F212F30E087
:1009A0002078307045E0359527954A95E1F7822B00
:1009B00094D09E012F77822F90D0812F8F778DD06A
:1009C000DF91CF911F91089581EE87C0A2E0B0E042
:1009D000EBEEF4E0C7C0182F062F7A836983FA8004
:1009E00067FD02C088E901C08CE9F7FC826017FD51
:1009F000816073D0812F8F7770D08F2D8F776DD0DE
:100A0000802F8F776AD02296E5E0C8C0A1E0B0E0E1
:100A1000EBE0F5E0A9C0182F803108F01FE082EE6E
:100A200069835BD0812F59D06981662321F081E1F0
:100A300090E0612F9BDF2196E3E0B2C06F9364E00A
:100A40006A95F1F76F910197C9F70895A1E0B0E0B9
:100A5000EBE2F5E089C0182F249908C02C9906C054
:100A60002C9A8EE190E06983E9DF698184B1806A24
:100A700084B92698812F837080656C7A862B8CBD13
:100A800081E012FF80E08DBD81E090E057DF21968C
:100A9000E3E086C00F931F93082F162F0CB406FCBB
:100AA00003C085E060E0D2DF0CB404FC03C08CB569
:100AB00080618CBD0EBD03C00CB404FE0AC00DB431
:100AC00007FEFACF112319F0812F90E0B7DF8EB522
:100AD00001C080E01F910F91089560E0DBCFAA1B59
:100AE000BB1B51E107C0AA1FBB1FA617B70710F019
:100AF000A61BB70B881F991F5A95A9F7809590954B
:100B0000BC01CD010895A1E21A2EAA1BBB1BFD0159
:100B10000DC0AA1FBB1FEE1FFF1FA217B307E407DC
:100B2000F50720F0A21BB30BE40BF50B661F771F34
:100B3000881F991F1A9469F7609570958095909514
:100B40009B01AC01BD01CF0108952F923F924F92BE
:100B50005F926F927F928F929F92AF92BF92CF924D
:100B6000DF92EF92FF920F931F93CF93DF93CDB756
:100B7000DEB7CA1BDB0B0FB6F894DEBF0FBECDBFCE
:100B800009942A88398848885F846E847D848C849F
:100B90009B84AA84B984C884DF80EE80FD800C81A8
:100BA0001B81AA81B981CE0FD11D0FB6F894DEBF8B
:0C0BB0000FBECDBFED010895F894FFCFFB
:100BBC004D75736963210020200040FF40FF40FF0A
:100BCC003C4043FF37FF3C37FF34393B3A39374021
:100BDC0043454143FF403C3E3B3C37FF34393B3AB5
:100BEC0039374043454143FF403C3E3BFF43424184
:100BFC003F40FF38393CFF393C3EFF4342413F40C8
:100C0C00FF48FF48FF48FF4342413F40FF38393C13
:100C1C00FF393C3EFF3FFF3E3C640019007D007DE8
:100C2C00007D007D007D00FA00FA00FA00FA00FA5F
:100C3C000077017D00FA007701FA00FA007D00FAD6
:100C4C0000A700A700A700FA007D007D007D00FA38
:100C5C00007D007D00770177017D00FA007701FAB5
:100C6C0000FA007D00FA00A700A700A700FA007D9B
:100C7C00007D007D00FA007D007D007701FA007D8B
:100C8C00007D007D00FA007D007D007D007D007DF3
:100C9C00007D007D007D007D00FA007D007D007DE3
:100CAC0000FA007D007D00C800320064001900F4D9
:100CBC0001FA007D007D007D00FA007D007D007D45
:100CCC00007D007D007D007D007D007D00FA00FA36
:100CDC00007D007701F4010101040400D007F40148
:020CEC000F00F7
:00000001FF
