:100000003DC0000056C0000054C0000052C00000B7
:1000100050C000004EC000004CC000004AC00000AC
:1000200048C0000046C0000044C000001AC10000E3
:1000300040C000003EC000003CC000003AC00000CC
:1000400038C0000036C0000034C0000032C00000DC
:1000500030C000002EC000002CC000002AC00000EC
:1000600028C0000026C0000024C0000022C00000FC
:1000700020C000001EC000001CC0000011241FBED4
:10008000CFEFD0E1DEBFCDBF11E0A0E0B1E0E0E412
:10009000F5E002C005900D92A230B107D9F711E04A
:1000A000A2E0B1E001C01D92AE30B107E1F715D07A
:1000B00045C2A6CF8F3F21F488B1805888B905C0CA
:1000C000882311F0479A01C047983F9A089580917C
:1000D00000018F5F809300010895EF92FF920F93CC
:1000E0001F93CF93DF9382E0E82EF12C00E011E024
:1000F0009BD0B701B7D1EB01C050D1408FEFC030DA
:10010000D80711F4C1E0DFEFCE01BE01A0D0D7FFC8
:1001100003C0D095C195DF4F81E0CCDFC8018C1BB7
:100120009D0BEC01E5D080E0C5DFCE01E1D0E0CF52
:1001300080917C0090E025E0959587952A95E1F7E0
:100140008170089580917A0090E036E095958795CA
:100150003A95E1F781700895EBDF882321F0209133
:10016000790030E004C02091780030917900C90115
:1001700008958032B0F497E890937A0090917C00D3
:10018000292F2064662311F0906C02C0922F9F7774
:10019000907E982B90937C0080917A00806480936D
:1001A0007A000895A0E0B0E0E7EDF0E09AC16B01BD
:1001B00060E0DFDFC7DF8823E9F7E601EE24FF24F4
:1001C000870180917A00806480937A00BBDF882366
:1001D000E9F7C2DFA0E0B0E0E80EF91E0A1F1B1F1E
:1001E000219779F7C6019695879520E4C216D10428
:1001F00038F48E0D9F1D6C2D70E020D1CB010CC00A
:10020000BC0180E090E06E0D7F1D801F911F960164
:1002100040E050E03AD1C901CDB7DEB7E8E07DC19A
:1002200087E064E170E0BECFFBCF0895AC0180E0D1
:1002300060E060C0AC0181E060E05CC0CF93DF9320
:10024000EB01F4DFCE01F6DFDF91CF910895F6CF19
:1002500008956F9364E06A95F1F76F910197C9F77C
:1002600008952F928F939F932FB6809103019091C1
:1002700004010196809303019093040190E0809122
:100280000501891F8093050190910B019C5F90935C
:100290000B0180910A0180519742C0F090930B01AD
:1002A00080930A0180910601909107010196809345
:1002B00006019093070190E080910801891F8093C7
:1002C000080180910901891F809309012FBE9F9128
:1002D0008F912F901895CF93DF93EC0104C088EE97
:1002E00093E0B7DF21972097D1F7DF91CF91089561
:1002F000F2CF08950F931F93CF93DF93182F062FFC
:10030000EA0180910D011F3F49F4882309F03BC0A9
:1003100087ED92D081E080930D0135C08823B1F143
:1003200086ED8AD010920D0131C00F3F71F480E943
:100330000FC090E0CA9606C090E00F3F11F480967F
:1003400001C08296880F880F03C082E901C084EE45
:10035000D7FF06C0D095C195DF4F0F3F09F08E5FE4
:10036000CF3FD10521F01CF0CFEFD0E001C0C7FD99
:10037000816062D09E012F77822F5ED0DF91CF9176
:100380001F910F910895013081F6E1CF81E0113086
:1003900009F080E0013081F6CCCF6F9364E06A957C
:1003A000F1F76F910197C9F70895A1E0B0E0EAED88
:1003B000F1E09CC0182F249908C02C9906C02C9AF3
:1003C0008EE190E06983E9DF698184B1806A84B954
:1003D0002698812F837080656C7A862B8CBD81E096
:1003E00012FF80E08DBD81E090E075DF2196E3E0B3
:1003F00099C00F931F93082F162F0CB406FC03C04F
:1004000085E060E0D2DF0CB404FC03C08CB58061F1
:100410008CBD0EBD03C00CB404FE0AC00DB407FEB3
:10042000FACF112319F0812F90E0B7DF8EB501C00C
:1004300080E01F910F91089560E0DBCFAA1BBB1BEA
:1004400051E107C0AA1FBB1FA617B70710F0A61BD4
:10045000B70B881F991F5A95A9F780959095BC01F5
:10046000CD01089597FB092E07260AD077FD04D009
:10047000E5DF06D000201AF4709561957F4F08954E
:10048000F6F7909581959F4F0895A1E21A2EAA1B29
:10049000BB1BFD010DC0AA1FBB1FEE1FFF1FA21734
:1004A000B307E407F50720F0A21BB30BE40BF50B31
:1004B000661F771F881F991F1A9469F760957095BA
:1004C000809590959B01AC01BD01CF0108952F92BD
:1004D0003F924F925F926F927F928F929F92AF92D4
:1004E000BF92CF92DF92EF92FF920F931F93CF9321
:1004F000DF93CDB7DEB7CA1BDB0B0FB6F894DEBFB8
:100500000FBECDBF09942A88398848885F846E84DD
:100510007D848C849B84AA84B984C884DF80EE8027
:10052000FD800C811B81AA81B981CE0FD11D0FB630
:10053000F894DEBF0FBECDBFED010895F894FFCF54
:020540000100B8
:00000001FF
