:1000000047C0000061C000005FC000005DC000008C
:100010005BC0000059C0000057C0000055C0000080
:1000200053C0000051C000004FC000000C94FC08F9
:100030004BC0000049C0000047C000001AC30000C8
:1000400043C0000041C000003FC000003DC00000B0
:100050008AC600000C94AC0837C0000035C0000010
:1000600033C0000031C000002FC000002DC00000D0
:10007000A0C600000C94D00827C000004869207476
:1000800068657265210D0A006431360063313600FF
:1000900011241FBECFEFD0E1DEBFCDBF11E0A0E045
:1000A000B1E0EAE2F6E102C005900D92A637B10791
:1000B000D9F711E0A6E7B1E001C01D92A13EB1075A
:1000C000E1F7C3D00C94130B9BCF883068F441E068
:1000D00050E002C0440F551F8A95E2F7842FEAE2F0
:1000E000F0E0ABE2B0E03BC0803180F4282F30E09C
:1000F0002850304081E090E002C0880F991F2A9577
:10010000E2F7E4E2F0E0A5E2B0E029C0883180F453
:10011000282F30E02051304081E090E002C0880F6D
:10012000991F2A95E2F7E7E2F0E0A8E2B0E017C0F5
:10013000803280F42FE130E0281B310981E090E02B
:1001400002C0880F991F2A95E2F7E1E2F0E0A2E2EF
:10015000B0E005C080E0E0E0F0E0A0E0B0E09C911D
:1001600098279C939081982B9083089580914B01C0
:100170008F5F80934B01089501C0B8D782E01CD4F3
:100180008823D9F308951F93182F88D380E091E036
:100190009AD3812F56D380E061E0B4D31235D1F0E9
:1001A00013353CF4143409F1173479F0133421F584
:1001B00016C01436D1F015361CF41336E9F40FC00E
:1001C000173619F01237C1F405C085E17EDF85E0EE
:1001D00091E010C087E179DF8FE091E00BC08CE8FF
:1001E00090E0A3D287E191E005C088E890E09DD23D
:1001F00083E291E068D310C0BFDF80E28127809363
:10020000C10182E061EC71E041E0A4D78FE291E0AE
:100210005AD38091C10115D31F9108950FC0F0E00A
:10022000EF55FE4F8081AFDF809176018F3119F459
:100230001092760103C08F5F8093760182E0ACD389
:10024000E09176018E1759F7089528D384E391E061
:100250003AD380E061E056D380E491E034D382E089
:1002600040E855E260E070E093D682E061EA71E038
:1002700040E277D53BD7D2DF80E15CD38823D1F34E
:100280007BDF81EC91E06CE770E04BE050E00E9496
:100290000A0B82E061EC71E04BE05CD71092CC017C
:1002A000FDD280E061E02ED38FE291E00CD381ECAF
:1002B00091E009D380E16ED3DDCF90917C01E09194
:1002C0007801F0917901992311F0849101C0808126
:1002D000282F21542A3110F4805E0895803271F461
:1002E0002091780130917901A9014F5F5F4F5093C0
:1002F0007901409378012115310509F70895EF92AE
:10030000FF92CF93DF93D9DFC0E0D0E01AC09E0107
:10031000220F331F93E0CC0FDD1F9A95E1F7C20F38
:10032000D31F992787FD9095C80FD91FE09780911B
:1003300078019091790101969093790180937801E9
:10034000BCDF982F90539A3010F3CE01DF91CF91FC
:10035000FF90EF90089510926F0083E080938000EB
:1003600081E1809381001092820080E197E2909376
:1003700089008093880010928B0010928A007894F4
:10038000089580917701882321F481E0809377019B
:10039000E2CF0895CF92DF92FF920F931F93DF93E6
:1003A000CF930F92CDB7DEB7F82E6B014983E9DF0B
:1003B00010924C010FE610E0F8011082898160E094
:1003C000BBD78F2DB60198D7D0927F01C0927E0106
:1003D00086B38FEF86BB81E0F801808378940F901D
:1003E000CF91DF911F910F91FF90DF90CF900895F3
:1003F000A0E0B0E0EEEFF1E00C94D80AB0904D012F
:1004000080917A01882359F060917B01662339F04D
:100410008FEF70E040E0BEDF10927B0126C1C0ECA0
:10042000DDE5AA24A39424E0722E00ED17E094E009
:10043000E92EF12C84EFC82E81E0D82EBFE08B2E60
:10044000912C3BDF20917801309179012F5F3F4F54
:1004500030937901209378018636F1F18736CCF418
:10046000823609F4A8C083367CF48E3349F18F3389
:100470003CF4813209F480C08C3309F094C022C06E
:10048000813609F090C094C0843601F185360CF5B0
:100490001BC08F3609F445C0803744F48C3611F107
:1004A0008D3659F1873609F07EC019C0843709F4BA
:1004B00041C0863709F45AC0823709F074C036C08B
:1004C000B394BFCFBA94BDCFEE2432C0EE2482E005
:1004D00074C0EE2484E071C0EE2485E06EC0EE248A
:1004E00087E06BC00CDFBC0190934F0180934E01FD
:1004F000809150019091510133C0DFDE8C3619F4A8
:1005000010927A0104C0A0927A0110927B0180912E
:100510007801909179010196909379018093780107
:1005200090CFEDDEB82E80934D018BCFEE24E39477
:1005300080E043C0E4DEBC01CE01FFD7CB01880FD1
:10054000991FF3E0660F771FFA95E1F7860F971F63
:10055000909351018093500160914E0170914F0131
:10056000ECD770935301609352016BCFC8DE909328
:1005700055018093540165CF70924D011093510144
:1005800000935001F0924F01E0924E01D09253013E
:10059000C0925201909255018092540110927A01BA
:1005A000E4E0BE2E4ECF10927901109278015DC02A
:1005B000EE2489E002C0EE248BE09CE0B99EB02CD2
:1005C0001124B80E7ADE8B3211F08332B1F48091AF
:1005D0007801909179010196909379018093780147
:1005E000B394F0CF80917801909179010196909326
:1005F000790180937801BA9460DE8D3299F3C091CD
:100600005201D09153018153883048F4C091500178
:10061000D091510174DEBC01CE018FD7EB018E0168
:100620000BC08091780190917901019690937901A6
:1006300080937801C00FD11F169507953EDE8E324C
:1006400081F380917A01882339F0CE0196958795C0
:1006500080937B01C81BD109EE2011F0BB24BA9412
:100660008B2DBE014091540195DECDB7DEB7EDE094
:10067000BBC71F920F920FB60F9211242F933F9377
:100680004F935F936F937F938F939F93AF93BF939A
:10069000EF93FF9380917E0190917F019C01215007
:1006A000304030937F0120937E01009709F510922E
:1006B0006F00789480918100887F816080938100B1
:1006C00080E197E2909389008093880010928B00DC
:1006D00010928A0081E080934C0180917801909182
:1006E0007901009729F080917D01882309F480DE4B
:1006F000FF91EF91BF91AF919F918F917F916F91FA
:100700005F914F913F912F910F900FBE0F901F90CF
:10071000189510926F00909379018093780181E091
:1007200080937C0110927B0163CEF3CF089581E02A
:1007300090E06F9364E06A95F1F76F910197C9F7C4
:1007400008951F93CF93DF9317B13F982898299A64
:10075000C0E0D0E0ECDF2B9AEADF86B12B9887FF70
:1007600011C022969E0140E050E08091840190915A
:100770008501A0918601B0918701281739074A07A2
:100780005B0740F317B9DF91CF911F91089588B9A6
:100790002B9ACDDF2B98CBCFA2E0B0E0E1EDF3E0D8
:1007A00010C76A83898341D0CCDF07B118B129987B
:1007B0006A818981662311F0289A01C028989FEFE9
:1007C00097B9E5DF07B918B92296E4E016C760E0EB
:1007D00042E0E2CF80E197E2A0E0B0E080938401C4
:1007E00090938501A0938601B0938701209A219A66
:1007F000239A8EE190E047D580E3E9DF86E090E040
:1008000042D580E3E4DF82E090E03DD580E3DFDFA6
:1008100082E090E038D588E3DADF88E0D8DF81E055
:10082000D6DF86E0D4DF8CE0D2CF809188018823A8
:1008300021F481E080938801CDCF089561E042E00A
:10084000ABCFFCCF089581E0C2DF80918001909111
:100850008101009711F1A0E0B0E208C0E0918001B1
:10086000F0918101E20FF31FB083AF5F2A2F30E0D8
:100870008091560190E001976091570170E0869F4A
:10088000A001879F500D969F500D11242417350706
:100890002CF310928301109282010895D4CF089511
:1008A000EF92FF92CF93DF93E82EE7017E01F92EBE
:1008B000E70101C0C3DF89918823E1F7DF91CF9180
:1008C000FF90EF900895ECCF0895A5E0B0E0EAE640
:1008D000F4E078C6182F80E8898380EC8A8384E965
:1008E0008B8384ED8C83FE01E60FF11D8181810FE6
:1008F0006D836DDF109383016D8160938201259676
:10090000E3E07CC6E2CF089587B18D7A87B985E0B0
:1009100090E06F9364E06A95F1F76F910197C9F7E2
:10092000089580918901882321F481E080938901D1
:10093000EBCF0895A1E0B0E0EFE9F4E044C689838D
:10094000F0DF96B1898189232196E2E058C61F9392
:10095000CF93DF93182FE5DFC12FD0E026B130E031
:10096000209530952C233D2321153105B9F38AE0DC
:1009700090E089D426B130E0209530952C233D239A
:100980002115310559F386B180958123DF91CF91EF
:100990001F910895DCCF0895282F30E0F901EE0F64
:1009A000FF1F43E0220F331F4A95E1F7E20FF31FC9
:1009B000E85AFE4F82810895282F30E0F901EE0FAA
:1009C000FF1F73E0220F331F7A95E1F7E20FF31F49
:1009D000E85AFE4F4181282F30E0F901EE0FFF1F4A
:1009E00053E0220F331F5A95E1F7E20FF31FE85A45
:1009F000FE4F81E09381491380E00895282F30E075
:100A0000F901EE0FFF1FB3E0220F331FBA95E1F794
:100A1000E20FF31FE85AFE4F4085518541155105FD
:100A200009F452C0282F30E0F901EE0FFF1F73E0E8
:100A3000220F331F7A95E1F7E20FF31FE85AFE4FBA
:100A40007281282F30E0F901EE0FFF1FB3E0220F73
:100A5000331FBA95E1F7E20FF31FE85AFE4F948176
:100A6000791790F5282F30E0F901EE0FFF1F73E0A2
:100A7000220F331F7A95E1F7E20FF31FE85AFE4F7A
:100A80009281490F511DFA016083282F30E0F9014E
:100A9000EE0FFF1F53E0220F331F5A95E1F7E20FCD
:100AA000F31FE85AFE4F92819F5F282F30E0F90133
:100AB000EE0FFF1FB3E0220F331FBA95E1F7E20FED
:100AC000F31FE85AFE4F9283282F30E0F901EE0F12
:100AD000FF1F73E0220F331F7A95E1F7E20FF31F38
:100AE000E85AFE4F4281282F30E0F901EE0FFF1F38
:100AF00053E0220F331F5A95E1F7E20FF31FE85A34
:100B0000FE4F9481491701F5282F30E0F901EE0FCF
:100B1000FF1F93E0220F331F9A95E1F7E20FF31FB7
:100B2000E85AFE4F9581992379F0282F30E0F9019A
:100B3000EE0FFF1FB3E0220F331FBA95E1F7E20F6C
:100B4000F31FE85AFE4F128208951F93CF93DF934D
:100B5000182F823009F473C0882319F4E1ECF0E017
:100B600002C0E9ECF0E080818F778083812F90E0F4
:100B7000FC01EE0FFF1F23E0880F991F2A95E1F774
:100B8000E80FF91FE85AFE4F808591850097A1F183
:100B9000212F30E0F901EE0FFF1FA3E0220F331FDA
:100BA000AA95E1F7E20FF31FE85AFE4F9281212F39
:100BB00030E0F901EE0FFF1F63E0220F331F6A954B
:100BC000E1F7E20FF31FE85AFE4F84819817A0F473
:100BD000112319F4E0ECF0E002C0E8ECF0E08081D1
:100BE00087FF0AC0112319F4E6ECF0E002C0EEEC36
:100BF000F0E06081812F02DF212F30E0F901EE0F5C
:100C0000FF1F43E0220F331F4A95E1F7E20FF31F66
:100C1000E85AFE4F80818823B9F5112319F4E1ECDD
:100C2000F0E002C0E9ECF0E08081806880832CC0B5
:100C300080917101882319F010926E0125C0809176
:100C40007401909175010097F9F090916E01809177
:100C500070019817C8F4E2D38823B1F080916E0137
:100C6000C0917401D0917501C80FD11DF1D3888353
:100C700080916E018F5F80936E0190916E018091E3
:100C800070019817E1F6D4CFDF91CF911F910895AD
:100C9000823051F0882319F4E1ECF0E002C0E9EC75
:100CA000F0E090819F779083A82FB0E0FD01EE0FD8
:100CB000FF1F53E0AA0FBB1F5A95E1F7EA0FFB1F76
:100CC000E85AFE4F71876087682F70E0FB01EE0FD6
:100CD000FF1F93E0660F771F9A95E1F7E60FF71F66
:100CE000E85AFE4F1282682F70E0FB01EE0FFF1FE3
:100CF000A3E0660F771FAA95E1F7E60FF71FE85A02
:100D0000FE4F4483482F50E0FA01EE0FFF1F63E0CF
:100D1000440F551F6A95E1F7E40FF51FE85AFE4F9F
:100D200025838230D9F0282F30E0F901EE0FFF1F24
:100D300043E0220F331F4A95E1F7E20FF31FE85A11
:100D4000FE4F9081992351F4882319F4E1ECF0E0EF
:100D500002C0E9ECF0E0808180688083089521E0A2
:100D600097CFFDCF08951F920F920FB60F921124C7
:100D70002F933F934F935F936F937F938F939F93A3
:100D8000AF93BF93EF93FF936091C60080E036DE90
:100D9000FF91EF91BF91AF919F918F917F916F9153
:100DA0005F914F913F912F910F900FBE0F901F9029
:100DB00018951F920F920FB60F9211242F933F9305
:100DC0004F935F936F937F938F939F93AF93BF9353
:100DD000EF93FF936091CE0081E010DEFF91EF91E1
:100DE000BF91AF919F918F917F916F915F914F9143
:100DF0003F912F910F900FBE0F901F901895882351
:100E000019F4E1ECF0E002C0E9ECF0E080818062EE
:100E100080830895882319F4E1ECF0E002C0E9EC46
:100E2000F0E080818F7D80830895282F30E0F901E4
:100E3000EE0FFF1F93E0220F331F9A95E1F7E20FA9
:100E4000F31FE85AFE4F268137812115310591F1B4
:100E5000282F30E0F901EE0FFF1FA3E0220F331F10
:100E6000AA95E1F7E20FF31FE85AFE4F4181282FC0
:100E700030E0F901EE0FFF1F63E0220F331F6A9588
:100E8000E1F7E20FF31FE85AFE4F9381491790F400
:100E9000282F30E0F901EE0FFF1F43E0220F331F30
:100EA0004A95E1F7E20FF31FE85AFE4F908199232C
:100EB00009F4A5CFAFCF823029F1282F30E0F90116
:100EC000EE0FFF1F53E0220F331F5A95E1F7E20F99
:100ED000F31FE85AFE4F9081992349F4882319F4AF
:100EE000E1ECF0E002C0E9ECF0E098E908C088230A
:100EF00019F4E1ECF0E002C0E9ECF0E098E1908355
:100F000094DF78940895882319F0813029F402C081
:100F100080E0D1CF81E0CFCF0895CF92DF92EF92E2
:100F2000FF920F931F93182F6A017B01ECDFC7011B
:100F3000B60128EF3FEF4FEF5FEFE0D26050734D07
:100F40008E4C9E4FA7019601E4E0220F331F441FF1
:100F5000551FEA95D1F705D369017A01C90112300D
:100F600039F480E060E040E0960100E0FDD109C086
:100F7000112319F4E4ECF0E002C0ECECF0E0918312
:100F800080831F910F91FF90EF90DF90CF90089595
:100F9000C4CF0895282F30E0F901EE0FFF1F73E052
:100FA000220F331F7A95E1F7E20FF31FE85AFE4F45
:100FB000468157814115510509F465C0282F30E05D
:100FC000F901EE0FFF1F93E0220F331F9A95E1F70F
:100FD000E20FF31FE85AFE4F6181282F30E0F9013C
:100FE000EE0FFF1FA3E0220F331FAA95E1F7E20FD8
:100FF000F31FE85AFE4F9381691708F044C0882315
:1010000019F4E0ECF0E002C0E8ECF0E0908195FF2C
:101010003AC0882319F4A6ECB0E002C0AEECB0E010
:10102000282F30E0F901EE0FFF1F63E0220F331F7E
:101030006A95E1F7E20FF31FE85AFE4F9181490FDD
:10104000511DFA0190819C93282F30E0F901EE0F99
:10105000FF1F93E0220F331F9A95E1F7E20FF31F72
:10106000E85AFE4F91819F5F282F30E0F901EE0F83
:10107000FF1FA3E0220F331FAA95E1F7E20FF31F32
:10108000E85AFE4F9183D1CE1F93182F823021F062
:10109000C1DE812F7FDF1CC08091720190917301AE
:1010A0000097B1F030916D0120916F01321780F4FB
:1010B00006C080916D018F5F80936D01EDCF20910F
:1010C0006D01820F911DFC018081ADD1882389F7CC
:1010D0001F91089580E0D8DF81E0D6DF82E0D4DF81
:1010E00080E033DD81E031DD82E02FCDF3CF089564
:1010F000282F30E0F901EE0FFF1F93E0220F331F7E
:101100009A95E1F7E20FF31FE85AFE4F7783668363
:10111000282F30E0F901EE0FFF1FA3E0220F331F4D
:10112000AA95E1F7E20FF31FE85AFE4F1182282F2C
:1011300030E0F901EE0FFF1F63E0220F331F6A95C5
:10114000E1F7E20FF31FE85AFE4F4383823009F0C4
:101150006CCE0895CDCF08951F920F920FB60F92C7
:1011600011242F933F934F935F936F937F938F93AC
:101170009F93AF93BF93EF93FF9380E00BDFFF91BB
:10118000EF91BF91AF919F918F917F916F915F91FF
:101190004F913F912F910F900FBE0F901F90189578
:1011A0001F920F920FB60F9211242F933F934F93DC
:1011B0005F936F937F938F939F93AF93BF93EF93BF
:1011C000FF9381E0E7DEFF91EF91BF91AF919F9197
:1011D0008F917F916F915F914F913F912F910F90E0
:1011E0000FBE0F901F9018956F9364E06A95F1F70A
:1011F0006F910197C9F708952F928F939F932FB600
:101200008091970190919801019680939701909316
:10121000980190E080919901891F809399019091A4
:101220009F019C5F90939F0180919E018051974206
:10123000C0F090939F0180939E0180919A019091BC
:101240009B01019680939A0190939B0190E080917D
:101250009C01891F80939C0180919D01891F80932F
:101260009D012FBE9F918F912F901895CF93DF9363
:10127000EC0104C088EE93E0B7DF21972097D1F707
:10128000DF91CF910895F2CF08958EEF63E011D1F1
:1012900080E032C1FADF8823E9F708951F93CF93E6
:1012A000DF93EC01162F22E08030920708F5F2DF81
:1012B0009E012078307056E0369527955A95E1F7D3
:1012C000AE0140705170822F852B806F212F30E04E
:1012D0002078307045E0359527954A95E1F7822BC7
:1012E0000BD19E012F77822F07D1812F8F7704D1C9
:1012F000DF91CF911F910895A2E0B0E0E1E8F9E01D
:101300005FC1182F062F7A836983FA8067FD02C0B8
:1013100088E901C08CE9F7FC826017FD8160ECD0A0
:10132000812F8F77E9D08F2D8F77E6D0802F8F7721
:10133000E3D02296E5E060C1A1E0B0E0E1EAF9E0A7
:1013400041C1182F803108F01FE082EE6983D4D0AC
:10135000812FD2D06981662321F081E190E0612F55
:101360009DDF2196E3E04AC1CF92DF92FF920F9377
:101370001F93DF93CF930F92CDB7DEB7162FF42EC6
:10138000982F9250923008F080E0622F732F6B01FB
:1013900020E0C21628E0D20620F09FEFC92E97E089
:1013A000D92E002329F0898375DF99EC898101C04A
:1013B00098EC880F892BA0D0960120783770220FE7
:1013C000232F221F330B319581E090E0FF2011F491
:1013D00080E090E004E0880F991F0A95E1F741E072
:1013E00050E0112311F440E050E0B5E0440F551FE8
:1013F000BA95E1F7842B822B7FD08C2D8F777CD010
:101400000F90CF91DF911F910F91FF90DF90CF90C0
:1014100008958EED63E04DD080E06EC08FED63E007
:1014200048D080E069C01F93182FF3DF882369F04C
:10143000912F9095991F9927991F8DED891B5CD04D
:10144000812F8F7759D081E001C080E01F910895EE
:101450008BED63E02ED080E04FC06F9364E06A951F
:10146000F1F76F910197C9F70895A1E0B0E0EAE3C1
:10147000FAE0A8C0182F249908C02C9906C02C9A0D
:101480008EE190E06983E9DF698184B1806A84B983
:101490002698812F837080656C7A862B8CBD81E0C5
:1014A00012FF80E08DBD81E090E0E0DE2196E3E078
:1014B000A5C00F931F93082F162F0CB406FC03C072
:1014C00085E060E0D2DF0CB404FC03C08CB5806121
:1014D0008CBD0EBD03C00CB404FE0AC00DB407FEE3
:1014E000FACF112319F0812F90E0B7DF8EB501C03C
:1014F00080E01F910F91089560E0DBCF629FD001E3
:10150000739FF001829FE00DF11D649FE00DF11DBE
:10151000929FF00D839FF00D749FF00D659FF00D6D
:101520009927729FB00DE11DF91F639FB00DE11D5A
:10153000F91FBD01CF0111240895AA1BBB1B51E166
:1015400007C0AA1FBB1FA617B70710F0A61BB70B33
:10155000881F991F5A95A9F780959095BC01CD01D8
:101560000895A1E21A2EAA1BBB1BFD010DC0AA1FE4
:10157000BB1FEE1FFF1FA217B307E407F50720F0FC
:10158000A21BB30BE40BF50B661F771F881F991F77
:101590001A9469F760957095809590959B01AC01C0
:1015A000BD01CF0108952F923F924F925F926F92AB
:1015B0007F928F929F92AF92BF92CF92DF92EF92E3
:1015C000FF920F931F93CF93DF93CDB7DEB7CA1B64
:1015D000DB0B0FB6F894DEBF0FBECDBF09942A888F
:1015E000398848885F846E847D848C849B84AA8437
:1015F000B984C884DF80EE80FD800C811B81AA81C4
:10160000B981CE0FD11D0FB6F894DEBF0FBECDBF8E
:10161000ED010895FB01DC0102C005900D924150DF
:0A1620005040D8F70895F894FFCF6A
:10162A0052583A2000677265656E204C4544007234
:10163A006564204C454400706C6179206E6F746556
:10164A00204300706C6179206E6F746520440054E9
:10165A00583A200053656E642073657269616C00A4
:10166A006F722070726573732042000101040400D6
:10167A00D007F4010F00041400000000000000006D
:10168A00000000000000000000000000010000004F
:06169A000000000000004A
:00000001FF
