:1000000013C100002CC100002AC1000028C100005B
:1000100026C1000024C1000022C1000020C1000050
:100020001EC1000032C600001AC1000018C1000045
:1000300016C100000DC4000012C1000010C1000074
:100040000EC100000CC100000AC1000008C1000080
:1000500006C1000004C1000002C1000000C1000090
:10006000FEC00000FCC0000021204F35204C31367E
:100070002061676166616561206461632B61646111
:1000800065612066613C61613C626163236120645B
:10009000616323616461656120664F362064636437
:1000A0003C622D643C61643C6720643C662B643C8C
:1000B00067643C61643C622D20643C64643C65641C
:1000C0003C662B643C6720643C662B643C67643C64
:1000D00061644C38204D53203C622D643C622D6499
:1000E000204D4C652D3C67652D3C67204D53633C8E
:1000F00061633C61204D4C20643C66643C66204F4B
:1001000035204D5320622D67622D674D4C203E6394
:1001100023653E632365204D532061666166204D53
:100120004C20676323676323204D53206664666415
:10013000204D4C20653C622D653C622D4F36204C95
:100140003136726167616661656120646163236154
:10015000646165612066613C61613C626163236149
:100160002064616323616461656120666165616427
:100170006163613C622D61636164673C622D67204D
:100180006567646763673C622D67203C61673C621A
:100190002D6763663C616620646663663C622D661B
:1001A0003C61663C67663C61663C622D653C676508
:1001B000206323653C622D653C61653C6765203C9E
:1001C00066653C67653C61643C66644F3520653E0E
:1001D00065653E65663E64663E6420622D3E63232F
:1001E000622D3E6323613E64663E6420653E656524
:1001F0003E65663E64663E64653E643E63233E64DF
:10020000623E643E632362203E63236167616567EB
:1002100066652066204F362064632364666463232A
:100220003C6220632334000011241FBECFEFD4E0D2
:10023000DEBFCDBF11E0A0E0B1E0E6E8FEE002C025
:1002400005900D92AC37B107D9F711E0ACE7B1E0FA
:1002500001C01D92A63AB107E1F742D012C6D0CE36
:10026000809156018F5F809356010895A1E0B0E020
:10027000EBE3F1E0DFC582E3FED4898373D48981A7
:10028000803261F488E690E060D380E091E07FD432
:1002900080E061E09BD487E091E01EC0803161F492
:1002A00080E191E044D386E291E071D480E061E0A6
:1002B0008DD48EE291E010C0823079F42BD3882364
:1002C00021F05FD385E391E007C085E468EC70E03E
:1002D0004FE00ED38DE391E05AD42196E2E0C6C5FB
:1002E00085E491E054D480E061E070D48DE491E045
:1002F0004ED4BCDFFECF90918101E0917D01F09161
:100300007E01992311F0849101C08081282F21540E
:100310002A3110F4805E0895803271F420917D01BD
:1003200030917E01A9014F5F5F4F50937E01409352
:100330007D012115310509F70895EF92FF92CF93C2
:10034000DF93D9DFC0E0D0E01AC09E01220F331F37
:1003500093E0CC0FDD1F9A95E1F7C20FD31F9927C9
:1003600087FD9095C80FD91FE09780917D019091EE
:100370007E01019690937E0180937D01BCDF982FD2
:1003800090539A3010F3CE01DF91CF91FF90EF9010
:10039000089510926F0083E28093800081E1809342
:1003A00081001092820080E197E29093890080930F
:1003B000880010928B0010928A00229A78940895F7
:1003C00080917C01882321F481E080937C01E1CF3E
:1003D0000895A0E0B0E0EEEEF1E022C58C015B01F3
:1003E000E42EEEDF1092570117FF04C01F77AAE03A
:1003F000FA2E02C0FF24F394C0908100DD2428EF80
:10040000C222DD2488EC3F2D389FC00111248017C3
:100410009107D0F4E80167E20131160710F0C0E15E
:10042000D7E2BE017695679580E090E06058794606
:1004300087469F4F9E0140E050E0AFD4890181E0A4
:1004400090E0C82AD92A2BC098E2F99E902D112459
:1004500080E0892EE4014E01982EE4018016910679
:1004600008F4E801BE01769567959E0140E050E0F2
:100470008F2D8A3039F480E090E0605E73448144CF
:100480009F4F06C080E090E060537D4E8C4E9F4FA2
:1004900084D4890152E0852E912CC828D9282F2D8B
:1004A0002A3031F4CE0105966AE070E062D4EB01A7
:1004B00033E0C83ED30769F0BE0180E090E09501CB
:1004C00040E050E02BD428EE33E040E050E087D409
:1004D00001C0950110926F00C092810010938900B5
:1004E0000093880040918800509189006E2D603102
:1004F00008F06FE080E190E0861B9109BA0102C02C
:10050000769567958A95E2F770938B0060938A00E1
:10051000309384012093830186B38FEF86BB81E003
:1005200080936F00CDB7DEB7ECE096C49B018F3FA0
:1005300011F0442329F488EE93E0B90140E047C06C
:10054000813130F0582F5051503618F05FE501C01E
:1005500050E0852F6CE001D4A82FB0E0E4EFFFEF6E
:10056000AE9FB001AF9F700DBE9F700D1124650F3F
:10057000711D6C30710540F4FB01EE0FFF1FEF5948
:10058000FE4F6081718102C060E070E0873081F0D1
:10059000082E02C0660F771F0A94E2F7823028F017
:1005A000CB0105966AE070E00CC0605070480AC04C
:1005B000CB01B6E0880F991FBA95E1F7029665E086
:1005C00070E0D7D3403108F04FE0CB01B90101CF43
:1005D000A0E0B0E0EDEEF2E022C4B09058018091CE
:1005E0007F01882359F060918001662339F08FEFF5
:1005F00070E040E09BDF1092800126C1C0ECDDE599
:10060000AA24A39414E0712E00ED17E0B4E0EB2EC1
:10061000F12CA4EFCA2EA1E0DA2EFFE08F2E912C50
:100620006ADE20917D0130917E012F5F3F4F309334
:100630007E0120937D018636F1F18736CCF4823637
:1006400009F4A8C083367CF48E3349F18F333CF42F
:10065000813209F480C08C3309F094C022C0813605
:1006600009F090C094C0843601F185360CF51BC0AA
:100670008F3609F445C0803744F48C3611F18D363D
:1006800059F1873609F07EC019C0843709F441C09A
:10069000863709F45AC0823709F074C036C0B39463
:1006A000BFCFBA94BDCFEE2432C0EE2482E074C036
:1006B000EE2484E071C0EE2485E06EC0EE2487E075
:1006C0006BC03BDEBC0190935A018093590180912D
:1006D0005B0190915C0133C00EDE8C3619F41092F0
:1006E0007F0104C0A0927F011092800180917D0162
:1006F00090917E01019690937E0180937D0190CF31
:100700001CDEB82E809358018BCFEE24E39480E05A
:1007100043C013DEBC01CE012CD3CB01880F991F3F
:1007200053E0660F771F5A95E1F7860F971F909356
:100730005C0180935B016091590170915A0119D35A
:1007400070935E0160935D016BCFF7DD9093600164
:1007500080935F0165CF7092580110935C01009304
:100760005B01F0925A01E0925901D0925E01C09271
:100770005D019092600180925F0110927F0144E0E0
:10078000B42E4ECF10927E0110927D015DC0EE24FA
:1007900089E002C0EE248BE09CE0B99EB02C1124CD
:1007A000B80EA9DD8B3211F08332B1F480917D0156
:1007B00090917E01019690937E0180937D01B39488
:1007C000F0CF80917D0190917E01019690937E0102
:1007D00080937D01BA948FDD8D3299F3C0915D01D4
:1007E000D0915E018153883048F4C0915B01D09173
:1007F0005C01A3DDBC01CE01BCD2EB018E010BC0BC
:1008000080917D0190917E01019690937E0180936D
:100810007D01C00FD11F169507956DDD8E3281F3D6
:1008200080917F01882339F0CE019695879580933A
:100830008001C81BD109EE2011F0BB24BA948B2D86
:10084000BE0140915F0172DECDB7DEB7EDE003C3BC
:100850001F920F920FB60F9211242F933F934F9335
:100860005F936F937F938F939F93AF93BF93EF9318
:10087000FF9380918301909184019C01215030402D
:100880003093840120938301009709F510926F0043
:10089000789480918100887F81608093810080E1DD
:1008A00097E2909389008093880010928B001092B9
:1008B0008A0081E08093570180917D0190917E01B3
:1008C000009729F080918201882309F481DEFF914D
:1008D000EF91BF91AF919F918F917F916F915F91B8
:1008E0004F913F912F910F900FBE0F901F90189531
:1008F0001DCE089580915701882351F081E0209109
:100900007D0130917E012115310519F480E00895B3
:1009100081E00895EFCF089510926F0090937E01CB
:1009200080937D01109281011092800151CEF4CF0D
:10093000089510926F0090937E0180937D0181E075
:10094000809381011092800143CEF3CF08951092DD
:100950006F00E1E8F0E08081887F8160808380E142
:1009600097E2909389008093880010928B001092F8
:100970008A0081E08093570110927E0110927D01E0
:100980000895E5CF089581E090E06F9364E06A9563
:10099000F1F76F910197C9F708950F931F93CF93C4
:1009A000DF931AB157985A98289AC0E0D0E0EBDF4D
:1009B0005C9AE9DF09B15C98E6DF5C9AE4DF5C9859
:1009C00007FF11C024969E0140E050E0809189010C
:1009D00090918A01A0918B01B0918C012817390761
:1009E0004A075B0720F31AB9DF91CF911F910F914E
:1009F000089565B190E0AC0141705070440F551FEF
:100A00009C012670307053E0220F331F5A95E1F796
:100A1000242B6D7C262B25B92BB18870907034E087
:100A2000880F991F3A95E1F72F77282B2BB95C9AFD
:100A3000AADF5C98A8CFA2E0B0E0E0E2F5E0F5C163
:100A4000182F4A8369835AD0A8DFF4B005B1DAB011
:100A5000EBB0289869814A81662311F05A9A01C047
:100A60005A9884B1826384B9579A413021F0812F1A
:100A700082958F70BEDF812F8F70BBDFDAB8EBB845
:100A8000F4B805B92296E7E0ECC160E042E0D3CFCC
:100A900061E042E0D0CF60E041E0CDCF80E197E27D
:100AA000A0E0B0E08093890190938A01A0938B012C
:100AB000B0938C01529A209A549A8EE190E02CD1F6
:100AC00083E0E9DF86E090E027D183E0E4DF82E0A5
:100AD00090E022D183E0DFDF82E090E01DD182E070
:100AE000DADF82E090E018D188E2CFDF88E0CDDF66
:100AF00081E0CBDF86E0C9DF8CE0C7CF80918D013C
:100B0000882321F481E080938D01C8CF089581E08E
:100B1000BCDF8091850190918601009711F1A0E0E2
:100B2000B0E208C0E0918501F0918601E20FF31F69
:100B3000B083AF5F2A2F30E08091790190E0019778
:100B400060917A0170E0869FA001879F500D969F6B
:100B5000500D1124241735072CF3109288011092A0
:100B600087010895D4CF0895EF92FF92CF93DF933A
:100B7000E82EE7017E01F92EE70101C089DF8991A6
:100B80008823E1F7DF91CF91FF90EF900895ECCFAC
:100B90000895A5E0B0E0EEECF5E04BC1182F80E839
:100BA000898380EC8A8384E98B8384ED8C83FE01C6
:100BB000E60FF11D8181810F6D8367DF109388013E
:100BC0006D81609387012596E3E04FC1E2CF0895E0
:100BD00084B18D7C84B985B1826385B985E090E06C
:100BE0006F9364E06A95F1F76F910197C9F70895E3
:100BF00080918E01882321F481E080938E01E8CFDB
:100C000008951F93CF93DF93182FF2DFC12FD0E009
:100C100023B130E0209530952C233D23211531055B
:100C2000B9F38AE090E078D023B130E02095309598
:100C30002C233D232115310559F383B18095812360
:100C4000DF91CF911F9108951F93182FD1DF83B1AA
:100C50008123E9F38AE090E05FD083B18123B9F387
:100C600083B181231F9108951F93CBDF182FECDFF1
:100C7000812F1F910895F8CF08956F9364E06A95CE
:100C8000F1F76F910197C9F708952F928F939F9372
:100C90002FB680919C0190919D01019680939C01BB
:100CA00090939D0190E080919E01891F80939E0109
:100CB0009091A4019C5F9093A4018091A301805125
:100CC0009742C0F09093A4018093A30180919F016B
:100CD0009091A001019680939F019093A00190E0D4
:100CE0008091A101891F8093A1018091A201891F98
:100CF0008093A2012FBE9F918F912F901895CF9333
:100D0000DF93EC0104C088EE93E0B7DF21972097D2
:100D1000D1F7DF91CF910895F2CF0895629FD0016E
:100D2000739FF001829FE00DF11D649FE00DF11DA6
:100D3000929FF00D839FF00D749FF00D659FF00D55
:100D40009927729FB00DE11DF91F639FB00DE11D42
:100D5000F91FBD01CF0111240895991B79E004C04A
:100D6000991F961708F0961B881F7A95C9F78095EA
:100D70000895AA1BBB1B51E107C0AA1FBB1FA617E2
:100D8000B70710F0A61BB70B881F991F5A95A9F734
:100D900080959095BC01CD010895A1E21A2EAA1B61
:100DA000BB1BFD010DC0AA1FBB1FEE1FFF1FA2171B
:100DB000B307E407F50720F0A21BB30BE40BF50B18
:100DC000661F771F881F991F1A9469F760957095A1
:100DD000809590959B01AC01BD01CF01089597FBD3
:100DE000092E05260ED057FD04D0D7DF0AD0001CEF
:100DF00038F450954095309521953F4F4F4F5F4FB8
:100E00000895F6F790958095709561957F4F8F4F77
:100E10009F4F08952F923F924F925F926F927F92D1
:100E20008F929F92AF92BF92CF92DF92EF92FF92FA
:100E30000F931F93CF93DF93CDB7DEB7CA1BDB0BA6
:100E40000FB6F894DEBF0FBECDBF09942A8839884B
:100E500048885F846E847D848C849B84AA84B98452
:100E6000C884DF80EE80FD800C811B81AA81B9815E
:100E7000CE0FD11D0FB6F894DEBF0FBECDBFED0172
:060E80000895F894FFCF75
:100E860046756775652100666C617368202D3E00A6
:100E96002120563820636465666761623E6362613D
:100EA60067666564630043204D616A6F7200524154
:100EB6004D202D3E0073746F70706564006E6F7404
:100EC6006520413500507265737320610062757448
:100ED600746F6E2E2E000101040400D007F4010F7A
:100EE600009C01B501CF01EA01070226024702690B
:0C0EF600028E02B502DE020A03020800B0
:00000001FF
