:1000000047C0000060C000005EC000005CC000008F
:100010005AC0000058C0000056C0000054C0000084
:1000200052C0000059C200004EC000004CC0000089
:100030004AC0000048C0000046C0000044C00000A4
:1000400042C0000040C000003EC000003CC00000B4
:100050003AC0000038C0000036C0000034C00000C4
:1000600032C0000030C00000000A0A0A00110E0071
:10007000000A0A0A000E1100000A0A0A00000E0017
:10008000000A0A000E11110E000A0A0A001F0502DA
:1000900011241FBECFEFD4E0DEBFCDBF11E0A0E042
:1000A000B1E0ECE2F7E002C005900D92A031B1079B
:1000B000D9F711E0A0E1B1E001C01D92A133B10771
:1000C000E1F708D031C39CCF809109018F5F809305
:1000D00009010895EF92FF920F931F9388E690E035
:1000E00060E0EAD080E790E061E0E6D088E790E069
:1000F00062E0E2D080E890E063E0DED088E890E063
:1001000064E0DAD044D180E091E056D182E3B1D10D
:10011000EE24FF24870105C00894E11CF11C011D99
:10012000111D82E3CFD18823B9F7C801B701D4D21A
:1001300085E0E82EF12C012D112D86E060E05BD1E9
:10014000C8D2A801970133D2809108018617C1F364
:1001500060930801862FB2D082E3A4D1EECF81E074
:1001600090E06F9364E06A95F1F76F910197C9F79A
:1001700008950F931F93CF93DF931AB157985A980E
:10018000289AC0E0D0E0EBDF5C9AE9DF09B15C9827
:10019000E6DF5C9AE4DF5C9807FF11C024969E01BD
:1001A00040E050E08091140190911501A09116015A
:1001B000B0911701281739074A075B0720F31AB9CE
:1001C000DF91CF911F910F91089565B190E0AC013F
:1001D00041705070440F551F9C012670307053E0E1
:1001E000220F331F5A95E1F7242B6D7C262B25B95E
:1001F0002BB18870907034E0880F991F3A95E1F721
:100200002F77282B2BB95C9AAADF5C98A8CFA2E0A5
:10021000B0E0ECE0F1E0F1C1182F4A83698383D0AC
:10022000A8DFF4B005B1DAB0EBB0289869814A8153
:10023000662311F05A9A01C05A9884B1826384B936
:10024000579A413021F0812F82958F70BEDF812F28
:100250008F70BBDFDAB8EBB8F4B805B92296E7E0E7
:10026000E8C160E042E0D3CF61E042E0D0CFEF925E
:10027000FF921F93DF93CF930F92CDB7DEB7660F38
:10028000660F660F482F592F7A0110E0812F860FD5
:1002900080646983E6DFF7018491E6DF1F5F0894DD
:1002A000E11CF11C6981183089F70F90CF91DF9123
:1002B0001F91FF90EF900895DACF0895D5CF08955C
:1002C00060E041E0A4CF80E197E2A0E0B0E080935D
:1002D000140190931501A0931601B0931701529A3F
:1002E000209A549A8EE190E03ED183E0E9DF86E0E7
:1002F00090E039D183E0E4DF82E090E034D183E024
:10030000DFDF82E090E02FD182E0DADF82E090E070
:100310002AD188E2A6DF88E0A4DF81E0A2DF86E0C0
:10032000A0DF8CE09ECF80911801882321F481E02A
:1003300080931801C8CF089581E093DF8091100168
:1003400090911101009711F1A0E0B0E208C0E09196
:100350001001F0911101E20FF31FB083AF5F2A2F5C
:1003600030E080910A0190E0019760910B0170E00C
:10037000869FA001879F500D969F500D1124241732
:1003800035072CF310921301109212010895D4CF67
:100390000895EF92FF92CF93DF93E82EE7017E015D
:1003A000F92EE70101C060DF89918823E1F7DF9131
:1003B000CF91FF90EF900895ECCF0895A5E0B0E0C5
:1003C000E3EEF1E01EC1182F80E8898380EC8A8378
:1003D00084E98B8384ED8C83FE01E60FF11D81811E
:1003E000810F6D833EDF109313016D8160931201C5
:1003F0002596E3E022C1E2CF089584B18D7C84B9D3
:1004000085B1826385B985E090E06F9364E06A9579
:10041000F1F76F910197C9F7089580911901882329
:1004200021F481E080931901E8CF08951F93CF93C1
:10043000DF93182FF2DFC12FD0E023B130E02095F9
:1004400030952C233D2321153105B9F38AE090E046
:100450008AD023B130E0209530952C233D232115FF
:10046000310559F383B180958123DF91CF911F919D
:100470000895DCCF08951F93182FCFDF83B1812318
:10048000E9F38AE090E06FD083B18123B9F383B1BF
:1004900081231F9108951F93C9DF182FECDF812F4F
:1004A0001F910895F8CF0895A1E0B0E0E9E5F2E0EA
:1004B000A9C08983B2DF93B1909589818923219660
:1004C000E2E0BCC0F1CF08956F9364E06A95F1F764
:1004D0006F910197C9F708952F928F939F932FB62D
:1004E0008091270190912801019680932701909394
:1004F000280190E080912901891F80932901909122
:100500002F019C5F90932F0180912E018051974283
:10051000C0F090932F0180932E0180912A01909139
:100520002B01019680932A0190932B0190E08091FA
:100530002C01891F80932C0180912D01891F8093AC
:100540002D012FBE9F918F912F901895CF93DF9300
:10055000EC0104C088EE93E0B7DF21972097D1F734
:10056000DF91CF910895F2CF0895A1E21A2EAA1B30
:10057000BB1BFD010DC0AA1FBB1FEE1FFF1FA21753
:10058000B307E407F50720F0A21BB30BE40BF50B50
:10059000661F771F881F991F1A9469F760957095D9
:1005A000809590959B01AC01BD01CF01089597FB0B
:1005B000092E05260ED057FD04D0D7DF0AD0001C27
:1005C00038F450954095309521953F4F4F4F5F4FF0
:1005D0000895F6F790958095709561957F4F8F4FB0
:1005E0009F4F08952F923F924F925F926F927F920A
:1005F0008F929F92AF92BF92CF92DF92EF92FF9233
:100600000F931F93CF93DF93CDB7DEB7CA1BDB0BDE
:100610000FB6F894DEBF0FBECDBF09942A88398883
:1006200048885F846E847D848C849B84AA84B9848A
:10063000C884DF80EE80FD800C811B81AA81B98196
:10064000CE0FD11D0FB6F894DEBF0FBECDBFED01AA
:100650000895A0E0B0E0EEE2F3E0CCCFEC016881D9
:1006600079818A819B81611571058105910521F44C
:1006700064E279ED8BE597E02DE133EF41E050E066
:1006800096DF79018A0127EA31E440E050E02DD07D
:100690005B016C01C801B7012CEE34EF4FEF5FEF47
:1006A00024D09B01AC012A0D3B1D4C1D5D1D57FF45
:1006B00004C02150304040405048288339834A8349
:1006C0005B835F77B901CA01CDB7DEB7EAE0AECF91
:1006D000C0CF8CE091E0BDCF60930C0170930D0111
:1006E00080930E0190930F010895629FD001739F34
:1006F000F001829FE00DF11D649FE00DF11D929FBE
:10070000F00D839FF00D749FF00D659FF00D9927FC
:10071000729FB00DE11DF91F639FB00DE11DF91F20
:0C072000BD01CF0111240895F894FFCF13
:10072C006D6F6F643A203F00050102080100000064
:00000001FF
